{
  "_format": "hh-sol-artifact-1",
  "contractName": "ForceBridge",
  "sourceName": "contracts/ForceBridge.sol",
  "abi": [
    {
      "inputs": [
        {
          "internalType": "address[]",
          "name": "validators",
          "type": "address[]"
        },
        {
          "internalType": "uint256",
          "name": "multisigThreshold",
          "type": "uint256"
        }
      ],
      "stateMutability": "nonpayable",
      "type": "constructor"
    },
    {
      "anonymous": false,
      "inputs": [
        {
          "indexed": true,
          "internalType": "address",
          "name": "token",
          "type": "address"
        },
        {
          "indexed": true,
          "internalType": "address",
          "name": "sender",
          "type": "address"
        },
        {
          "indexed": false,
          "internalType": "uint256",
          "name": "lockedAmount",
          "type": "uint256"
        },
        {
          "indexed": false,
          "internalType": "bytes",
          "name": "recipientLockscript",
          "type": "bytes"
        },
        {
          "indexed": false,
          "internalType": "bytes",
          "name": "sudtExtraData",
          "type": "bytes"
        }
      ],
      "name": "Locked",
      "type": "event"
    },
    {
      "anonymous": false,
      "inputs": [
        {
          "indexed": true,
          "internalType": "address",
          "name": "token",
          "type": "address"
        },
        {
          "indexed": true,
          "internalType": "address",
          "name": "recipient",
          "type": "address"
        },
        {
          "indexed": true,
          "internalType": "address",
          "name": "sender",
          "type": "address"
        },
        {
          "indexed": false,
          "internalType": "uint256",
          "name": "receivedAmount",
          "type": "uint256"
        },
        {
          "indexed": false,
          "internalType": "bytes",
          "name": "ckbTxHash",
          "type": "bytes"
        }
      ],
      "name": "Unlocked",
      "type": "event"
    },
    {
      "inputs": [],
      "name": "CHANGE_VALIDATORS_TYPEHASH",
      "outputs": [
        {
          "internalType": "bytes32",
          "name": "",
          "type": "bytes32"
        }
      ],
      "stateMutability": "view",
      "type": "function"
    },
    {
      "inputs": [],
      "name": "DOMAIN_SEPARATOR",
      "outputs": [
        {
          "internalType": "bytes32",
          "name": "",
          "type": "bytes32"
        }
      ],
      "stateMutability": "view",
      "type": "function"
    },
    {
      "inputs": [],
      "name": "NAME_712",
      "outputs": [
        {
          "internalType": "string",
          "name": "",
          "type": "string"
        }
      ],
      "stateMutability": "view",
      "type": "function"
    },
    {
      "inputs": [],
      "name": "SIGNATURE_SIZE",
      "outputs": [
        {
          "internalType": "uint256",
          "name": "",
          "type": "uint256"
        }
      ],
      "stateMutability": "view",
      "type": "function"
    },
    {
      "inputs": [],
      "name": "UNLOCK_TYPEHASH",
      "outputs": [
        {
          "internalType": "bytes32",
          "name": "",
          "type": "bytes32"
        }
      ],
      "stateMutability": "view",
      "type": "function"
    },
    {
      "inputs": [],
      "name": "VALIDATORS_SIZE_LIMIT",
      "outputs": [
        {
          "internalType": "uint256",
          "name": "",
          "type": "uint256"
        }
      ],
      "stateMutability": "view",
      "type": "function"
    },
    {
      "inputs": [],
      "name": "admin",
      "outputs": [
        {
          "internalType": "address",
          "name": "",
          "type": "address"
        }
      ],
      "stateMutability": "view",
      "type": "function"
    },
    {
      "inputs": [
        {
          "internalType": "address[]",
          "name": "validators",
          "type": "address[]"
        },
        {
          "internalType": "uint256",
          "name": "multisigThreshold",
          "type": "uint256"
        },
        {
          "internalType": "bytes",
          "name": "signatures",
          "type": "bytes"
        }
      ],
      "name": "changeValidators",
      "outputs": [],
      "stateMutability": "nonpayable",
      "type": "function"
    },
    {
      "inputs": [],
      "name": "initialized",
      "outputs": [
        {
          "internalType": "bool",
          "name": "",
          "type": "bool"
        }
      ],
      "stateMutability": "view",
      "type": "function"
    },
    {
      "inputs": [
        {
          "internalType": "bytes",
          "name": "recipientLockscript",
          "type": "bytes"
        },
        {
          "internalType": "bytes",
          "name": "sudtExtraData",
          "type": "bytes"
        }
      ],
      "name": "lockETH",
      "outputs": [],
      "stateMutability": "payable",
      "type": "function"
    },
    {
      "inputs": [
        {
          "internalType": "address",
          "name": "token",
          "type": "address"
        },
        {
          "internalType": "uint256",
          "name": "amount",
          "type": "uint256"
        },
        {
          "internalType": "bytes",
          "name": "recipientLockscript",
          "type": "bytes"
        },
        {
          "internalType": "bytes",
          "name": "sudtExtraData",
          "type": "bytes"
        }
      ],
      "name": "lockToken",
      "outputs": [],
      "stateMutability": "nonpayable",
      "type": "function"
    },
    {
      "inputs": [],
      "name": "multisigThreshold_",
      "outputs": [
        {
          "internalType": "uint256",
          "name": "",
          "type": "uint256"
        }
      ],
      "stateMutability": "view",
      "type": "function"
    },
    {
      "inputs": [
        {
          "components": [
            {
              "internalType": "address",
              "name": "token",
              "type": "address"
            },
            {
              "internalType": "address",
              "name": "recipient",
              "type": "address"
            },
            {
              "internalType": "uint256",
              "name": "amount",
              "type": "uint256"
            },
            {
              "internalType": "bytes",
              "name": "ckbTxHash",
              "type": "bytes"
            }
          ],
          "internalType": "struct ForceBridge.UnlockRecord[]",
          "name": "records",
          "type": "tuple[]"
        },
        {
          "internalType": "bytes",
          "name": "signatures",
          "type": "bytes"
        }
      ],
      "name": "unlock",
      "outputs": [],
      "stateMutability": "nonpayable",
      "type": "function"
    },
    {
      "inputs": [
        {
          "internalType": "bytes32",
          "name": "msgHash",
          "type": "bytes32"
        },
        {
          "internalType": "bytes",
          "name": "signatures",
          "type": "bytes"
        },
        {
          "internalType": "uint256",
          "name": "threshold",
          "type": "uint256"
        }
      ],
      "name": "validatorsApprove",
      "outputs": [],
      "stateMutability": "view",
      "type": "function"
    }
  ],
  "bytecode": "0x60806040523480156200001157600080fd5b5060405162001c5d38038062001c5d833981016040819052620000349162000296565b600054600160a01b900460ff16156200006a5760405162461bcd60e51b8152600401620000619062000398565b60405180910390fd5b6000805460ff60a01b1916600160a01b179055604080518082018252600c81526b466f7263652042726964676560a01b602091820152815180830190925260018252603160f81b9101527f710a8ed36eae46ded8818e1199a40714204a74b9b1f4e89b3a22651c1d11cbd760058190557fc89efdaa54c0f20c7adf612882df0950f5a951637e0307cdcb4c672f298b8bc660068190557f8b73c3c69bb8fe3d512ecc4cf759cc79239f7b179b0ffacaa9a75d522b39400f6200012b620001af565b6004556200013b818484620001b3565b6003556007819055845160141015620001685760405162461bcd60e51b81526004016200006190620003e6565b84516200017d906002906020880190620001f8565b508451841115620001a25760405162461bcd60e51b815260040162000061906200042c565b5050506001555062000479565b4690565b6000838383620001c2620001af565b30604051602001620001d99594939291906200036c565b6040516020818303038152906040528051906020012090509392505050565b82805482825590600052602060002090810192821562000250579160200282015b828111156200025057825182546001600160a01b0319166001600160a01b0390911617825560209092019160019091019062000219565b506200025e92915062000262565b5090565b5b808211156200025e576000815560010162000263565b80516001600160a01b03811681146200029157600080fd5b919050565b60008060408385031215620002a9578182fd5b82516001600160401b0380821115620002c0578384fd5b818501915085601f830112620002d4578384fd5b8151602082821115620002eb57620002eb62000463565b808202604051828282010181811086821117156200030d576200030d62000463565b604052838152828101945085830182870184018b10156200032c578889fd5b8896505b848710156200035957620003448162000279565b86526001969096019594830194830162000330565b5097909101519698969750505050505050565b9485526020850193909352604084019190915260608301526001600160a01b0316608082015260a00190565b6020808252602e908201527f436f6e747261637420696e7374616e63652068617320616c726561647920626560408201526d195b881a5b9a5d1a585b1a5e995960921b606082015260800190565b60208082526026908201527f6e756d626572206f662076616c696461746f7273206578636565647320746865604082015265081b1a5b5a5d60d21b606082015260800190565b60208082526019908201527f696e76616c6964206d756c74697369675468726573686f6c6400000000000000604082015260600190565b634e487b7160e01b600052604160045260246000fd5b6117d480620004896000396000f3fe6080604052600436106100dd5760003560e01c80638c8ca33c1161007f578063a6c0343711610059578063a6c0343714610205578063ea3cbb421461021a578063f851a4401461023a578063fd4e17aa1461025c576100dd565b80638c8ca33c146101bd57806397745eed146101d2578063a406ad9a146101f2576100dd565b80632da5351c116100bb5780632da5351c14610151578063308ff0c9146101735780633644e515146101885780636740f04e1461019d576100dd565b8063052b9e5c146100e2578063158ef93e146101045780632187e8f91461012f575b600080fd5b3480156100ee57600080fd5b506101026100fd366004610dea565b610271565b005b34801561011057600080fd5b506101196102db565b60405161012691906111a9565b60405180910390f35b34801561013b57600080fd5b506101446102eb565b604051610126919061135a565b34801561015d57600080fd5b50610166610313565b60405161012691906111b4565b34801561017f57600080fd5b50610166610318565b34801561019457600080fd5b5061016661031d565b3480156101a957600080fd5b506101026101b8366004610f3d565b61032d565b3480156101c957600080fd5b50610166610579565b3480156101de57600080fd5b506101026101ed366004610e65565b61059d565b61010261020036600461106a565b610690565b34801561021157600080fd5b506101666106d5565b34801561022657600080fd5b5061010261023536600461101c565b6106db565b34801561024657600080fd5b5061024f61090f565b6040516101269190611158565b34801561026857600080fd5b5061016661091e565b6102866001600160a01b038516333086610942565b336001600160a01b0316846001600160a01b03167f6aee94645d3f2b304035eced96277957513be5777c155afe6abb6c2285db7ad38585856040516102cd939291906115e9565b60405180910390a350505050565b600054600160a01b900460ff1681565b6040518060400160405280600c81526020016b466f7263652042726964676560a01b81525081565b601481565b604181565b60006103276109a0565b90505b90565b60006103376109a0565b60405161036c907ff1c18f82536658c0cb1a208d4a52b9915dc9e75640ed0daf3a6be45d02ca5c9f908890889060200161121c565b6040516020818303038152906040528051906020012060405160200161039392919061113d565b6040516020818303038152906040528051906020012090506103ef8184848080601f0160208091040260200160405190810160405280939291908181526020018383808284376000920191909152505060015491506106db9050565b60005b84811015610571573686868381811061041b57634e487b7160e01b600052603260045260246000fd5b905060200281019061042d919061166a565b9050604081013561043e575061055f565b600061044d6020830183610dd0565b6001600160a01b031614156104ae5761046c6040820160208301610dd0565b6001600160a01b03166108fc82604001359081150290604051600060405180830381858888f193505050501580156104a8573d6000803e3d6000fd5b506104e3565b6104e36104c16040830160208401610dd0565b60408301356104d36020850185610dd0565b6001600160a01b031691906109d4565b336104f46040830160208401610dd0565b6001600160a01b031661050a6020840184610dd0565b6001600160a01b03167fa68ce84c815a939744a011df05adcf79b74994aada52c5810979c254042f553d6040850135610546606087018761161e565b604051610555939291906115c6565b60405180910390a4505b806105698161172d565b9150506103f2565b505050505050565b7ff1c18f82536658c0cb1a208d4a52b9915dc9e75640ed0daf3a6be45d02ca5c9f81565b6014835111156105c85760405162461bcd60e51b81526004016105bf90611491565b60405180910390fd5b82518211156105e95760405162461bcd60e51b81526004016105bf90611558565b60006105f36109a0565b604051610628907fd2cedd075bf1780178b261ac9c9000261e7fd88d66f6309124bddf24f5d953f890879087906020016111bd565b6040516020818303038152906040528051906020012060405160200161064f92919061113d565b60405160208183030381529060405280519060200120905061067481836001546106db565b8351610687906002906020870190610cd4565b50505060015550565b60405133906000907f6aee94645d3f2b304035eced96277957513be5777c155afe6abb6c2285db7ad3906106c9903490879087906115e9565b60405180910390a35050565b60015481565b604182516106e99190611748565b156107065760405162461bcd60e51b81526004016105bf90611465565b60006041835161071691906116ce565b9050818110156107385760405162461bcd60e51b81526004016105bf90611415565b600080600080600080600060028054905067ffffffffffffffff81111561076f57634e487b7160e01b600052604160045260246000fd5b604051908082528060200260200182016040528015610798578160200160208202803683370190505b50905060005b888710156108e0576107b08b886109f3565b91975095509350866107c18161172d565b97505060018c878787604051600081526020016040526040516107e7949392919061133c565b6020604051602081039080840390855afa158015610809573d6000803e3d6000fd5b5050604051601f1901519350506001600160a01b03831661083c5760405162461bcd60e51b81526004016105bf906113a4565b61084583610a71565b6002549091508110158061087d575081818151811061087457634e487b7160e01b600052603260045260246000fd5b60200260200101515b156108875761079e565b60018282815181106108a957634e487b7160e01b600052603260045260246000fd5b91151560209283029190910190910152876108c38161172d565b9850508988106108db5750505050505050505061090a565b61079e565b898810156109005760405162461bcd60e51b81526004016105bf9061158f565b5050505050505050505b505050565b6000546001600160a01b031681565b7fd2cedd075bf1780178b261ac9c9000261e7fd88d66f6309124bddf24f5d953f881565b61099a846323b872dd60e01b8585856040516024016109639392919061116c565b60408051601f198184030181529190526020810180516001600160e01b03166001600160e01b031990931692909217909152610ae9565b50505050565b60006004546109ad610b78565b14156109bc575060035461032a565b6109cd600754600554600654610b7c565b905061032a565b61090a8363a9059cbb60e01b8484604051602401610963929190611190565b6000808080610a038560416116e2565b8681016020810151604082015160419092015160ff169650945092509050601b841015610a3857610a35601b856116a9565b93505b8360ff16601b1480610a4d57508360ff16601c145b610a695760405162461bcd60e51b81526004016105bf9061136d565b509250925092565b6000805b600254811015610ade57826001600160a01b031660028281548110610aaa57634e487b7160e01b600052603260045260246000fd5b6000918252602090912001546001600160a01b03161415610acc579050610ae4565b80610ad68161172d565b915050610a75565b50506002545b919050565b6000610b3e826040518060400160405280602081526020017f5361666545524332303a206c6f772d6c6576656c2063616c6c206661696c6564815250856001600160a01b0316610bbe9092919063ffffffff16565b80519091501561090a5780806020019051810190610b5c9190610ffc565b61090a5760405162461bcd60e51b81526004016105bf9061150e565b4690565b6000838383610b89610b78565b30604051602001610b9e959493929190611310565b6040516020818303038152906040528051906020012090505b9392505050565b6060610bcd8484600085610bd5565b949350505050565b606082471015610bf75760405162461bcd60e51b81526004016105bf906113cf565b610c0085610c95565b610c1c5760405162461bcd60e51b81526004016105bf906114d7565b600080866001600160a01b03168587604051610c389190611121565b60006040518083038185875af1925050503d8060008114610c75576040519150601f19603f3d011682016040523d82523d6000602084013e610c7a565b606091505b5091509150610c8a828286610c9b565b979650505050505050565b3b151590565b60608315610caa575081610bb7565b825115610cba5782518084602001fd5b8160405162461bcd60e51b81526004016105bf919061135a565b828054828255906000526020600020908101928215610d29579160200282015b82811115610d2957825182546001600160a01b0319166001600160a01b03909116178255602090920191600190910190610cf4565b50610d35929150610d39565b5090565b5b80821115610d355760008155600101610d3a565b80356001600160a01b0381168114610ae457600080fd5b600082601f830112610d75578081fd5b813567ffffffffffffffff811115610d8f57610d8f611788565b610da2601f8201601f191660200161167f565b818152846020838601011115610db6578283fd5b816020850160208301379081016020019190915292915050565b600060208284031215610de1578081fd5b610bb782610d4e565b60008060008060808587031215610dff578283fd5b610e0885610d4e565b935060208501359250604085013567ffffffffffffffff80821115610e2b578384fd5b610e3788838901610d65565b93506060870135915080821115610e4c578283fd5b50610e5987828801610d65565b91505092959194509250565b600080600060608486031215610e79578283fd5b833567ffffffffffffffff80821115610e90578485fd5b818601915086601f830112610ea3578485fd5b8135602082821115610eb757610eb7611788565b808202610ec582820161167f565b8381528281019086840183880185018d1015610edf578a8bfd5b8a97505b85881015610f0857610ef481610d4e565b835260019790970196918401918401610ee3565b50985050508701359450506040860135915080821115610f26578283fd5b50610f3386828701610d65565b9150509250925092565b60008060008060408587031215610f52578384fd5b843567ffffffffffffffff80821115610f69578586fd5b818701915087601f830112610f7c578586fd5b813581811115610f8a578687fd5b602089818284028601011115610f9e578788fd5b808401975081965080890135935082841115610fb8578586fd5b838901935089601f850112610fcb578586fd5b8335915082821115610fdb578586fd5b8981838601011115610feb578586fd5b969995985091909501955093505050565b60006020828403121561100d578081fd5b81518015158114610bb7578182fd5b600080600060608486031215611030578283fd5b83359250602084013567ffffffffffffffff81111561104d578283fd5b61105986828701610d65565b925050604084013590509250925092565b6000806040838503121561107c578182fd5b823567ffffffffffffffff80821115611093578384fd5b61109f86838701610d65565b935060208501359150808211156110b4578283fd5b506110c185828601610d65565b9150509250929050565b60008284528282602086013780602084860101526020601f19601f85011685010190509392505050565b6000815180845261110d816020860160208601611701565b601f01601f19169290920160200192915050565b60008251611133818460208701611701565b9190910192915050565b61190160f01b81526002810192909252602282015260420190565b6001600160a01b0391909116815260200190565b6001600160a01b039384168152919092166020820152604081019190915260600190565b6001600160a01b03929092168252602082015260400190565b901515815260200190565b90815260200190565b60006060820185835260206060818501528186518084526080860191508288019350845b818110156112065784516001600160a01b0316835293830193918301916001016111e1565b5050809350505050826040830152949350505050565b83815260406020808301829052828201849052600091906060908185018682028601830188865b8981101561130057888303605f190184528135368c9003607e19018112611268578889fd5b8b0160806001600160a01b038061127e84610d4e565b1686528061128d898501610d4e565b168887015250888201358986015287820135601e198336030181126112b0578a8bfd5b8201803567ffffffffffffffff8111156112c8578b8cfd5b8036038413156112d6578b8cfd5b828a8801526112ea838801828b85016110cb565b9789019796505050928601925050600101611243565b50909a9950505050505050505050565b9485526020850193909352604084019190915260608301526001600160a01b0316608082015260a00190565b93845260ff9290921660208401526040830152606082015260800190565b600060208252610bb760208301846110f5565b6020808252601f908201527f696e76616c69642076206f66207369676e617475726528722c20732c20762900604082015260600190565b602080825260119082015270696e76616c6964207369676e617475726560781b604082015260600190565b60208082526026908201527f416464726573733a20696e73756666696369656e742062616c616e636520666f6040820152651c8818d85b1b60d21b606082015260800190565b60208082526030908201527f6c656e677468206f66207369676e617475726573206d7573742067726561746560408201526f1c881d1a185b881d1a1c995cda1bdb1960821b606082015260800190565b602080825260129082015271696e76616c6964207369676e61747572657360701b604082015260600190565b60208082526026908201527f6e756d626572206f662076616c696461746f7273206578636565647320746865604082015265081b1a5b5a5d60d21b606082015260800190565b6020808252601d908201527f416464726573733a2063616c6c20746f206e6f6e2d636f6e7472616374000000604082015260600190565b6020808252602a908201527f5361666545524332303a204552433230206f7065726174696f6e20646964206e6040820152691bdd081cdd58d8d9595960b21b606082015260800190565b60208082526019908201527f696e76616c6964206d756c74697369675468726573686f6c6400000000000000604082015260600190565b60208082526017908201527f7369676e617475726573206e6f74207665726966696564000000000000000000604082015260600190565b6000848252604060208301526115e06040830184866110cb565b95945050505050565b60008482526060602083015261160260608301856110f5565b828103604084015261161481856110f5565b9695505050505050565b6000808335601e19843603018112611634578283fd5b83018035915067ffffffffffffffff82111561164e578283fd5b60200191503681900382131561166357600080fd5b9250929050565b60008235607e19833603018112611133578182fd5b60405181810167ffffffffffffffff811182821017156116a1576116a1611788565b604052919050565b600060ff821660ff84168060ff038211156116c6576116c661175c565b019392505050565b6000826116dd576116dd611772565b500490565b60008160001904831182151516156116fc576116fc61175c565b500290565b60005b8381101561171c578181015183820152602001611704565b8381111561099a5750506000910152565b60006000198214156117415761174161175c565b5060010190565b60008261175757611757611772565b500690565b634e487b7160e01b600052601160045260246000fd5b634e487b7160e01b600052601260045260246000fd5b634e487b7160e01b600052604160045260246000fdfea264697066735822122072590311a409c6e642933dca482b32d8421f6fbe7ba24ce5a311a64b7f482c3264736f6c63430008000033",
  "linkReferences": {},
  "deployedLinkReferences": {}
}