{
  "_format": "hh-sol-artifact-1",
  "contractName": "ForceBridge",
  "sourceName": "contracts/ForceBridge.sol",
  "abi": [
    {
      "inputs": [
        {
          "internalType": "address[]",
          "name": "validators",
          "type": "address[]"
        },
        {
          "internalType": "uint256",
          "name": "multisigThreshold",
          "type": "uint256"
        }
      ],
      "stateMutability": "nonpayable",
      "type": "constructor"
    },
    {
      "anonymous": false,
      "inputs": [
        {
          "indexed": true,
          "internalType": "address",
          "name": "token",
          "type": "address"
        },
        {
          "indexed": true,
          "internalType": "address",
          "name": "sender",
          "type": "address"
        },
        {
          "indexed": false,
          "internalType": "uint256",
          "name": "lockedAmount",
          "type": "uint256"
        },
        {
          "indexed": false,
          "internalType": "bytes",
          "name": "recipientLockscript",
          "type": "bytes"
        },
        {
          "indexed": false,
          "internalType": "bytes",
          "name": "sudtExtraData",
          "type": "bytes"
        }
      ],
      "name": "Locked",
      "type": "event"
    },
    {
      "anonymous": false,
      "inputs": [
        {
          "indexed": true,
          "internalType": "address",
          "name": "token",
          "type": "address"
        },
        {
          "indexed": true,
          "internalType": "address",
          "name": "recipient",
          "type": "address"
        },
        {
          "indexed": true,
          "internalType": "address",
          "name": "sender",
          "type": "address"
        },
        {
          "indexed": false,
          "internalType": "uint256",
          "name": "receivedAmount",
          "type": "uint256"
        },
        {
          "indexed": false,
          "internalType": "bytes",
          "name": "ckbTxHash",
          "type": "bytes"
        }
      ],
      "name": "Unlocked",
      "type": "event"
    },
    {
      "inputs": [],
      "name": "CHANGE_VALIDATORS_TYPEHASH",
      "outputs": [
        {
          "internalType": "bytes32",
          "name": "",
          "type": "bytes32"
        }
      ],
      "stateMutability": "view",
      "type": "function"
    },
    {
      "inputs": [],
      "name": "DOMAIN_SEPARATOR",
      "outputs": [
        {
          "internalType": "bytes32",
          "name": "",
          "type": "bytes32"
        }
      ],
      "stateMutability": "view",
      "type": "function"
    },
    {
      "inputs": [],
      "name": "NAME_712",
      "outputs": [
        {
          "internalType": "string",
          "name": "",
          "type": "string"
        }
      ],
      "stateMutability": "view",
      "type": "function"
    },
    {
      "inputs": [],
      "name": "SIGNATURE_SIZE",
      "outputs": [
        {
          "internalType": "uint256",
          "name": "",
          "type": "uint256"
        }
      ],
      "stateMutability": "view",
      "type": "function"
    },
    {
      "inputs": [],
      "name": "UNLOCK_TYPEHASH",
      "outputs": [
        {
          "internalType": "bytes32",
          "name": "",
          "type": "bytes32"
        }
      ],
      "stateMutability": "view",
      "type": "function"
    },
    {
      "inputs": [],
      "name": "VALIDATORS_SIZE_LIMIT",
      "outputs": [
        {
          "internalType": "uint256",
          "name": "",
          "type": "uint256"
        }
      ],
      "stateMutability": "view",
      "type": "function"
    },
    {
      "inputs": [
        {
          "internalType": "address[]",
          "name": "validators",
          "type": "address[]"
        },
        {
          "internalType": "uint256",
          "name": "multisigThreshold",
          "type": "uint256"
        },
        {
          "internalType": "bytes",
          "name": "signatures",
          "type": "bytes"
        }
      ],
      "name": "changeValidators",
      "outputs": [],
      "stateMutability": "nonpayable",
      "type": "function"
    },
    {
      "inputs": [
        {
          "internalType": "bytes",
          "name": "recipientLockscript",
          "type": "bytes"
        },
        {
          "internalType": "bytes",
          "name": "sudtExtraData",
          "type": "bytes"
        }
      ],
      "name": "lockETH",
      "outputs": [],
      "stateMutability": "payable",
      "type": "function"
    },
    {
      "inputs": [
        {
          "internalType": "address",
          "name": "token",
          "type": "address"
        },
        {
          "internalType": "uint256",
          "name": "amount",
          "type": "uint256"
        },
        {
          "internalType": "bytes",
          "name": "recipientLockscript",
          "type": "bytes"
        },
        {
          "internalType": "bytes",
          "name": "sudtExtraData",
          "type": "bytes"
        }
      ],
      "name": "lockToken",
      "outputs": [],
      "stateMutability": "nonpayable",
      "type": "function"
    },
    {
      "inputs": [],
      "name": "multisigThreshold_",
      "outputs": [
        {
          "internalType": "uint256",
          "name": "",
          "type": "uint256"
        }
      ],
      "stateMutability": "view",
      "type": "function"
    },
    {
      "inputs": [
        {
          "components": [
            {
              "internalType": "address",
              "name": "token",
              "type": "address"
            },
            {
              "internalType": "address",
              "name": "recipient",
              "type": "address"
            },
            {
              "internalType": "uint256",
              "name": "amount",
              "type": "uint256"
            },
            {
              "internalType": "bytes",
              "name": "ckbTxHash",
              "type": "bytes"
            }
          ],
          "internalType": "struct ForceBridge.UnlockRecord[]",
          "name": "records",
          "type": "tuple[]"
        },
        {
          "internalType": "bytes",
          "name": "signatures",
          "type": "bytes"
        }
      ],
      "name": "unlock",
      "outputs": [],
      "stateMutability": "nonpayable",
      "type": "function"
    },
    {
      "inputs": [
        {
          "internalType": "bytes32",
          "name": "msgHash",
          "type": "bytes32"
        },
        {
          "internalType": "bytes",
          "name": "signatures",
          "type": "bytes"
        },
        {
          "internalType": "uint256",
          "name": "threshold",
          "type": "uint256"
        }
      ],
      "name": "validatorsApprove",
      "outputs": [],
      "stateMutability": "view",
      "type": "function"
    }
  ],
  "bytecode": "0x60806040523480156200001157600080fd5b5060405162001b1438038062001b14833981016040819052620000349162000256565b604080518082018252600c81526b466f7263652042726964676560a01b602091820152815180830190925260018252603160f81b9101527f710a8ed36eae46ded8818e1199a40714204a74b9b1f4e89b3a22651c1d11cbd760048190557fc89efdaa54c0f20c7adf612882df0950f5a951637e0307cdcb4c672f298b8bc660058190557f8b73c3c69bb8fe3d512ecc4cf759cc79239f7b179b0ffacaa9a75d522b39400f620000e26200016f565b600355620000f281848462000173565b6002556006819055845160321015620001285760405162461bcd60e51b81526004016200011f9062000358565b60405180910390fd5b84516200013d906001906020880190620001b8565b508451841115620001625760405162461bcd60e51b81526004016200011f906200039e565b50505060005550620003eb565b4690565b6000838383620001826200016f565b30604051602001620001999594939291906200032c565b6040516020818303038152906040528051906020012090509392505050565b82805482825590600052602060002090810192821562000210579160200282015b828111156200021057825182546001600160a01b0319166001600160a01b03909116178255602090920191600190910190620001d9565b506200021e92915062000222565b5090565b5b808211156200021e576000815560010162000223565b80516001600160a01b03811681146200025157600080fd5b919050565b6000806040838503121562000269578182fd5b82516001600160401b038082111562000280578384fd5b818501915085601f83011262000294578384fd5b8151602082821115620002ab57620002ab620003d5565b80820260405182828201018181108682111715620002cd57620002cd620003d5565b604052838152828101945085830182870184018b1015620002ec578889fd5b8896505b848710156200031957620003048162000239565b865260019690960195948301948301620002f0565b5097909101519698969750505050505050565b9485526020850193909352604084019190915260608301526001600160a01b0316608082015260a00190565b60208082526026908201527f6e756d626572206f662076616c696461746f7273206578636565647320746865604082015265081b1a5b5a5d60d21b606082015260800190565b60208082526019908201527f696e76616c6964206d756c74697369675468726573686f6c6400000000000000604082015260600190565b634e487b7160e01b600052604160045260246000fd5b61171980620003fb6000396000f3fe6080604052600436106100a75760003560e01c80638c8ca33c116100645780638c8ca33c1461016557806397745eed1461017a578063a406ad9a1461019a578063a6c03437146101ad578063ea3cbb42146101c2578063fd4e17aa146101e2576100a7565b8063052b9e5c146100ac5780632187e8f9146100ce5780632da5351c146100f9578063308ff0c91461011b5780633644e515146101305780636740f04e14610145575b600080fd5b3480156100b857600080fd5b506100cc6100c7366004610d4e565b6101f7565b005b3480156100da57600080fd5b506100e3610261565b6040516100f0919061129f565b60405180910390f35b34801561010557600080fd5b5061010e610289565b6040516100f091906110f9565b34801561012757600080fd5b5061010e61028e565b34801561013c57600080fd5b5061010e610293565b34801561015157600080fd5b506100cc610160366004610ea1565b6102a3565b34801561017157600080fd5b5061010e6104ec565b34801561018657600080fd5b506100cc610195366004610dc9565b610510565b6100cc6101a8366004610fce565b610603565b3480156101b957600080fd5b5061010e610648565b3480156101ce57600080fd5b506100cc6101dd366004610f80565b61064e565b3480156101ee57600080fd5b5061010e610882565b61020c6001600160a01b0385163330866108a6565b336001600160a01b0316846001600160a01b03167f6aee94645d3f2b304035eced96277957513be5777c155afe6abb6c2285db7ad38585856040516102539392919061152e565b60405180910390a350505050565b6040518060400160405280600c81526020016b466f7263652042726964676560a01b81525081565b603281565b604181565b600061029d610904565b90505b90565b60006102ad610904565b6040516102e2907ff1c18f82536658c0cb1a208d4a52b9915dc9e75640ed0daf3a6be45d02ca5c9f9088908890602001611161565b604051602081830303815290604052805190602001206040516020016103099291906110a1565b6040516020818303038152906040528051906020012090506103628184848080601f016020809104026020016040519081016040528093929190818152602001838380828437600092018290525054925061064e915050565b60005b848110156104e4573686868381811061038e57634e487b7160e01b600052603260045260246000fd5b90506020028101906103a091906115af565b905060408101356103b157506104d2565b60006103c06020830183610d34565b6001600160a01b03161415610421576103df6040820160208301610d34565b6001600160a01b03166108fc82604001359081150290604051600060405180830381858888f1935050505015801561041b573d6000803e3d6000fd5b50610456565b6104566104346040830160208401610d34565b60408301356104466020850185610d34565b6001600160a01b03169190610938565b336104676040830160208401610d34565b6001600160a01b031661047d6020840184610d34565b6001600160a01b03167fa68ce84c815a939744a011df05adcf79b74994aada52c5810979c254042f553d60408501356104b96060870187611563565b6040516104c89392919061150b565b60405180910390a4505b806104dc81611672565b915050610365565b505050505050565b7ff1c18f82536658c0cb1a208d4a52b9915dc9e75640ed0daf3a6be45d02ca5c9f81565b60328351111561053b5760405162461bcd60e51b8152600401610532906113d6565b60405180910390fd5b825182111561055c5760405162461bcd60e51b81526004016105329061149d565b6000610566610904565b60405161059b907fd2cedd075bf1780178b261ac9c9000261e7fd88d66f6309124bddf24f5d953f89087908790602001611102565b604051602081830303815290604052805190602001206040516020016105c29291906110a1565b6040516020818303038152906040528051906020012090506105e7818360005461064e565b83516105fa906001906020870190610c38565b50505060005550565b60405133906000907f6aee94645d3f2b304035eced96277957513be5777c155afe6abb6c2285db7ad39061063c9034908790879061152e565b60405180910390a35050565b60005481565b6041825161065c919061168d565b156106795760405162461bcd60e51b8152600401610532906113aa565b6000604183516106899190611613565b9050818110156106ab5760405162461bcd60e51b81526004016105329061135a565b600080600080600080600060018054905067ffffffffffffffff8111156106e257634e487b7160e01b600052604160045260246000fd5b60405190808252806020026020018201604052801561070b578160200160208202803683370190505b50905060005b88871015610853576107238b88610957565b919750955093508661073481611672565b97505060018c8787876040516000815260200160405260405161075a9493929190611281565b6020604051602081039080840390855afa15801561077c573d6000803e3d6000fd5b5050604051601f1901519350506001600160a01b0383166107af5760405162461bcd60e51b8152600401610532906112e9565b6107b8836109d5565b600154909150811015806107f057508181815181106107e757634e487b7160e01b600052603260045260246000fd5b60200260200101515b156107fa57610711565b600182828151811061081c57634e487b7160e01b600052603260045260246000fd5b911515602092830291909101909101528761083681611672565b98505089881061084e5750505050505050505061087d565b610711565b898810156108735760405162461bcd60e51b8152600401610532906114d4565b5050505050505050505b505050565b7fd2cedd075bf1780178b261ac9c9000261e7fd88d66f6309124bddf24f5d953f881565b6108fe846323b872dd60e01b8585856040516024016108c7939291906110bc565b60408051601f198184030181529190526020810180516001600160e01b03166001600160e01b031990931692909217909152610a4d565b50505050565b6000600354610911610adc565b141561092057506002546102a0565b610931600654600454600554610ae0565b90506102a0565b61087d8363a9059cbb60e01b84846040516024016108c79291906110e0565b6000808080610967856041611627565b8681016020810151604082015160419092015160ff169650945092509050601b84101561099c57610999601b856115ee565b93505b8360ff16601b14806109b157508360ff16601c145b6109cd5760405162461bcd60e51b8152600401610532906112b2565b509250925092565b6000805b600154811015610a4257826001600160a01b031660018281548110610a0e57634e487b7160e01b600052603260045260246000fd5b6000918252602090912001546001600160a01b03161415610a30579050610a48565b80610a3a81611672565b9150506109d9565b50506001545b919050565b6000610aa2826040518060400160405280602081526020017f5361666545524332303a206c6f772d6c6576656c2063616c6c206661696c6564815250856001600160a01b0316610b229092919063ffffffff16565b80519091501561087d5780806020019051810190610ac09190610f60565b61087d5760405162461bcd60e51b815260040161053290611453565b4690565b6000838383610aed610adc565b30604051602001610b02959493929190611255565b6040516020818303038152906040528051906020012090505b9392505050565b6060610b318484600085610b39565b949350505050565b606082471015610b5b5760405162461bcd60e51b815260040161053290611314565b610b6485610bf9565b610b805760405162461bcd60e51b81526004016105329061141c565b600080866001600160a01b03168587604051610b9c9190611085565b60006040518083038185875af1925050503d8060008114610bd9576040519150601f19603f3d011682016040523d82523d6000602084013e610bde565b606091505b5091509150610bee828286610bff565b979650505050505050565b3b151590565b60608315610c0e575081610b1b565b825115610c1e5782518084602001fd5b8160405162461bcd60e51b8152600401610532919061129f565b828054828255906000526020600020908101928215610c8d579160200282015b82811115610c8d57825182546001600160a01b0319166001600160a01b03909116178255602090920191600190910190610c58565b50610c99929150610c9d565b5090565b5b80821115610c995760008155600101610c9e565b80356001600160a01b0381168114610a4857600080fd5b600082601f830112610cd9578081fd5b813567ffffffffffffffff811115610cf357610cf36116cd565b610d06601f8201601f19166020016115c4565b818152846020838601011115610d1a578283fd5b816020850160208301379081016020019190915292915050565b600060208284031215610d45578081fd5b610b1b82610cb2565b60008060008060808587031215610d63578283fd5b610d6c85610cb2565b935060208501359250604085013567ffffffffffffffff80821115610d8f578384fd5b610d9b88838901610cc9565b93506060870135915080821115610db0578283fd5b50610dbd87828801610cc9565b91505092959194509250565b600080600060608486031215610ddd578283fd5b833567ffffffffffffffff80821115610df4578485fd5b818601915086601f830112610e07578485fd5b8135602082821115610e1b57610e1b6116cd565b808202610e298282016115c4565b8381528281019086840183880185018d1015610e43578a8bfd5b8a97505b85881015610e6c57610e5881610cb2565b835260019790970196918401918401610e47565b50985050508701359450506040860135915080821115610e8a578283fd5b50610e9786828701610cc9565b9150509250925092565b60008060008060408587031215610eb6578384fd5b843567ffffffffffffffff80821115610ecd578586fd5b818701915087601f830112610ee0578586fd5b813581811115610eee578687fd5b602089818284028601011115610f02578788fd5b808401975081965080890135935082841115610f1c578586fd5b838901935089601f850112610f2f578586fd5b8335915082821115610f3f578586fd5b8981838601011115610f4f578586fd5b969995985091909501955093505050565b600060208284031215610f71578081fd5b81518015158114610b1b578182fd5b600080600060608486031215610f94578283fd5b83359250602084013567ffffffffffffffff811115610fb1578283fd5b610fbd86828701610cc9565b925050604084013590509250925092565b60008060408385031215610fe0578182fd5b823567ffffffffffffffff80821115610ff7578384fd5b61100386838701610cc9565b93506020850135915080821115611018578283fd5b5061102585828601610cc9565b9150509250929050565b60008284528282602086013780602084860101526020601f19601f85011685010190509392505050565b60008151808452611071816020860160208601611646565b601f01601f19169290920160200192915050565b60008251611097818460208701611646565b9190910192915050565b61190160f01b81526002810192909252602282015260420190565b6001600160a01b039384168152919092166020820152604081019190915260600190565b6001600160a01b03929092168252602082015260400190565b90815260200190565b60006060820185835260206060818501528186518084526080860191508288019350845b8181101561114b5784516001600160a01b031683529383019391830191600101611126565b5050809350505050826040830152949350505050565b83815260406020808301829052828201849052600091906060908185018682028601830188865b8981101561124557888303605f190184528135368c9003607e190181126111ad578889fd5b8b0160806001600160a01b03806111c384610cb2565b168652806111d2898501610cb2565b168887015250888201358986015287820135601e198336030181126111f5578a8bfd5b8201803567ffffffffffffffff81111561120d578b8cfd5b80360384131561121b578b8cfd5b828a88015261122f838801828b850161102f565b9789019796505050928601925050600101611188565b50909a9950505050505050505050565b9485526020850193909352604084019190915260608301526001600160a01b0316608082015260a00190565b93845260ff9290921660208401526040830152606082015260800190565b600060208252610b1b6020830184611059565b6020808252601f908201527f696e76616c69642076206f66207369676e617475726528722c20732c20762900604082015260600190565b602080825260119082015270696e76616c6964207369676e617475726560781b604082015260600190565b60208082526026908201527f416464726573733a20696e73756666696369656e742062616c616e636520666f6040820152651c8818d85b1b60d21b606082015260800190565b60208082526030908201527f6c656e677468206f66207369676e617475726573206d7573742067726561746560408201526f1c881d1a185b881d1a1c995cda1bdb1960821b606082015260800190565b602080825260129082015271696e76616c6964207369676e61747572657360701b604082015260600190565b60208082526026908201527f6e756d626572206f662076616c696461746f7273206578636565647320746865604082015265081b1a5b5a5d60d21b606082015260800190565b6020808252601d908201527f416464726573733a2063616c6c20746f206e6f6e2d636f6e7472616374000000604082015260600190565b6020808252602a908201527f5361666545524332303a204552433230206f7065726174696f6e20646964206e6040820152691bdd081cdd58d8d9595960b21b606082015260800190565b60208082526019908201527f696e76616c6964206d756c74697369675468726573686f6c6400000000000000604082015260600190565b60208082526017908201527f7369676e617475726573206e6f74207665726966696564000000000000000000604082015260600190565b60008482526040602083015261152560408301848661102f565b95945050505050565b6000848252606060208301526115476060830185611059565b82810360408401526115598185611059565b9695505050505050565b6000808335601e19843603018112611579578283fd5b83018035915067ffffffffffffffff821115611593578283fd5b6020019150368190038213156115a857600080fd5b9250929050565b60008235607e19833603018112611097578182fd5b60405181810167ffffffffffffffff811182821017156115e6576115e66116cd565b604052919050565b600060ff821660ff84168060ff0382111561160b5761160b6116a1565b019392505050565b600082611622576116226116b7565b500490565b6000816000190483118215151615611641576116416116a1565b500290565b60005b83811015611661578181015183820152602001611649565b838111156108fe5750506000910152565b6000600019821415611686576116866116a1565b5060010190565b60008261169c5761169c6116b7565b500690565b634e487b7160e01b600052601160045260246000fd5b634e487b7160e01b600052601260045260246000fd5b634e487b7160e01b600052604160045260246000fdfea2646970667358221220e601e34355752d2c82cde16c2b63e3abed7b9af6505066ef63bd79979c0ed30064736f6c63430008000033",
  "linkReferences": {},
  "deployedLinkReferences": {}
}