{
  "_format": "hh-sol-artifact-1",
  "contractName": "ForceBridge",
  "sourceName": "contracts/ForceBridge.sol",
  "abi": [
    {
      "inputs": [],
      "stateMutability": "nonpayable",
      "type": "constructor"
    },
    {
      "anonymous": false,
      "inputs": [
        {
          "indexed": true,
          "internalType": "address",
          "name": "token",
          "type": "address"
        },
        {
          "indexed": true,
          "internalType": "address",
          "name": "sender",
          "type": "address"
        },
        {
          "indexed": false,
          "internalType": "uint256",
          "name": "lockedAmount",
          "type": "uint256"
        },
        {
          "indexed": false,
          "internalType": "bytes",
          "name": "recipientLockscript",
          "type": "bytes"
        },
        {
          "indexed": false,
          "internalType": "bytes",
          "name": "sudtExtraData",
          "type": "bytes"
        }
      ],
      "name": "Locked",
      "type": "event"
    },
    {
      "anonymous": false,
      "inputs": [
        {
          "indexed": true,
          "internalType": "address",
          "name": "token",
          "type": "address"
        },
        {
          "indexed": true,
          "internalType": "address",
          "name": "recipient",
          "type": "address"
        },
        {
          "indexed": true,
          "internalType": "address",
          "name": "sender",
          "type": "address"
        },
        {
          "indexed": false,
          "internalType": "uint256",
          "name": "receivedAmount",
          "type": "uint256"
        }
      ],
      "name": "Unlocked",
      "type": "event"
    },
    {
      "inputs": [],
      "name": "admin",
      "outputs": [
        {
          "internalType": "address",
          "name": "",
          "type": "address"
        }
      ],
      "stateMutability": "view",
      "type": "function"
    },
    {
      "inputs": [
        {
          "internalType": "address",
          "name": "newAdmin",
          "type": "address"
        }
      ],
      "name": "changeAdmin",
      "outputs": [],
      "stateMutability": "nonpayable",
      "type": "function"
    },
    {
      "inputs": [
        {
          "internalType": "bytes",
          "name": "recipientLockscript",
          "type": "bytes"
        },
        {
          "internalType": "bytes",
          "name": "sudtExtraData",
          "type": "bytes"
        }
      ],
      "name": "lockETH",
      "outputs": [],
      "stateMutability": "payable",
      "type": "function"
    },
    {
      "inputs": [
        {
          "internalType": "address",
          "name": "token",
          "type": "address"
        },
        {
          "internalType": "uint256",
          "name": "amount",
          "type": "uint256"
        },
        {
          "internalType": "bytes",
          "name": "recipientLockscript",
          "type": "bytes"
        },
        {
          "internalType": "bytes",
          "name": "sudtExtraData",
          "type": "bytes"
        }
      ],
      "name": "lockToken",
      "outputs": [],
      "stateMutability": "nonpayable",
      "type": "function"
    },
    {
      "inputs": [
        {
          "components": [
            {
              "internalType": "address",
              "name": "token",
              "type": "address"
            },
            {
              "internalType": "address",
              "name": "recipient",
              "type": "address"
            },
            {
              "internalType": "uint256",
              "name": "amount",
              "type": "uint256"
            }
          ],
          "internalType": "struct ForceBridge.UnlockRecord[]",
          "name": "records",
          "type": "tuple[]"
        }
      ],
      "name": "unlock",
      "outputs": [],
      "stateMutability": "nonpayable",
      "type": "function"
    }
  ],
  "bytecode": "0x608060405234801561001057600080fd5b50600080546001600160a01b03191633179055610c53806100326000396000f3fe60806040526004361061004a5760003560e01c8063052b9e5c1461004f5780637807dd8c146100715780638f28397014610091578063a406ad9a146100b1578063f851a440146100c4575b600080fd5b34801561005b57600080fd5b5061006f61006a3660046107a1565b6100ef565b005b34801561007d57600080fd5b5061006f61008c36600461081c565b610159565b34801561009d57600080fd5b5061006f6100ac366004610787565b610438565b61006f6100bf366004610936565b610484565b3480156100d057600080fd5b506100d96104c9565b6040516100e691906109df565b60405180910390f35b6101046001600160a01b0385163330866104d8565b336001600160a01b0316846001600160a01b03167f6aee94645d3f2b304035eced96277957513be5777c155afe6abb6c2285db7ad385858560405161014b93929190610b55565b60405180910390a350505050565b6000546001600160a01b0316331461018c5760405162461bcd60e51b815260040161018390610a89565b60405180910390fd5b60005b8151811015610434578181815181106101b857634e487b7160e01b600052603260045260246000fd5b602002602001015160400151600014156101d157610422565b60006001600160a01b03168282815181106101fc57634e487b7160e01b600052603260045260246000fd5b6020026020010151600001516001600160a01b031614156102ac5781818151811061023757634e487b7160e01b600052603260045260246000fd5b6020026020010151602001516001600160a01b03166108fc83838151811061026f57634e487b7160e01b600052603260045260246000fd5b6020026020010151604001519081150290604051600060405180830381858888f193505050501580156102a6573d6000803e3d6000fd5b5061034b565b61034b8282815181106102cf57634e487b7160e01b600052603260045260246000fd5b6020026020010151602001518383815181106102fb57634e487b7160e01b600052603260045260246000fd5b60200260200101516040015184848151811061032757634e487b7160e01b600052603260045260246000fd5b6020026020010151600001516001600160a01b03166105369092919063ffffffff16565b336001600160a01b031682828151811061037557634e487b7160e01b600052603260045260246000fd5b6020026020010151602001516001600160a01b03168383815181106103aa57634e487b7160e01b600052603260045260246000fd5b6020026020010151600001516001600160a01b03167f6c5b0a34e5e78b423db3d15d7f4f72f3beb727025c0e535bf2bac21d0227c48185858151811061040057634e487b7160e01b600052603260045260246000fd5b6020026020010151604001516040516104199190610b4c565b60405180910390a45b8061042c81610be0565b91505061018f565b5050565b6000546001600160a01b031633146104625760405162461bcd60e51b815260040161018390610a89565b600080546001600160a01b0319166001600160a01b0392909216919091179055565b60405133906000907f6aee94645d3f2b304035eced96277957513be5777c155afe6abb6c2285db7ad3906104bd90349087908790610b55565b60405180910390a35050565b6000546001600160a01b031681565b610530846323b872dd60e01b8585856040516024016104f9939291906109f3565b60408051601f198184030181529190526020810180516001600160e01b03166001600160e01b03199093169290921790915261055a565b50505050565b6105558363a9059cbb60e01b84846040516024016104f9929190610a17565b505050565b60006105af826040518060400160405280602081526020017f5361666545524332303a206c6f772d6c6576656c2063616c6c206661696c6564815250856001600160a01b03166105e99092919063ffffffff16565b80519091501561055557808060200190518101906105cd9190610916565b6105555760405162461bcd60e51b815260040161018390610b02565b60606105f88484600085610602565b90505b9392505050565b6060824710156106245760405162461bcd60e51b815260040161018390610a43565b61062d856106c2565b6106495760405162461bcd60e51b815260040161018390610acb565b600080866001600160a01b0316858760405161066591906109c3565b60006040518083038185875af1925050503d80600081146106a2576040519150601f19603f3d011682016040523d82523d6000602084013e6106a7565b606091505b50915091506106b78282866106cc565b979650505050505050565b803b15155b919050565b606083156106db5750816105fb565b8251156106eb5782518084602001fd5b8160405162461bcd60e51b81526004016101839190610a30565b80356001600160a01b03811681146106c757600080fd5b600082601f83011261072c578081fd5b813567ffffffffffffffff81111561074657610746610c07565b610759601f8201601f1916602001610b8a565b81815284602083860101111561076d578283fd5b816020850160208301379081016020019190915292915050565b600060208284031215610798578081fd5b6105fb82610705565b600080600080608085870312156107b6578283fd5b6107bf85610705565b935060208501359250604085013567ffffffffffffffff808211156107e2578384fd5b6107ee8883890161071c565b93506060870135915080821115610803578283fd5b506108108782880161071c565b91505092959194509250565b6000602080838503121561082e578182fd5b823567ffffffffffffffff80821115610845578384fd5b818501915085601f830112610858578384fd5b81358181111561086a5761086a610c07565b6108778485830201610b8a565b818152848101908486016060808502870188018b1015610895578889fd5b8896505b848710156109075780828c0312156108af578889fd5b6040805182810181811089821117156108ca576108ca610c07565b82526108d584610705565b81526108e28a8501610705565b818b015283820135918101919091528452600196909601959287019290810190610899565b50909998505050505050505050565b600060208284031215610927578081fd5b815180151581146105fb578182fd5b60008060408385031215610948578182fd5b823567ffffffffffffffff8082111561095f578384fd5b61096b8683870161071c565b93506020850135915080821115610980578283fd5b5061098d8582860161071c565b9150509250929050565b600081518084526109af816020860160208601610bb4565b601f01601f19169290920160200192915050565b600082516109d5818460208701610bb4565b9190910192915050565b6001600160a01b0391909116815260200190565b6001600160a01b039384168152919092166020820152604081019190915260600190565b6001600160a01b03929092168252602082015260400190565b6000602082526105fb6020830184610997565b60208082526026908201527f416464726573733a20696e73756666696369656e742062616c616e636520666f6040820152651c8818d85b1b60d21b606082015260800190565b60208082526022908201527f4f6e6c792061646d696e2063616e2063616c6c20746869732066756e6374696f604082015261371760f11b606082015260800190565b6020808252601d908201527f416464726573733a2063616c6c20746f206e6f6e2d636f6e7472616374000000604082015260600190565b6020808252602a908201527f5361666545524332303a204552433230206f7065726174696f6e20646964206e6040820152691bdd081cdd58d8d9595960b21b606082015260800190565b90815260200190565b600084825260606020830152610b6e6060830185610997565b8281036040840152610b808185610997565b9695505050505050565b60405181810167ffffffffffffffff81118282101715610bac57610bac610c07565b604052919050565b60005b83811015610bcf578181015183820152602001610bb7565b838111156105305750506000910152565b6000600019821415610c0057634e487b7160e01b81526011600452602481fd5b5060010190565b634e487b7160e01b600052604160045260246000fdfea26469706673582212205043b9648df97ecc99483ed412da543c0d19dc607ca0ebb3eedd2815ae45378c64736f6c63430008000033",
  "linkReferences": {},
  "deployedLinkReferences": {}
}