{
  "_format": "hh-sol-artifact-1",
  "contractName": "ForceBridge",
  "sourceName": "contracts/ForceBridge.sol",
  "abi": [
    {
      "inputs": [
        {
          "internalType": "address[]",
          "name": "validators",
          "type": "address[]"
        },
        {
          "internalType": "uint256",
          "name": "multisigThreshold",
          "type": "uint256"
        }
      ],
      "stateMutability": "nonpayable",
      "type": "constructor"
    },
    {
      "anonymous": false,
      "inputs": [
        {
          "indexed": true,
          "internalType": "address",
          "name": "token",
          "type": "address"
        },
        {
          "indexed": true,
          "internalType": "address",
          "name": "sender",
          "type": "address"
        },
        {
          "indexed": false,
          "internalType": "uint256",
          "name": "lockedAmount",
          "type": "uint256"
        },
        {
          "indexed": false,
          "internalType": "bytes",
          "name": "recipientLockscript",
          "type": "bytes"
        },
        {
          "indexed": false,
          "internalType": "bytes",
          "name": "sudtExtraData",
          "type": "bytes"
        }
      ],
      "name": "Locked",
      "type": "event"
    },
    {
      "anonymous": false,
      "inputs": [
        {
          "indexed": true,
          "internalType": "address",
          "name": "token",
          "type": "address"
        },
        {
          "indexed": true,
          "internalType": "address",
          "name": "recipient",
          "type": "address"
        },
        {
          "indexed": true,
          "internalType": "address",
          "name": "sender",
          "type": "address"
        },
        {
          "indexed": false,
          "internalType": "uint256",
          "name": "receivedAmount",
          "type": "uint256"
        },
        {
          "indexed": false,
          "internalType": "bytes",
          "name": "ckbTxHash",
          "type": "bytes"
        }
      ],
      "name": "Unlocked",
      "type": "event"
    },
    {
      "inputs": [],
      "name": "CHANGE_VALIDATORS_TYPEHASH",
      "outputs": [
        {
          "internalType": "bytes32",
          "name": "",
          "type": "bytes32"
        }
      ],
      "stateMutability": "view",
      "type": "function"
    },
    {
      "inputs": [],
      "name": "DOMAIN_SEPARATOR",
      "outputs": [
        {
          "internalType": "bytes32",
          "name": "",
          "type": "bytes32"
        }
      ],
      "stateMutability": "view",
      "type": "function"
    },
    {
      "inputs": [],
      "name": "NAME_712",
      "outputs": [
        {
          "internalType": "string",
          "name": "",
          "type": "string"
        }
      ],
      "stateMutability": "view",
      "type": "function"
    },
    {
      "inputs": [],
      "name": "SIGNATURE_SIZE",
      "outputs": [
        {
          "internalType": "uint256",
          "name": "",
          "type": "uint256"
        }
      ],
      "stateMutability": "view",
      "type": "function"
    },
    {
      "inputs": [],
      "name": "UNLOCK_TYPEHASH",
      "outputs": [
        {
          "internalType": "bytes32",
          "name": "",
          "type": "bytes32"
        }
      ],
      "stateMutability": "view",
      "type": "function"
    },
    {
      "inputs": [],
      "name": "VALIDATORS_SIZE_LIMIT",
      "outputs": [
        {
          "internalType": "uint256",
          "name": "",
          "type": "uint256"
        }
      ],
      "stateMutability": "view",
      "type": "function"
    },
    {
      "inputs": [
        {
          "internalType": "address[]",
          "name": "validators",
          "type": "address[]"
        },
        {
          "internalType": "uint256",
          "name": "multisigThreshold",
          "type": "uint256"
        },
        {
          "internalType": "uint256",
          "name": "nonce",
          "type": "uint256"
        },
        {
          "internalType": "bytes",
          "name": "signatures",
          "type": "bytes"
        }
      ],
      "name": "changeValidators",
      "outputs": [],
      "stateMutability": "nonpayable",
      "type": "function"
    },
    {
      "inputs": [],
      "name": "latestChangeValidatorsNonce_",
      "outputs": [
        {
          "internalType": "uint256",
          "name": "",
          "type": "uint256"
        }
      ],
      "stateMutability": "view",
      "type": "function"
    },
    {
      "inputs": [],
      "name": "latestUnlockNonce_",
      "outputs": [
        {
          "internalType": "uint256",
          "name": "",
          "type": "uint256"
        }
      ],
      "stateMutability": "view",
      "type": "function"
    },
    {
      "inputs": [
        {
          "internalType": "bytes",
          "name": "recipientLockscript",
          "type": "bytes"
        },
        {
          "internalType": "bytes",
          "name": "sudtExtraData",
          "type": "bytes"
        }
      ],
      "name": "lockETH",
      "outputs": [],
      "stateMutability": "payable",
      "type": "function"
    },
    {
      "inputs": [
        {
          "internalType": "address",
          "name": "token",
          "type": "address"
        },
        {
          "internalType": "uint256",
          "name": "amount",
          "type": "uint256"
        },
        {
          "internalType": "bytes",
          "name": "recipientLockscript",
          "type": "bytes"
        },
        {
          "internalType": "bytes",
          "name": "sudtExtraData",
          "type": "bytes"
        }
      ],
      "name": "lockToken",
      "outputs": [],
      "stateMutability": "nonpayable",
      "type": "function"
    },
    {
      "inputs": [],
      "name": "multisigThreshold_",
      "outputs": [
        {
          "internalType": "uint256",
          "name": "",
          "type": "uint256"
        }
      ],
      "stateMutability": "view",
      "type": "function"
    },
    {
      "inputs": [
        {
          "components": [
            {
              "internalType": "address",
              "name": "token",
              "type": "address"
            },
            {
              "internalType": "address",
              "name": "recipient",
              "type": "address"
            },
            {
              "internalType": "uint256",
              "name": "amount",
              "type": "uint256"
            },
            {
              "internalType": "bytes",
              "name": "ckbTxHash",
              "type": "bytes"
            }
          ],
          "internalType": "struct ForceBridge.UnlockRecord[]",
          "name": "records",
          "type": "tuple[]"
        },
        {
          "internalType": "uint256",
          "name": "nonce",
          "type": "uint256"
        },
        {
          "internalType": "bytes",
          "name": "signatures",
          "type": "bytes"
        }
      ],
      "name": "unlock",
      "outputs": [],
      "stateMutability": "nonpayable",
      "type": "function"
    },
    {
      "inputs": [
        {
          "internalType": "bytes32",
          "name": "msgHash",
          "type": "bytes32"
        },
        {
          "internalType": "bytes",
          "name": "signatures",
          "type": "bytes"
        },
        {
          "internalType": "uint256",
          "name": "threshold",
          "type": "uint256"
        }
      ],
      "name": "validatorsApprove",
      "outputs": [],
      "stateMutability": "view",
      "type": "function"
    }
  ],
  "bytecode": "0x60806040523480156200001157600080fd5b5060405162001eb438038062001eb483398101604081905262000034916200029a565b604080518082018252600c81526b466f7263652042726964676560a01b602091820152815180830190925260018252603160f81b9101527f710a8ed36eae46ded8818e1199a40714204a74b9b1f4e89b3a22651c1d11cbd760048190557fc89efdaa54c0f20c7adf612882df0950f5a951637e0307cdcb4c672f298b8bc660058190557f8b73c3c69bb8fe3d512ecc4cf759cc79239f7b179b0ffacaa9a75d522b39400f620000e2620001b3565b600355620000f2818484620001b7565b60025560068190558451620001245760405162461bcd60e51b81526004016200011b90620003e2565b60405180910390fd5b60008411620001475760405162461bcd60e51b81526004016200011b9062000419565b6032855111156200016c5760405162461bcd60e51b81526004016200011b906200039c565b845162000181906001906020880190620001fc565b508451841115620001a65760405162461bcd60e51b81526004016200011b9062000419565b5050506000555062000466565b4690565b6000838383620001c6620001b3565b30604051602001620001dd95949392919062000370565b6040516020818303038152906040528051906020012090509392505050565b82805482825590600052602060002090810192821562000254579160200282015b828111156200025457825182546001600160a01b0319166001600160a01b039091161782556020909201916001909101906200021d565b506200026292915062000266565b5090565b5b8082111562000262576000815560010162000267565b80516001600160a01b03811681146200029557600080fd5b919050565b60008060408385031215620002ad578182fd5b82516001600160401b0380821115620002c4578384fd5b818501915085601f830112620002d8578384fd5b8151602082821115620002ef57620002ef62000450565b8082026040518282820101818110868211171562000311576200031162000450565b604052838152828101945085830182870184018b101562000330578889fd5b8896505b848710156200035d5762000348816200027d565b86526001969096019594830194830162000334565b5097909101519698969750505050505050565b9485526020850193909352604084019190915260608301526001600160a01b0316608082015260a00190565b60208082526026908201527f6e756d626572206f662076616c696461746f7273206578636565647320746865604082015265081b1a5b5a5d60d21b606082015260800190565b60208082526013908201527f76616c696461746f727320617265206e6f6e6500000000000000000000000000604082015260600190565b60208082526019908201527f696e76616c6964206d756c74697369675468726573686f6c6400000000000000604082015260600190565b634e487b7160e01b600052604160045260246000fd5b611a3e80620004766000396000f3fe6080604052600436106100dd5760003560e01c80638c8ca33c1161007f578063d36394b011610059578063d36394b0146101ed578063ea3cbb421461020d578063fa9c67f31461022d578063fd4e17aa14610242576100dd565b80638c8ca33c146101b0578063a406ad9a146101c5578063a6c03437146101d8576100dd565b80632da5351c116100bb5780632da5351c1461014f578063308ff0c9146101715780633644e515146101865780634592329b1461019b576100dd565b8063052b9e5c146100e257806314f9ad3e146101045780632187e8f914610124575b600080fd5b3480156100ee57600080fd5b506101026100fd366004610f5e565b610257565b005b34801561011057600080fd5b5061010261011f3660046110a2565b6102c1565b34801561013057600080fd5b50610139610545565b60405161014691906114b6565b60405180910390f35b34801561015b57600080fd5b5061016461056d565b6040516101469190611306565b34801561017d57600080fd5b50610164610572565b34801561019257600080fd5b50610164610577565b3480156101a757600080fd5b50610164610587565b3480156101bc57600080fd5b5061016461058d565b6101026101d33660046111db565b6105b1565b3480156101e457600080fd5b506101646105f6565b3480156101f957600080fd5b50610102610208366004610fd9565b6105fc565b34801561021957600080fd5b5061010261022836600461118d565b610824565b34801561023957600080fd5b50610164610a58565b34801561024e57600080fd5b50610164610a5e565b61026c6001600160a01b038516333086610a82565b336001600160a01b0316846001600160a01b03167f6aee94645d3f2b304035eced96277957513be5777c155afe6abb6c2285db7ad38585856040516102b39392919061183b565b60405180910390a350505050565b82600754146102eb5760405162461bcd60e51b81526004016102e2906117b3565b60405180910390fd5b6102f6836001610ae0565b6007556000610303610b14565b60405161033a907ff1c18f82536658c0cb1a208d4a52b9915dc9e75640ed0daf3a6be45d02ca5c9f9089908990899060200161136f565b604051602081830303815290604052805190602001206040516020016103619291906112ae565b6040516020818303038152906040528051906020012090506103ba8184848080601f0160208091040260200160405190810160405280939291908181526020018383808284376000920182905250549250610824915050565b60005b8581101561053c57368787838181106103e657634e487b7160e01b600052603260045260246000fd5b90506020028101906103f891906118bc565b90506040810135610409575061052a565b60006104186020830183610f44565b6001600160a01b03161415610479576104376040820160208301610f44565b6001600160a01b03166108fc82604001359081150290604051600060405180830381858888f19350505050158015610473573d6000803e3d6000fd5b506104ae565b6104ae61048c6040830160208401610f44565b604083013561049e6020850185610f44565b6001600160a01b03169190610b48565b336104bf6040830160208401610f44565b6001600160a01b03166104d56020840184610f44565b6001600160a01b03167fa68ce84c815a939744a011df05adcf79b74994aada52c5810979c254042f553d60408501356105116060870187611870565b60405161052093929190611818565b60405180910390a4505b8061053481611997565b9150506103bd565b50505050505050565b6040518060400160405280600c81526020016b466f7263652042726964676560a01b81525081565b603281565b604181565b6000610581610b14565b90505b90565b60085481565b7ff1c18f82536658c0cb1a208d4a52b9915dc9e75640ed0daf3a6be45d02ca5c9f81565b60405133906000907f6aee94645d3f2b304035eced96277957513be5777c155afe6abb6c2285db7ad3906105ea9034908790879061183b565b60405180910390a35050565b60005481565b600854821461061d5760405162461bcd60e51b81526004016102e290611633565b610628826001610ae0565b60085583516106495760405162461bcd60e51b81526004016102e29061174f565b600083116106695760405162461bcd60e51b81526004016102e29061177c565b60328451111561068b5760405162461bcd60e51b81526004016102e2906115ed565b83518311156106ac5760405162461bcd60e51b81526004016102e29061177c565b60005b84518110156107765760006106c58260016118fb565b90505b8551811015610763578581815181106106f157634e487b7160e01b600052603260045260246000fd5b60200260200101516001600160a01b031686838151811061072257634e487b7160e01b600052603260045260246000fd5b60200260200101516001600160a01b031614156107515760405162461bcd60e51b81526004016102e2906116d8565b8061075b81611997565b9150506106c8565b508061076e81611997565b9150506106af565b506000610781610b14565b6040516107b8907fd2cedd075bf1780178b261ac9c9000261e7fd88d66f6309124bddf24f5d953f89088908890889060200161130f565b604051602081830303815290604052805190602001206040516020016107df9291906112ae565b6040516020818303038152906040528051906020012090506108048183600054610824565b8451610817906001906020880190610e48565b5050506000919091555050565b6041825161083291906119b2565b1561084f5760405162461bcd60e51b81526004016102e2906115c1565b60006041835161085f9190611938565b9050818110156108815760405162461bcd60e51b81526004016102e290611571565b600080600080600080600060018054905067ffffffffffffffff8111156108b857634e487b7160e01b600052604160045260246000fd5b6040519080825280602002602001820160405280156108e1578160200160208202803683370190505b50905060005b88871015610a29576108f98b88610b67565b919750955093508661090a81611997565b97505060018c878787604051600081526020016040526040516109309493929190611498565b6020604051602081039080840390855afa158015610952573d6000803e3d6000fd5b5050604051601f1901519350506001600160a01b0383166109855760405162461bcd60e51b81526004016102e290611500565b61098e83610be5565b600154909150811015806109c657508181815181106109bd57634e487b7160e01b600052603260045260246000fd5b60200260200101515b156109d0576108e7565b60018282815181106109f257634e487b7160e01b600052603260045260246000fd5b9115156020928302919091019091015287610a0c81611997565b985050898810610a2457505050505050505050610a53565b6108e7565b89881015610a495760405162461bcd60e51b81526004016102e2906117e1565b5050505050505050505b505050565b60075481565b7fd2cedd075bf1780178b261ac9c9000261e7fd88d66f6309124bddf24f5d953f881565b610ada846323b872dd60e01b858585604051602401610aa3939291906112c9565b60408051601f198184030181529190526020810180516001600160e01b03166001600160e01b031990931692909217909152610c5d565b50505050565b6000610aec82846118fb565b905082811015610b0e5760405162461bcd60e51b81526004016102e2906116a1565b92915050565b6000600354610b21610cec565b1415610b305750600254610584565b610b41600654600454600554610cf0565b9050610584565b610a538363a9059cbb60e01b8484604051602401610aa39291906112ed565b6000808080610b7785604161194c565b8681016020810151604082015160419092015160ff169650945092509050601b841015610bac57610ba9601b85611913565b93505b8360ff16601b1480610bc157508360ff16601c145b610bdd5760405162461bcd60e51b81526004016102e2906114c9565b509250925092565b6000805b600154811015610c5257826001600160a01b031660018281548110610c1e57634e487b7160e01b600052603260045260246000fd5b6000918252602090912001546001600160a01b03161415610c40579050610c58565b80610c4a81611997565b915050610be9565b50506001545b919050565b6000610cb2826040518060400160405280602081526020017f5361666545524332303a206c6f772d6c6576656c2063616c6c206661696c6564815250856001600160a01b0316610d329092919063ffffffff16565b805190915015610a535780806020019051810190610cd0919061116d565b610a535760405162461bcd60e51b81526004016102e290611705565b4690565b6000838383610cfd610cec565b30604051602001610d1295949392919061146c565b6040516020818303038152906040528051906020012090505b9392505050565b6060610d418484600085610d49565b949350505050565b606082471015610d6b5760405162461bcd60e51b81526004016102e29061152b565b610d7485610e09565b610d905760405162461bcd60e51b81526004016102e29061166a565b600080866001600160a01b03168587604051610dac9190611292565b60006040518083038185875af1925050503d8060008114610de9576040519150601f19603f3d011682016040523d82523d6000602084013e610dee565b606091505b5091509150610dfe828286610e0f565b979650505050505050565b3b151590565b60608315610e1e575081610d2b565b825115610e2e5782518084602001fd5b8160405162461bcd60e51b81526004016102e291906114b6565b828054828255906000526020600020908101928215610e9d579160200282015b82811115610e9d57825182546001600160a01b0319166001600160a01b03909116178255602090920191600190910190610e68565b50610ea9929150610ead565b5090565b5b80821115610ea95760008155600101610eae565b80356001600160a01b0381168114610c5857600080fd5b600082601f830112610ee9578081fd5b813567ffffffffffffffff811115610f0357610f036119f2565b610f16601f8201601f19166020016118d1565b818152846020838601011115610f2a578283fd5b816020850160208301379081016020019190915292915050565b600060208284031215610f55578081fd5b610d2b82610ec2565b60008060008060808587031215610f73578283fd5b610f7c85610ec2565b935060208501359250604085013567ffffffffffffffff80821115610f9f578384fd5b610fab88838901610ed9565b93506060870135915080821115610fc0578283fd5b50610fcd87828801610ed9565b91505092959194509250565b60008060008060808587031215610fee578384fd5b843567ffffffffffffffff80821115611005578586fd5b818701915087601f830112611018578586fd5b813560208282111561102c5761102c6119f2565b80820261103a8282016118d1565b8381528281019086840183880185018e1015611054578b8cfd5b8b97505b8588101561107d5761106981610ec2565b835260019790970196918401918401611058565b5099505050880135955050604087013593506060870135915080821115610fc0578283fd5b6000806000806000606086880312156110b9578081fd5b853567ffffffffffffffff808211156110d0578283fd5b818801915088601f8301126110e3578283fd5b8135818111156110f1578384fd5b60208a818284028601011115611105578485fd5b8084019850819750808a0135965060408a0135935082841115611126578485fd5b838a0193508a601f850112611139578485fd5b8335915082821115611149578485fd5b8a81838601011115611159578485fd5b979a96995094975050909401935090919050565b60006020828403121561117e578081fd5b81518015158114610d2b578182fd5b6000806000606084860312156111a1578283fd5b83359250602084013567ffffffffffffffff8111156111be578283fd5b6111ca86828701610ed9565b925050604084013590509250925092565b600080604083850312156111ed578182fd5b823567ffffffffffffffff80821115611204578384fd5b61121086838701610ed9565b93506020850135915080821115611225578283fd5b5061123285828601610ed9565b9150509250929050565b60008284528282602086013780602084860101526020601f19601f85011685010190509392505050565b6000815180845261127e81602086016020860161196b565b601f01601f19169290920160200192915050565b600082516112a481846020870161196b565b9190910192915050565b61190160f01b81526002810192909252602282015260420190565b6001600160a01b039384168152919092166020820152604081019190915260600190565b6001600160a01b03929092168252602082015260400190565b90815260200190565b600060808201868352602060808185015281875180845260a0860191508289019350845b818110156113585784516001600160a01b031683529383019391830191600101611333565b505060408501969096525050506060015292915050565b84815260606020808301829052828201859052600091906080908185018782028601830189865b8a81101561145357888303607f190184528135368d9003607e190181126113bb578889fd5b8c016001600160a01b03806113cf83610ec2565b168552806113de888401610ec2565b168588015250604081810135908501528781013536829003601e1901811261140457898afd5b8101803567ffffffffffffffff81111561141c578a8bfd5b80360383131561142a578a8bfd5b888a87015261143e898701828a850161123c565b96880196955050509185019150600101611396565b5050809550505050505082604083015295945050505050565b9485526020850193909352604084019190915260608301526001600160a01b0316608082015260a00190565b93845260ff9290921660208401526040830152606082015260800190565b600060208252610d2b6020830184611266565b6020808252601f908201527f696e76616c69642076206f66207369676e617475726528722c20732c20762900604082015260600190565b602080825260119082015270696e76616c6964207369676e617475726560781b604082015260600190565b60208082526026908201527f416464726573733a20696e73756666696369656e742062616c616e636520666f6040820152651c8818d85b1b60d21b606082015260800190565b60208082526030908201527f6c656e677468206f66207369676e617475726573206d7573742067726561746560408201526f1c881d1a185b881d1a1c995cda1bdb1960821b606082015260800190565b602080825260129082015271696e76616c6964207369676e61747572657360701b604082015260600190565b60208082526026908201527f6e756d626572206f662076616c696461746f7273206578636565647320746865604082015265081b1a5b5a5d60d21b606082015260800190565b6020808252601e908201527f6368616e676556616c696461746f7273206e6f6e636520696e76616c69640000604082015260600190565b6020808252601d908201527f416464726573733a2063616c6c20746f206e6f6e2d636f6e7472616374000000604082015260600190565b60208082526019908201527f4f766572666c6f7720647572696e67206164646974696f6e2e00000000000000604082015260600190565b60208082526013908201527272657065617465642076616c696461746f727360681b604082015260600190565b6020808252602a908201527f5361666545524332303a204552433230206f7065726174696f6e20646964206e6040820152691bdd081cdd58d8d9595960b21b606082015260800190565b60208082526013908201527276616c696461746f727320617265206e6f6e6560681b604082015260600190565b60208082526019908201527f696e76616c6964206d756c74697369675468726573686f6c6400000000000000604082015260600190565b6020808252601490820152731d5b9b1bd8dac81b9bdb98d9481a5b9d985b1a5960621b604082015260600190565b60208082526017908201527f7369676e617475726573206e6f74207665726966696564000000000000000000604082015260600190565b60008482526040602083015261183260408301848661123c565b95945050505050565b6000848252606060208301526118546060830185611266565b82810360408401526118668185611266565b9695505050505050565b6000808335601e19843603018112611886578283fd5b83018035915067ffffffffffffffff8211156118a0578283fd5b6020019150368190038213156118b557600080fd5b9250929050565b60008235607e198336030181126112a4578182fd5b60405181810167ffffffffffffffff811182821017156118f3576118f36119f2565b604052919050565b6000821982111561190e5761190e6119c6565b500190565b600060ff821660ff84168060ff03821115611930576119306119c6565b019392505050565b600082611947576119476119dc565b500490565b6000816000190483118215151615611966576119666119c6565b500290565b60005b8381101561198657818101518382015260200161196e565b83811115610ada5750506000910152565b60006000198214156119ab576119ab6119c6565b5060010190565b6000826119c1576119c16119dc565b500690565b634e487b7160e01b600052601160045260246000fd5b634e487b7160e01b600052601260045260246000fd5b634e487b7160e01b600052604160045260246000fdfea2646970667358221220df661897f420a5e83d708da3d412c764acb20174d9b6c6fb82883a595c41db5e64736f6c63430008000033",
  "linkReferences": {},
  "deployedLinkReferences": {}
}