{
  "_format": "hh-sol-artifact-1",
  "contractName": "ForceBridge",
  "sourceName": "contracts/ForceBridge.sol",
  "abi": [
    {
      "inputs": [
        {
          "internalType": "address[]",
          "name": "validators",
          "type": "address[]"
        },
        {
          "internalType": "uint256",
          "name": "multisigThreshold",
          "type": "uint256"
        }
      ],
      "stateMutability": "nonpayable",
      "type": "constructor"
    },
    {
      "anonymous": false,
      "inputs": [
        {
          "indexed": true,
          "internalType": "address",
          "name": "token",
          "type": "address"
        },
        {
          "indexed": true,
          "internalType": "address",
          "name": "sender",
          "type": "address"
        },
        {
          "indexed": false,
          "internalType": "uint256",
          "name": "lockedAmount",
          "type": "uint256"
        },
        {
          "indexed": false,
          "internalType": "bytes",
          "name": "recipientLockscript",
          "type": "bytes"
        },
        {
          "indexed": false,
          "internalType": "bytes",
          "name": "sudtExtraData",
          "type": "bytes"
        }
      ],
      "name": "Locked",
      "type": "event"
    },
    {
      "anonymous": false,
      "inputs": [
        {
          "indexed": true,
          "internalType": "address",
          "name": "token",
          "type": "address"
        },
        {
          "indexed": true,
          "internalType": "address",
          "name": "recipient",
          "type": "address"
        },
        {
          "indexed": true,
          "internalType": "address",
          "name": "sender",
          "type": "address"
        },
        {
          "indexed": false,
          "internalType": "uint256",
          "name": "receivedAmount",
          "type": "uint256"
        },
        {
          "indexed": false,
          "internalType": "bytes",
          "name": "ckbTxHash",
          "type": "bytes"
        }
      ],
      "name": "Unlocked",
      "type": "event"
    },
    {
      "inputs": [],
      "name": "CHANGE_VALIDATORS_TYPEHASH",
      "outputs": [
        {
          "internalType": "bytes32",
          "name": "",
          "type": "bytes32"
        }
      ],
      "stateMutability": "view",
      "type": "function"
    },
    {
      "inputs": [],
      "name": "DOMAIN_SEPARATOR",
      "outputs": [
        {
          "internalType": "bytes32",
          "name": "",
          "type": "bytes32"
        }
      ],
      "stateMutability": "view",
      "type": "function"
    },
    {
      "inputs": [],
      "name": "NAME_712",
      "outputs": [
        {
          "internalType": "string",
          "name": "",
          "type": "string"
        }
      ],
      "stateMutability": "view",
      "type": "function"
    },
    {
      "inputs": [],
      "name": "SIGNATURE_SIZE",
      "outputs": [
        {
          "internalType": "uint256",
          "name": "",
          "type": "uint256"
        }
      ],
      "stateMutability": "view",
      "type": "function"
    },
    {
      "inputs": [],
      "name": "UNLOCK_TYPEHASH",
      "outputs": [
        {
          "internalType": "bytes32",
          "name": "",
          "type": "bytes32"
        }
      ],
      "stateMutability": "view",
      "type": "function"
    },
    {
      "inputs": [],
      "name": "VALIDATORS_SIZE_LIMIT",
      "outputs": [
        {
          "internalType": "uint256",
          "name": "",
          "type": "uint256"
        }
      ],
      "stateMutability": "view",
      "type": "function"
    },
    {
      "inputs": [
        {
          "internalType": "address[]",
          "name": "validators",
          "type": "address[]"
        },
        {
          "internalType": "uint256",
          "name": "multisigThreshold",
          "type": "uint256"
        },
        {
          "internalType": "bytes",
          "name": "signatures",
          "type": "bytes"
        }
      ],
      "name": "changeValidators",
      "outputs": [],
      "stateMutability": "nonpayable",
      "type": "function"
    },
    {
      "inputs": [],
      "name": "latestNonce_",
      "outputs": [
        {
          "internalType": "uint256",
          "name": "",
          "type": "uint256"
        }
      ],
      "stateMutability": "view",
      "type": "function"
    },
    {
      "inputs": [
        {
          "internalType": "bytes",
          "name": "recipientLockscript",
          "type": "bytes"
        },
        {
          "internalType": "bytes",
          "name": "sudtExtraData",
          "type": "bytes"
        }
      ],
      "name": "lockETH",
      "outputs": [],
      "stateMutability": "payable",
      "type": "function"
    },
    {
      "inputs": [
        {
          "internalType": "address",
          "name": "token",
          "type": "address"
        },
        {
          "internalType": "uint256",
          "name": "amount",
          "type": "uint256"
        },
        {
          "internalType": "bytes",
          "name": "recipientLockscript",
          "type": "bytes"
        },
        {
          "internalType": "bytes",
          "name": "sudtExtraData",
          "type": "bytes"
        }
      ],
      "name": "lockToken",
      "outputs": [],
      "stateMutability": "nonpayable",
      "type": "function"
    },
    {
      "inputs": [],
      "name": "multisigThreshold_",
      "outputs": [
        {
          "internalType": "uint256",
          "name": "",
          "type": "uint256"
        }
      ],
      "stateMutability": "view",
      "type": "function"
    },
    {
      "inputs": [
        {
          "components": [
            {
              "internalType": "address",
              "name": "token",
              "type": "address"
            },
            {
              "internalType": "address",
              "name": "recipient",
              "type": "address"
            },
            {
              "internalType": "uint256",
              "name": "amount",
              "type": "uint256"
            },
            {
              "internalType": "uint256",
              "name": "nonce",
              "type": "uint256"
            },
            {
              "internalType": "bytes",
              "name": "ckbTxHash",
              "type": "bytes"
            }
          ],
          "internalType": "struct ForceBridge.UnlockRecord[]",
          "name": "records",
          "type": "tuple[]"
        },
        {
          "internalType": "uint256",
          "name": "nonce",
          "type": "uint256"
        },
        {
          "internalType": "bytes",
          "name": "signatures",
          "type": "bytes"
        }
      ],
      "name": "unlock",
      "outputs": [],
      "stateMutability": "nonpayable",
      "type": "function"
    },
    {
      "inputs": [
        {
          "internalType": "bytes32",
          "name": "msgHash",
          "type": "bytes32"
        },
        {
          "internalType": "bytes",
          "name": "signatures",
          "type": "bytes"
        },
        {
          "internalType": "uint256",
          "name": "threshold",
          "type": "uint256"
        }
      ],
      "name": "validatorsApprove",
      "outputs": [],
      "stateMutability": "view",
      "type": "function"
    }
  ],
  "bytecode": "0x60806040523480156200001157600080fd5b5060405162001d2e38038062001d2e833981016040819052620000349162000256565b604080518082018252600c81526b466f7263652042726964676560a01b602091820152815180830190925260018252603160f81b9101527f710a8ed36eae46ded8818e1199a40714204a74b9b1f4e89b3a22651c1d11cbd760048190557fc89efdaa54c0f20c7adf612882df0950f5a951637e0307cdcb4c672f298b8bc660058190557f8b73c3c69bb8fe3d512ecc4cf759cc79239f7b179b0ffacaa9a75d522b39400f620000e26200016f565b600355620000f281848462000173565b6002556006819055845160321015620001285760405162461bcd60e51b81526004016200011f9062000358565b60405180910390fd5b84516200013d906001906020880190620001b8565b508451841115620001625760405162461bcd60e51b81526004016200011f906200039e565b50505060005550620003eb565b4690565b6000838383620001826200016f565b30604051602001620001999594939291906200032c565b6040516020818303038152906040528051906020012090509392505050565b82805482825590600052602060002090810192821562000210579160200282015b828111156200021057825182546001600160a01b0319166001600160a01b03909116178255602090920191600190910190620001d9565b506200021e92915062000222565b5090565b5b808211156200021e576000815560010162000223565b80516001600160a01b03811681146200025157600080fd5b919050565b6000806040838503121562000269578182fd5b82516001600160401b038082111562000280578384fd5b818501915085601f83011262000294578384fd5b8151602082821115620002ab57620002ab620003d5565b80820260405182828201018181108682111715620002cd57620002cd620003d5565b604052838152828101945085830182870184018b1015620002ec578889fd5b8896505b848710156200031957620003048162000239565b865260019690960195948301948301620002f0565b5097909101519698969750505050505050565b9485526020850193909352604084019190915260608301526001600160a01b0316608082015260a00190565b60208082526026908201527f6e756d626572206f662076616c696461746f7273206578636565647320746865604082015265081b1a5b5a5d60d21b606082015260800190565b60208082526019908201527f696e76616c6964206d756c74697369675468726573686f6c6400000000000000604082015260600190565b634e487b7160e01b600052604160045260246000fd5b61193380620003fb6000396000f3fe6080604052600436106100c25760003560e01c80637cd0b9841161007f578063a406ad9a11610059578063a406ad9a146101ca578063a6c03437146101dd578063ea3cbb42146101f2578063fd4e17aa14610212576100c2565b80637cd0b984146101805780638c8ca33c1461019557806397745eed146101aa576100c2565b8063052b9e5c146100c75780632187e8f9146100e95780632da5351c14610114578063308ff0c914610136578063326017cc1461014b5780633644e5151461016b575b600080fd5b3480156100d357600080fd5b506100e76100e2366004610ecc565b610227565b005b3480156100f557600080fd5b506100fe610291565b60405161010b919061143d565b60405180910390f35b34801561012057600080fd5b506101296102b9565b60405161010b9190611283565b34801561014257600080fd5b506101296102be565b34801561015757600080fd5b506100e761016636600461101f565b6102c3565b34801561017757600080fd5b50610129610555565b34801561018c57600080fd5b50610129610565565b3480156101a157600080fd5b5061012961056b565b3480156101b657600080fd5b506100e76101c5366004610f47565b61058f565b6100e76101d8366004611158565b61074d565b3480156101e957600080fd5b50610129610792565b3480156101fe57600080fd5b506100e761020d36600461110a565b610798565b34801561021e57600080fd5b506101296109cc565b61023c6001600160a01b0385163330866109f0565b336001600160a01b0316846001600160a01b03167f6aee94645d3f2b304035eced96277957513be5777c155afe6abb6c2285db7ad385858560405161028393929190611730565b60405180910390a350505050565b6040518060400160405280600c81526020016b466f7263652042726964676560a01b81525081565b603281565b604181565b60008381526007602052604090205460ff16156102df57600080fd5b6000838152600760205260409020805460ff19166001908117909155610306908490610a4e565b6008556000610313610a82565b60405161034a907ff1c18f82536658c0cb1a208d4a52b9915dc9e75640ed0daf3a6be45d02ca5c9f908990899089906020016112eb565b6040516020818303038152906040528051906020012060405160200161037192919061122b565b6040516020818303038152906040528051906020012090506103ca8184848080601f0160208091040260200160405190810160405280939291908181526020018383808284376000920182905250549250610798915050565b60005b8581101561054c57368787838181106103f657634e487b7160e01b600052603260045260246000fd5b905060200281019061040891906117b1565b90506040810135610419575061053a565b60006104286020830183610eb2565b6001600160a01b03161415610489576104476040820160208301610eb2565b6001600160a01b03166108fc82604001359081150290604051600060405180830381858888f19350505050158015610483573d6000803e3d6000fd5b506104be565b6104be61049c6040830160208401610eb2565b60408301356104ae6020850185610eb2565b6001600160a01b03169190610ab6565b336104cf6040830160208401610eb2565b6001600160a01b03166104e56020840184610eb2565b6001600160a01b03167fa68ce84c815a939744a011df05adcf79b74994aada52c5810979c254042f553d60408501356105216080870187611765565b6040516105309392919061170d565b60405180910390a4505b806105448161188c565b9150506103cd565b50505050505050565b600061055f610a82565b90505b90565b60085481565b7ff1c18f82536658c0cb1a208d4a52b9915dc9e75640ed0daf3a6be45d02ca5c9f81565b6032835111156105ba5760405162461bcd60e51b81526004016105b190611574565b60405180910390fd5b82518211156105db5760405162461bcd60e51b81526004016105b19061169f565b60005b83518110156106a55760006105f48260016117f0565b90505b84518110156106925784818151811061062057634e487b7160e01b600052603260045260246000fd5b60200260200101516001600160a01b031685838151811061065157634e487b7160e01b600052603260045260246000fd5b60200260200101516001600160a01b031614156106805760405162461bcd60e51b81526004016105b190611628565b8061068a8161188c565b9150506105f7565b508061069d8161188c565b9150506105de565b5060006106b0610a82565b6040516106e5907fd2cedd075bf1780178b261ac9c9000261e7fd88d66f6309124bddf24f5d953f8908790879060200161128c565b6040516020818303038152906040528051906020012060405160200161070c92919061122b565b6040516020818303038152906040528051906020012090506107318183600054610798565b8351610744906001906020870190610db6565b50505060005550565b60405133906000907f6aee94645d3f2b304035eced96277957513be5777c155afe6abb6c2285db7ad39061078690349087908790611730565b60405180910390a35050565b60005481565b604182516107a691906118a7565b156107c35760405162461bcd60e51b81526004016105b190611548565b6000604183516107d3919061182d565b9050818110156107f55760405162461bcd60e51b81526004016105b1906114f8565b600080600080600080600060018054905067ffffffffffffffff81111561082c57634e487b7160e01b600052604160045260246000fd5b604051908082528060200260200182016040528015610855578160200160208202803683370190505b50905060005b8887101561099d5761086d8b88610ad5565b919750955093508661087e8161188c565b97505060018c878787604051600081526020016040526040516108a4949392919061141f565b6020604051602081039080840390855afa1580156108c6573d6000803e3d6000fd5b5050604051601f1901519350506001600160a01b0383166108f95760405162461bcd60e51b81526004016105b190611487565b61090283610b53565b6001549091508110158061093a575081818151811061093157634e487b7160e01b600052603260045260246000fd5b60200260200101515b156109445761085b565b600182828151811061096657634e487b7160e01b600052603260045260246000fd5b91151560209283029190910190910152876109808161188c565b985050898810610998575050505050505050506109c7565b61085b565b898810156109bd5760405162461bcd60e51b81526004016105b1906116d6565b5050505050505050505b505050565b7fd2cedd075bf1780178b261ac9c9000261e7fd88d66f6309124bddf24f5d953f881565b610a48846323b872dd60e01b858585604051602401610a1193929190611246565b60408051601f198184030181529190526020810180516001600160e01b03166001600160e01b031990931692909217909152610bcb565b50505050565b6000610a5a82846117f0565b905082811015610a7c5760405162461bcd60e51b81526004016105b1906115f1565b92915050565b6000600354610a8f610c5a565b1415610a9e5750600254610562565b610aaf600654600454600554610c5e565b9050610562565b6109c78363a9059cbb60e01b8484604051602401610a1192919061126a565b6000808080610ae5856041611841565b8681016020810151604082015160419092015160ff169650945092509050601b841015610b1a57610b17601b85611808565b93505b8360ff16601b1480610b2f57508360ff16601c145b610b4b5760405162461bcd60e51b81526004016105b190611450565b509250925092565b6000805b600154811015610bc057826001600160a01b031660018281548110610b8c57634e487b7160e01b600052603260045260246000fd5b6000918252602090912001546001600160a01b03161415610bae579050610bc6565b80610bb88161188c565b915050610b57565b50506001545b919050565b6000610c20826040518060400160405280602081526020017f5361666545524332303a206c6f772d6c6576656c2063616c6c206661696c6564815250856001600160a01b0316610ca09092919063ffffffff16565b8051909150156109c75780806020019051810190610c3e91906110ea565b6109c75760405162461bcd60e51b81526004016105b190611655565b4690565b6000838383610c6b610c5a565b30604051602001610c809594939291906113f3565b6040516020818303038152906040528051906020012090505b9392505050565b6060610caf8484600085610cb7565b949350505050565b606082471015610cd95760405162461bcd60e51b81526004016105b1906114b2565b610ce285610d77565b610cfe5760405162461bcd60e51b81526004016105b1906115ba565b600080866001600160a01b03168587604051610d1a919061120f565b60006040518083038185875af1925050503d8060008114610d57576040519150601f19603f3d011682016040523d82523d6000602084013e610d5c565b606091505b5091509150610d6c828286610d7d565b979650505050505050565b3b151590565b60608315610d8c575081610c99565b825115610d9c5782518084602001fd5b8160405162461bcd60e51b81526004016105b1919061143d565b828054828255906000526020600020908101928215610e0b579160200282015b82811115610e0b57825182546001600160a01b0319166001600160a01b03909116178255602090920191600190910190610dd6565b50610e17929150610e1b565b5090565b5b80821115610e175760008155600101610e1c565b80356001600160a01b0381168114610bc657600080fd5b600082601f830112610e57578081fd5b813567ffffffffffffffff811115610e7157610e716118e7565b610e84601f8201601f19166020016117c6565b818152846020838601011115610e98578283fd5b816020850160208301379081016020019190915292915050565b600060208284031215610ec3578081fd5b610c9982610e30565b60008060008060808587031215610ee1578283fd5b610eea85610e30565b935060208501359250604085013567ffffffffffffffff80821115610f0d578384fd5b610f1988838901610e47565b93506060870135915080821115610f2e578283fd5b50610f3b87828801610e47565b91505092959194509250565b600080600060608486031215610f5b578283fd5b833567ffffffffffffffff80821115610f72578485fd5b818601915086601f830112610f85578485fd5b8135602082821115610f9957610f996118e7565b808202610fa78282016117c6565b8381528281019086840183880185018d1015610fc1578a8bfd5b8a97505b85881015610fea57610fd681610e30565b835260019790970196918401918401610fc5565b50985050508701359450506040860135915080821115611008578283fd5b5061101586828701610e47565b9150509250925092565b600080600080600060608688031215611036578081fd5b853567ffffffffffffffff8082111561104d578283fd5b818801915088601f830112611060578283fd5b81358181111561106e578384fd5b60208a818284028601011115611082578485fd5b8084019850819750808a0135965060408a01359350828411156110a3578485fd5b838a0193508a601f8501126110b6578485fd5b83359150828211156110c6578485fd5b8a818386010111156110d6578485fd5b979a96995094975050909401935090919050565b6000602082840312156110fb578081fd5b81518015158114610c99578182fd5b60008060006060848603121561111e578283fd5b83359250602084013567ffffffffffffffff81111561113b578283fd5b61114786828701610e47565b925050604084013590509250925092565b6000806040838503121561116a578182fd5b823567ffffffffffffffff80821115611181578384fd5b61118d86838701610e47565b935060208501359150808211156111a2578283fd5b506111af85828601610e47565b9150509250929050565b60008284528282602086013780602084860101526020601f19601f85011685010190509392505050565b600081518084526111fb816020860160208601611860565b601f01601f19169290920160200192915050565b60008251611221818460208701611860565b9190910192915050565b61190160f01b81526002810192909252602282015260420190565b6001600160a01b039384168152919092166020820152604081019190915260600190565b6001600160a01b03929092168252602082015260400190565b90815260200190565b60006060820185835260206060818501528186518084526080860191508288019350845b818110156112d55784516001600160a01b0316835293830193918301916001016112b0565b5050809350505050826040830152949350505050565b84815260606020808301829052828201859052600091906080908185018782028601830189865b8a8110156113da57888303607f190184528135368d9003609e19018112611337578889fd5b8c0160a06001600160a01b038061134d84610e30565b1686528061135c898501610e30565b1686890152506040828101359086015288820135898601528782013536839003601e1901811261138a578a8bfd5b8201803567ffffffffffffffff8111156113a2578b8cfd5b8036038413156113b0578b8cfd5b828a8801526113c4838801828b85016111b9565b9789019796505050928601925050600101611312565b5050809550505050505082604083015295945050505050565b9485526020850193909352604084019190915260608301526001600160a01b0316608082015260a00190565b93845260ff9290921660208401526040830152606082015260800190565b600060208252610c9960208301846111e3565b6020808252601f908201527f696e76616c69642076206f66207369676e617475726528722c20732c20762900604082015260600190565b602080825260119082015270696e76616c6964207369676e617475726560781b604082015260600190565b60208082526026908201527f416464726573733a20696e73756666696369656e742062616c616e636520666f6040820152651c8818d85b1b60d21b606082015260800190565b60208082526030908201527f6c656e677468206f66207369676e617475726573206d7573742067726561746560408201526f1c881d1a185b881d1a1c995cda1bdb1960821b606082015260800190565b602080825260129082015271696e76616c6964207369676e61747572657360701b604082015260600190565b60208082526026908201527f6e756d626572206f662076616c696461746f7273206578636565647320746865604082015265081b1a5b5a5d60d21b606082015260800190565b6020808252601d908201527f416464726573733a2063616c6c20746f206e6f6e2d636f6e7472616374000000604082015260600190565b60208082526019908201527f4f766572666c6f7720647572696e67206164646974696f6e2e00000000000000604082015260600190565b60208082526013908201527272657065617465642076616c696461746f727360681b604082015260600190565b6020808252602a908201527f5361666545524332303a204552433230206f7065726174696f6e20646964206e6040820152691bdd081cdd58d8d9595960b21b606082015260800190565b60208082526019908201527f696e76616c6964206d756c74697369675468726573686f6c6400000000000000604082015260600190565b60208082526017908201527f7369676e617475726573206e6f74207665726966696564000000000000000000604082015260600190565b6000848252604060208301526117276040830184866111b9565b95945050505050565b60008482526060602083015261174960608301856111e3565b828103604084015261175b81856111e3565b9695505050505050565b6000808335601e1984360301811261177b578283fd5b83018035915067ffffffffffffffff821115611795578283fd5b6020019150368190038213156117aa57600080fd5b9250929050565b60008235609e19833603018112611221578182fd5b60405181810167ffffffffffffffff811182821017156117e8576117e86118e7565b604052919050565b60008219821115611803576118036118bb565b500190565b600060ff821660ff84168060ff03821115611825576118256118bb565b019392505050565b60008261183c5761183c6118d1565b500490565b600081600019048311821515161561185b5761185b6118bb565b500290565b60005b8381101561187b578181015183820152602001611863565b83811115610a485750506000910152565b60006000198214156118a0576118a06118bb565b5060010190565b6000826118b6576118b66118d1565b500690565b634e487b7160e01b600052601160045260246000fd5b634e487b7160e01b600052601260045260246000fd5b634e487b7160e01b600052604160045260246000fdfea2646970667358221220cf9abd7098ddea49ae1eceabe827d6a55d318ddbe93c2d704db6ac6a6c5bc44464736f6c63430008000033",
  "linkReferences": {},
  "deployedLinkReferences": {}
}