{
  "_format": "hh-sol-artifact-1",
  "contractName": "ForceBridge",
  "sourceName": "contracts/ForceBridge.sol",
  "abi": [
    {
      "inputs": [],
      "stateMutability": "nonpayable",
      "type": "constructor"
    },
    {
      "anonymous": false,
      "inputs": [
        {
          "indexed": true,
          "internalType": "address",
          "name": "token",
          "type": "address"
        },
        {
          "indexed": true,
          "internalType": "address",
          "name": "sender",
          "type": "address"
        },
        {
          "indexed": false,
          "internalType": "uint256",
          "name": "lockedAmount",
          "type": "uint256"
        },
        {
          "indexed": false,
          "internalType": "bytes",
          "name": "recipientLockscript",
          "type": "bytes"
        },
        {
          "indexed": false,
          "internalType": "bytes",
          "name": "sudtExtraData",
          "type": "bytes"
        }
      ],
      "name": "Locked",
      "type": "event"
    },
    {
      "anonymous": false,
      "inputs": [
        {
          "indexed": true,
          "internalType": "address",
          "name": "token",
          "type": "address"
        },
        {
          "indexed": true,
          "internalType": "address",
          "name": "recipient",
          "type": "address"
        },
        {
          "indexed": true,
          "internalType": "address",
          "name": "sender",
          "type": "address"
        },
        {
          "indexed": false,
          "internalType": "uint256",
          "name": "receivedAmount",
          "type": "uint256"
        },
        {
          "indexed": false,
          "internalType": "bytes",
          "name": "ckbTxHash",
          "type": "bytes"
        }
      ],
      "name": "Unlocked",
      "type": "event"
    },
    {
      "inputs": [],
      "name": "admin",
      "outputs": [
        {
          "internalType": "address",
          "name": "",
          "type": "address"
        }
      ],
      "stateMutability": "view",
      "type": "function"
    },
    {
      "inputs": [
        {
          "internalType": "address",
          "name": "newAdmin",
          "type": "address"
        }
      ],
      "name": "changeAdmin",
      "outputs": [],
      "stateMutability": "nonpayable",
      "type": "function"
    },
    {
      "inputs": [
        {
          "internalType": "bytes",
          "name": "recipientLockscript",
          "type": "bytes"
        },
        {
          "internalType": "bytes",
          "name": "sudtExtraData",
          "type": "bytes"
        }
      ],
      "name": "lockETH",
      "outputs": [],
      "stateMutability": "payable",
      "type": "function"
    },
    {
      "inputs": [
        {
          "internalType": "address",
          "name": "token",
          "type": "address"
        },
        {
          "internalType": "uint256",
          "name": "amount",
          "type": "uint256"
        },
        {
          "internalType": "bytes",
          "name": "recipientLockscript",
          "type": "bytes"
        },
        {
          "internalType": "bytes",
          "name": "sudtExtraData",
          "type": "bytes"
        }
      ],
      "name": "lockToken",
      "outputs": [],
      "stateMutability": "nonpayable",
      "type": "function"
    },
    {
      "inputs": [
        {
          "components": [
            {
              "internalType": "address",
              "name": "token",
              "type": "address"
            },
            {
              "internalType": "address",
              "name": "recipient",
              "type": "address"
            },
            {
              "internalType": "uint256",
              "name": "amount",
              "type": "uint256"
            },
            {
              "internalType": "bytes",
              "name": "ckbTxHash",
              "type": "bytes"
            }
          ],
          "internalType": "struct ForceBridge.UnlockRecord[]",
          "name": "records",
          "type": "tuple[]"
        }
      ],
      "name": "unlock",
      "outputs": [],
      "stateMutability": "nonpayable",
      "type": "function"
    }
  ],
  "bytecode": "0x608060405234801561001057600080fd5b50600080546001600160a01b03191633179055610b18806100326000396000f3fe60806040526004361061004a5760003560e01c8063052b9e5c1461004f57806323f48183146100715780638f28397014610091578063a406ad9a146100b1578063f851a440146100c4575b600080fd5b34801561005b57600080fd5b5061006f61006a36600461068d565b6100ef565b005b34801561007d57600080fd5b5061006f61008c366004610708565b610159565b34801561009d57600080fd5b5061006f6100ac366004610673565b610313565b61006f6100bf366004610797565b61035f565b3480156100d057600080fd5b506100d96103a4565b6040516100e69190610840565b60405180910390f35b6101046001600160a01b0385163330866103b3565b336001600160a01b0316846001600160a01b03167f6aee94645d3f2b304035eced96277957513be5777c155afe6abb6c2285db7ad385858560405161014b939291906109e3565b60405180910390a350505050565b6000546001600160a01b0316331461018c5760405162461bcd60e51b8152600401610183906108ea565b60405180910390fd5b60005b8181101561030e57368383838181106101b857634e487b7160e01b600052603260045260246000fd5b90506020028101906101ca9190610a64565b905060408101356101db57506102fc565b60006101ea6020830183610673565b6001600160a01b0316141561024b576102096040820160208301610673565b6001600160a01b03166108fc82604001359081150290604051600060405180830381858888f19350505050158015610245573d6000803e3d6000fd5b50610280565b61028061025e6040830160208401610673565b60408301356102706020850185610673565b6001600160a01b03169190610411565b336102916040830160208401610673565b6001600160a01b03166102a76020840184610673565b6001600160a01b03167fa68ce84c815a939744a011df05adcf79b74994aada52c5810979c254042f553d60408501356102e36060870187610a18565b6040516102f2939291906109ad565b60405180910390a4505b8061030681610aa5565b91505061018f565b505050565b6000546001600160a01b0316331461033d5760405162461bcd60e51b8152600401610183906108ea565b600080546001600160a01b0319166001600160a01b0392909216919091179055565b60405133906000907f6aee94645d3f2b304035eced96277957513be5777c155afe6abb6c2285db7ad390610398903490879087906109e3565b60405180910390a35050565b6000546001600160a01b031681565b61040b846323b872dd60e01b8585856040516024016103d493929190610854565b60408051601f198184030181529190526020810180516001600160e01b03166001600160e01b031990931692909217909152610430565b50505050565b61030e8363a9059cbb60e01b84846040516024016103d4929190610878565b6000610485826040518060400160405280602081526020017f5361666545524332303a206c6f772d6c6576656c2063616c6c206661696c6564815250856001600160a01b03166104bf9092919063ffffffff16565b80519091501561030e57808060200190518101906104a39190610777565b61030e5760405162461bcd60e51b815260040161018390610963565b60606104ce84846000856104d8565b90505b9392505050565b6060824710156104fa5760405162461bcd60e51b8152600401610183906108a4565b61050385610598565b61051f5760405162461bcd60e51b81526004016101839061092c565b600080866001600160a01b0316858760405161053b9190610824565b60006040518083038185875af1925050503d8060008114610578576040519150601f19603f3d011682016040523d82523d6000602084013e61057d565b606091505b509150915061058d8282866105a2565b979650505050505050565b803b15155b919050565b606083156105b15750816104d1565b8251156105c15782518084602001fd5b8160405162461bcd60e51b81526004016101839190610891565b80356001600160a01b038116811461059d57600080fd5b600082601f830112610602578081fd5b813567ffffffffffffffff8082111561061d5761061d610acc565b604051601f8301601f19168101602001828111828210171561064157610641610acc565b604052828152848301602001861015610658578384fd5b82602086016020830137918201602001929092529392505050565b600060208284031215610684578081fd5b6104d1826105db565b600080600080608085870312156106a2578283fd5b6106ab856105db565b935060208501359250604085013567ffffffffffffffff808211156106ce578384fd5b6106da888389016105f2565b935060608701359150808211156106ef578283fd5b506106fc878288016105f2565b91505092959194509250565b6000806020838503121561071a578182fd5b823567ffffffffffffffff80821115610731578384fd5b818501915085601f830112610744578384fd5b813581811115610752578485fd5b8660208083028501011115610765578485fd5b60209290920196919550909350505050565b600060208284031215610788578081fd5b815180151581146104d1578182fd5b600080604083850312156107a9578182fd5b823567ffffffffffffffff808211156107c0578384fd5b6107cc868387016105f2565b935060208501359150808211156107e1578283fd5b506107ee858286016105f2565b9150509250929050565b60008151808452610810816020860160208601610a79565b601f01601f19169290920160200192915050565b60008251610836818460208701610a79565b9190910192915050565b6001600160a01b0391909116815260200190565b6001600160a01b039384168152919092166020820152604081019190915260600190565b6001600160a01b03929092168252602082015260400190565b6000602082526104d160208301846107f8565b60208082526026908201527f416464726573733a20696e73756666696369656e742062616c616e636520666f6040820152651c8818d85b1b60d21b606082015260800190565b60208082526022908201527f4f6e6c792061646d696e2063616e2063616c6c20746869732066756e6374696f604082015261371760f11b606082015260800190565b6020808252601d908201527f416464726573733a2063616c6c20746f206e6f6e2d636f6e7472616374000000604082015260600190565b6020808252602a908201527f5361666545524332303a204552433230206f7065726174696f6e20646964206e6040820152691bdd081cdd58d8d9595960b21b606082015260800190565b60008482526040602083015282604083015282846060840137818301606090810191909152601f909201601f1916010192915050565b6000848252606060208301526109fc60608301856107f8565b8281036040840152610a0e81856107f8565b9695505050505050565b6000808335601e19843603018112610a2e578283fd5b83018035915067ffffffffffffffff821115610a48578283fd5b602001915036819003821315610a5d57600080fd5b9250929050565b60008235607e19833603018112610836578182fd5b60005b83811015610a94578181015183820152602001610a7c565b8381111561040b5750506000910152565b6000600019821415610ac557634e487b7160e01b81526011600452602481fd5b5060010190565b634e487b7160e01b600052604160045260246000fdfea26469706673582212201c9eb2bcbcb8982b4f59b723d7eff95f496d86afd045cbbda882212553b0a4aa64736f6c63430008000033",
  "linkReferences": {},
  "deployedLinkReferences": {}
}