{
  "_format": "hh-sol-artifact-1",
  "contractName": "ForceBridge",
  "sourceName": "contracts/ForceBridge.sol",
  "abi": [
    {
      "inputs": [],
      "stateMutability": "nonpayable",
      "type": "constructor"
    },
    {
      "anonymous": false,
      "inputs": [
        {
          "indexed": true,
          "internalType": "address",
          "name": "token",
          "type": "address"
        },
        {
          "indexed": true,
          "internalType": "address",
          "name": "sender",
          "type": "address"
        },
        {
          "indexed": false,
          "internalType": "uint256",
          "name": "lockedAmount",
          "type": "uint256"
        },
        {
          "indexed": false,
          "internalType": "bytes",
          "name": "recipientLockscript",
          "type": "bytes"
        },
        {
          "indexed": false,
          "internalType": "bytes",
          "name": "sudtExtraData",
          "type": "bytes"
        }
      ],
      "name": "Locked",
      "type": "event"
    },
    {
      "anonymous": false,
      "inputs": [
        {
          "indexed": true,
          "internalType": "address",
          "name": "token",
          "type": "address"
        },
        {
          "indexed": true,
          "internalType": "address",
          "name": "recipient",
          "type": "address"
        },
        {
          "indexed": true,
          "internalType": "address",
          "name": "sender",
          "type": "address"
        },
        {
          "indexed": false,
          "internalType": "uint256",
          "name": "receivedAmount",
          "type": "uint256"
        },
        {
          "indexed": false,
          "internalType": "bytes",
          "name": "ckbTxHash",
          "type": "bytes"
        }
      ],
      "name": "Unlocked",
      "type": "event"
    },
    {
      "inputs": [],
      "name": "DOMAIN_SEPARATOR",
      "outputs": [
        {
          "internalType": "bytes32",
          "name": "",
          "type": "bytes32"
        }
      ],
      "stateMutability": "view",
      "type": "function"
    },
    {
      "inputs": [],
      "name": "NAME_712",
      "outputs": [
        {
          "internalType": "string",
          "name": "",
          "type": "string"
        }
      ],
      "stateMutability": "view",
      "type": "function"
    },
    {
      "inputs": [],
      "name": "SIGNATURE_SIZE",
      "outputs": [
        {
          "internalType": "uint256",
          "name": "",
          "type": "uint256"
        }
      ],
      "stateMutability": "view",
      "type": "function"
    },
    {
      "inputs": [],
      "name": "UNLOCK_TYPEHASH",
      "outputs": [
        {
          "internalType": "bytes32",
          "name": "",
          "type": "bytes32"
        }
      ],
      "stateMutability": "view",
      "type": "function"
    },
    {
      "inputs": [],
      "name": "VALIDATORS_SIZE_LIMIT",
      "outputs": [
        {
          "internalType": "uint256",
          "name": "",
          "type": "uint256"
        }
      ],
      "stateMutability": "view",
      "type": "function"
    },
    {
      "inputs": [],
      "name": "admin",
      "outputs": [
        {
          "internalType": "address",
          "name": "",
          "type": "address"
        }
      ],
      "stateMutability": "view",
      "type": "function"
    },
    {
      "inputs": [
        {
          "internalType": "address",
          "name": "newAdmin",
          "type": "address"
        }
      ],
      "name": "changeAdmin",
      "outputs": [],
      "stateMutability": "nonpayable",
      "type": "function"
    },
    {
      "inputs": [
        {
          "internalType": "address[]",
          "name": "validators",
          "type": "address[]"
        },
        {
          "internalType": "uint256",
          "name": "multisigThreshold",
          "type": "uint256"
        },
        {
          "internalType": "bytes",
          "name": "signatures",
          "type": "bytes"
        }
      ],
      "name": "changeValidators",
      "outputs": [],
      "stateMutability": "nonpayable",
      "type": "function"
    },
    {
      "inputs": [
        {
          "internalType": "address[]",
          "name": "validators",
          "type": "address[]"
        },
        {
          "internalType": "uint256",
          "name": "multisigThreshold",
          "type": "uint256"
        }
      ],
      "name": "initialize",
      "outputs": [],
      "stateMutability": "nonpayable",
      "type": "function"
    },
    {
      "inputs": [],
      "name": "initialized",
      "outputs": [
        {
          "internalType": "bool",
          "name": "",
          "type": "bool"
        }
      ],
      "stateMutability": "view",
      "type": "function"
    },
    {
      "inputs": [
        {
          "internalType": "bytes",
          "name": "recipientLockscript",
          "type": "bytes"
        },
        {
          "internalType": "bytes",
          "name": "sudtExtraData",
          "type": "bytes"
        }
      ],
      "name": "lockETH",
      "outputs": [],
      "stateMutability": "payable",
      "type": "function"
    },
    {
      "inputs": [
        {
          "internalType": "address",
          "name": "token",
          "type": "address"
        },
        {
          "internalType": "uint256",
          "name": "amount",
          "type": "uint256"
        },
        {
          "internalType": "bytes",
          "name": "recipientLockscript",
          "type": "bytes"
        },
        {
          "internalType": "bytes",
          "name": "sudtExtraData",
          "type": "bytes"
        }
      ],
      "name": "lockToken",
      "outputs": [],
      "stateMutability": "nonpayable",
      "type": "function"
    },
    {
      "inputs": [],
      "name": "multisigThreshold_",
      "outputs": [
        {
          "internalType": "uint256",
          "name": "",
          "type": "uint256"
        }
      ],
      "stateMutability": "view",
      "type": "function"
    },
    {
      "inputs": [
        {
          "components": [
            {
              "internalType": "address",
              "name": "token",
              "type": "address"
            },
            {
              "internalType": "address",
              "name": "recipient",
              "type": "address"
            },
            {
              "internalType": "uint256",
              "name": "amount",
              "type": "uint256"
            },
            {
              "internalType": "bytes",
              "name": "ckbTxHash",
              "type": "bytes"
            }
          ],
          "internalType": "struct ForceBridge.UnlockRecord[]",
          "name": "records",
          "type": "tuple[]"
        },
        {
          "internalType": "bytes",
          "name": "signatures",
          "type": "bytes"
        }
      ],
      "name": "unlock",
      "outputs": [],
      "stateMutability": "nonpayable",
      "type": "function"
    },
    {
      "inputs": [
        {
          "internalType": "bytes32",
          "name": "msgHash",
          "type": "bytes32"
        },
        {
          "internalType": "bytes",
          "name": "signatures",
          "type": "bytes"
        },
        {
          "internalType": "uint256",
          "name": "threshold",
          "type": "uint256"
        }
      ],
      "name": "validatorsApprove",
      "outputs": [],
      "stateMutability": "view",
      "type": "function"
    }
  ],
  "bytecode": "0x608060405234801561001057600080fd5b50600080546001600160a01b03191633179055611a08806100326000396000f3fe6080604052600436106100e85760003560e01c80636740f04e1161008a578063a406ad9a11610059578063a406ad9a1461023d578063a6c0343714610250578063ea3cbb4214610265578063f851a44014610285576100e8565b80636740f04e146101c85780638c8ca33c146101e85780638f283970146101fd57806397745eed1461021d576100e8565b80632da5351c116100c65780632da5351c1461015c578063308ff0c91461017e5780633644e5151461019357806360b5bb3f146101a8576100e8565b8063052b9e5c146100ed578063158ef93e1461010f5780632187e8f91461013a575b600080fd5b3480156100f957600080fd5b5061010d610108366004610fb9565b6102a7565b005b34801561011b57600080fd5b50610124610311565b604051610131919061134d565b60405180910390f35b34801561014657600080fd5b5061014f610321565b60405161013191906114fe565b34801561016857600080fd5b50610171610349565b6040516101319190611358565b34801561018a57600080fd5b5061017161034e565b34801561019f57600080fd5b50610171610353565b3480156101b457600080fd5b5061010d6101c3366004611034565b610359565b3480156101d457600080fd5b5061010d6101e33660046110e1565b6104c8565b3480156101f457600080fd5b50610171610712565b34801561020957600080fd5b5061010d610218366004610f9f565b610736565b34801561022957600080fd5b5061010d610238366004611077565b610782565b61010d61024b36600461120e565b610872565b34801561025c57600080fd5b506101716108b7565b34801561027157600080fd5b5061010d6102803660046111c0565b6108bd565b34801561029157600080fd5b5061029a610af1565b60405161013191906112fc565b6102bc6001600160a01b038516333086610b00565b336001600160a01b0316846001600160a01b03167f6aee94645d3f2b304035eced96277957513be5777c155afe6abb6c2285db7ad38585856040516103039392919061181d565b60405180910390a350505050565b600054600160a01b900460ff1681565b6040518060400160405280600c81526020016b466f7263652042726964676560a01b81525081565b601481565b604181565b60015481565b600054600160a01b900460ff161561038c5760405162461bcd60e51b81526004016103839061164b565b60405180910390fd5b6000805460ff60a01b1916600160a01b179055604080518082018252600c81526b466f7263652042726964676560a01b6020918201528151808301835260018152603160f81b908201529051469161044e917f8b73c3c69bb8fe3d512ecc4cf759cc79239f7b179b0ffacaa9a75d522b39400f917f710a8ed36eae46ded8818e1199a40714204a74b9b1f4e89b3a22651c1d11cbd7917fc89efdaa54c0f20c7adf612882df0950f5a951637e0307cdcb4c672f298b8bc69186913091016114b4565b6040516020818303038152906040528051906020012060018190555060148351111561048c5760405162461bcd60e51b8152600401610383906116c5565b825161049f906003906020860190610e1a565b5082518211156104c15760405162461bcd60e51b81526004016103839061178c565b5060025550565b60006001547ff1c18f82536658c0cb1a208d4a52b9915dc9e75640ed0daf3a6be45d02ca5c9f60001b8686604051602001610505939291906113c0565b6040516020818303038152906040528051906020012060405160200161052c9291906112e1565b6040516020818303038152906040528051906020012090506105888184848080601f0160208091040260200160405190810160405280939291908181526020018383808284376000920191909152505060025491506108bd9050565b60005b8481101561070a57368686838181106105b457634e487b7160e01b600052603260045260246000fd5b90506020028101906105c6919061189e565b905060408101356105d757506106f8565b60006105e66020830183610f9f565b6001600160a01b03161415610647576106056040820160208301610f9f565b6001600160a01b03166108fc82604001359081150290604051600060405180830381858888f19350505050158015610641573d6000803e3d6000fd5b5061067c565b61067c61065a6040830160208401610f9f565b604083013561066c6020850185610f9f565b6001600160a01b03169190610b5e565b3361068d6040830160208401610f9f565b6001600160a01b03166106a36020840184610f9f565b6001600160a01b03167fa68ce84c815a939744a011df05adcf79b74994aada52c5810979c254042f553d60408501356106df6060870187611852565b6040516106ee939291906117fa565b60405180910390a4505b8061070281611961565b91505061058b565b505050505050565b7ff1c18f82536658c0cb1a208d4a52b9915dc9e75640ed0daf3a6be45d02ca5c9f81565b6000546001600160a01b031633146107605760405162461bcd60e51b815260040161038390611609565b600080546001600160a01b0319166001600160a01b0392909216919091179055565b6014835111156107a45760405162461bcd60e51b8152600401610383906116c5565b82518211156107c55760405162461bcd60e51b81526004016103839061178c565b60006001547ff1c18f82536658c0cb1a208d4a52b9915dc9e75640ed0daf3a6be45d02ca5c9f60001b858560405160200161080293929190611361565b604051602081830303815290604052805190602001206040516020016108299291906112e1565b60408051601f1981840301815291905280516020909101206003549091506108528284836108bd565b8451610865906003906020880190610e1a565b5050506002919091555050565b60405133906000907f6aee94645d3f2b304035eced96277957513be5777c155afe6abb6c2285db7ad3906108ab9034908790879061181d565b60405180910390a35050565b60025481565b604182516108cb919061197c565b156108e85760405162461bcd60e51b815260040161038390611699565b6000604183516108f89190611902565b90508181101561091a5760405162461bcd60e51b8152600401610383906115b9565b600080600080600080600060038054905067ffffffffffffffff81111561095157634e487b7160e01b600052604160045260246000fd5b60405190808252806020026020018201604052801561097a578160200160208202803683370190505b50905060005b88871015610ac2576109928b88610b7d565b91975095509350866109a381611961565b97505060018c878787604051600081526020016040526040516109c994939291906114e0565b6020604051602081039080840390855afa1580156109eb573d6000803e3d6000fd5b5050604051601f1901519350506001600160a01b038316610a1e5760405162461bcd60e51b815260040161038390611548565b610a2783610bfb565b60035490915081101580610a5f5750818181518110610a5657634e487b7160e01b600052603260045260246000fd5b60200260200101515b15610a6957610980565b6001828281518110610a8b57634e487b7160e01b600052603260045260246000fd5b9115156020928302919091019091015287610aa581611961565b985050898810610abd57505050505050505050610aec565b610980565b89881015610ae25760405162461bcd60e51b8152600401610383906117c3565b5050505050505050505b505050565b6000546001600160a01b031681565b610b58846323b872dd60e01b858585604051602401610b2193929190611310565b60408051601f198184030181529190526020810180516001600160e01b03166001600160e01b031990931692909217909152610c73565b50505050565b610aec8363a9059cbb60e01b8484604051602401610b21929190611334565b6000808080610b8d856041611916565b8681016020810151604082015160419092015160ff169650945092509050601b841015610bc257610bbf601b856118dd565b93505b8360ff16601b1480610bd757508360ff16601c145b610bf35760405162461bcd60e51b815260040161038390611511565b509250925092565b6000805b600354811015610c6857826001600160a01b031660038281548110610c3457634e487b7160e01b600052603260045260246000fd5b6000918252602090912001546001600160a01b03161415610c56579050610c6e565b80610c6081611961565b915050610bff565b50506003545b919050565b6000610cc8826040518060400160405280602081526020017f5361666545524332303a206c6f772d6c6576656c2063616c6c206661696c6564815250856001600160a01b0316610d029092919063ffffffff16565b805190915015610aec5780806020019051810190610ce691906111a0565b610aec5760405162461bcd60e51b815260040161038390611742565b6060610d118484600085610d1b565b90505b9392505050565b606082471015610d3d5760405162461bcd60e51b815260040161038390611573565b610d4685610ddb565b610d625760405162461bcd60e51b81526004016103839061170b565b600080866001600160a01b03168587604051610d7e91906112c5565b60006040518083038185875af1925050503d8060008114610dbb576040519150601f19603f3d011682016040523d82523d6000602084013e610dc0565b606091505b5091509150610dd0828286610de1565b979650505050505050565b3b151590565b60608315610df0575081610d14565b825115610e005782518084602001fd5b8160405162461bcd60e51b815260040161038391906114fe565b828054828255906000526020600020908101928215610e6f579160200282015b82811115610e6f57825182546001600160a01b0319166001600160a01b03909116178255602090920191600190910190610e3a565b50610e7b929150610e7f565b5090565b5b80821115610e7b5760008155600101610e80565b80356001600160a01b0381168114610c6e57600080fd5b600082601f830112610ebb578081fd5b8135602067ffffffffffffffff821115610ed757610ed76119bc565b808202610ee58282016118b3565b838152828101908684018388018501891015610eff578687fd5b8693505b85841015610f2857610f1481610e94565b835260019390930192918401918401610f03565b50979650505050505050565b600082601f830112610f44578081fd5b813567ffffffffffffffff811115610f5e57610f5e6119bc565b610f71601f8201601f19166020016118b3565b818152846020838601011115610f85578283fd5b816020850160208301379081016020019190915292915050565b600060208284031215610fb0578081fd5b610d1482610e94565b60008060008060808587031215610fce578283fd5b610fd785610e94565b935060208501359250604085013567ffffffffffffffff80821115610ffa578384fd5b61100688838901610f34565b9350606087013591508082111561101b578283fd5b5061102887828801610f34565b91505092959194509250565b60008060408385031215611046578182fd5b823567ffffffffffffffff81111561105c578283fd5b61106885828601610eab565b95602094909401359450505050565b60008060006060848603121561108b578283fd5b833567ffffffffffffffff808211156110a2578485fd5b6110ae87838801610eab565b94506020860135935060408601359150808211156110ca578283fd5b506110d786828701610f34565b9150509250925092565b600080600080604085870312156110f6578384fd5b843567ffffffffffffffff8082111561110d578586fd5b818701915087601f830112611120578586fd5b81358181111561112e578687fd5b602089818284028601011115611142578788fd5b80840197508196508089013593508284111561115c578586fd5b838901935089601f85011261116f578586fd5b833591508282111561117f578586fd5b898183860101111561118f578586fd5b969995985091909501955093505050565b6000602082840312156111b1578081fd5b81518015158114610d14578182fd5b6000806000606084860312156111d4578283fd5b83359250602084013567ffffffffffffffff8111156111f1578283fd5b6111fd86828701610f34565b925050604084013590509250925092565b60008060408385031215611220578182fd5b823567ffffffffffffffff80821115611237578384fd5b61124386838701610f34565b93506020850135915080821115611258578283fd5b5061126585828601610f34565b9150509250929050565b60008284528282602086013780602084860101526020601f19601f85011685010190509392505050565b600081518084526112b1816020860160208601611935565b601f01601f19169290920160200192915050565b600082516112d7818460208701611935565b9190910192915050565b61190160f01b81526002810192909252602282015260420190565b6001600160a01b0391909116815260200190565b6001600160a01b039384168152919092166020820152604081019190915260600190565b6001600160a01b03929092168252602082015260400190565b901515815260200190565b90815260200190565b60006060820185835260206060818501528186518084526080860191508288019350845b818110156113aa5784516001600160a01b031683529383019391830191600101611385565b5050809350505050826040830152949350505050565b83815260406020808301829052828201849052600091906060908185018682028601830188865b898110156114a457888303605f190184528135368c9003607e1901811261140c578889fd5b8b0160806001600160a01b038061142284610e94565b16865280611431898501610e94565b168887015250888201358986015287820135601e19833603018112611454578a8bfd5b8201803567ffffffffffffffff81111561146c578b8cfd5b80360384131561147a578b8cfd5b828a88015261148e838801828b850161126f565b97890197965050509286019250506001016113e7565b50909a9950505050505050505050565b9485526020850193909352604084019190915260608301526001600160a01b0316608082015260a00190565b93845260ff9290921660208401526040830152606082015260800190565b600060208252610d146020830184611299565b6020808252601f908201527f696e76616c69642076206f66207369676e617475726528722c20732c20762900604082015260600190565b602080825260119082015270696e76616c6964207369676e617475726560781b604082015260600190565b60208082526026908201527f416464726573733a20696e73756666696369656e742062616c616e636520666f6040820152651c8818d85b1b60d21b606082015260800190565b60208082526030908201527f6c656e677468206f66207369676e617475726573206d7573742067726561746560408201526f1c881d1a185b881d1a1c995cda1bdb1960821b606082015260800190565b60208082526022908201527f4f6e6c792061646d696e2063616e2063616c6c20746869732066756e6374696f604082015261371760f11b606082015260800190565b6020808252602e908201527f436f6e747261637420696e7374616e63652068617320616c726561647920626560408201526d195b881a5b9a5d1a585b1a5e995960921b606082015260800190565b602080825260129082015271696e76616c6964207369676e61747572657360701b604082015260600190565b60208082526026908201527f6e756d626572206f662076616c696461746f7273206578636565647320746865604082015265081b1a5b5a5d60d21b606082015260800190565b6020808252601d908201527f416464726573733a2063616c6c20746f206e6f6e2d636f6e7472616374000000604082015260600190565b6020808252602a908201527f5361666545524332303a204552433230206f7065726174696f6e20646964206e6040820152691bdd081cdd58d8d9595960b21b606082015260800190565b60208082526019908201527f696e76616c6964206d756c74697369675468726573686f6c6400000000000000604082015260600190565b60208082526017908201527f7369676e617475726573206e6f74207665726966696564000000000000000000604082015260600190565b60008482526040602083015261181460408301848661126f565b95945050505050565b6000848252606060208301526118366060830185611299565b82810360408401526118488185611299565b9695505050505050565b6000808335601e19843603018112611868578283fd5b83018035915067ffffffffffffffff821115611882578283fd5b60200191503681900382131561189757600080fd5b9250929050565b60008235607e198336030181126112d7578182fd5b60405181810167ffffffffffffffff811182821017156118d5576118d56119bc565b604052919050565b600060ff821660ff84168060ff038211156118fa576118fa611990565b019392505050565b600082611911576119116119a6565b500490565b600081600019048311821515161561193057611930611990565b500290565b60005b83811015611950578181015183820152602001611938565b83811115610b585750506000910152565b600060001982141561197557611975611990565b5060010190565b60008261198b5761198b6119a6565b500690565b634e487b7160e01b600052601160045260246000fd5b634e487b7160e01b600052601260045260246000fd5b634e487b7160e01b600052604160045260246000fdfea26469706673582212208388ac2afa604837371b3d7395038d9781f4012aae712bc99afbeb95bba4162664736f6c63430008000033",
  "linkReferences": {},
  "deployedLinkReferences": {}
}