{
  "_format": "hh-sol-artifact-1",
  "contractName": "ForceBridge",
  "sourceName": "contracts/ForceBridge.sol",
  "abi": [
    {
      "inputs": [
        {
          "internalType": "address[]",
          "name": "validators",
          "type": "address[]"
        },
        {
          "internalType": "uint256",
          "name": "multisigThreshold",
          "type": "uint256"
        }
      ],
      "stateMutability": "nonpayable",
      "type": "constructor"
    },
    {
      "anonymous": false,
      "inputs": [
        {
          "indexed": true,
          "internalType": "address",
          "name": "token",
          "type": "address"
        },
        {
          "indexed": true,
          "internalType": "address",
          "name": "sender",
          "type": "address"
        },
        {
          "indexed": false,
          "internalType": "uint256",
          "name": "lockedAmount",
          "type": "uint256"
        },
        {
          "indexed": false,
          "internalType": "bytes",
          "name": "recipientLockscript",
          "type": "bytes"
        },
        {
          "indexed": false,
          "internalType": "bytes",
          "name": "sudtExtraData",
          "type": "bytes"
        }
      ],
      "name": "Locked",
      "type": "event"
    },
    {
      "anonymous": false,
      "inputs": [
        {
          "indexed": true,
          "internalType": "address",
          "name": "token",
          "type": "address"
        },
        {
          "indexed": true,
          "internalType": "address",
          "name": "recipient",
          "type": "address"
        },
        {
          "indexed": true,
          "internalType": "address",
          "name": "sender",
          "type": "address"
        },
        {
          "indexed": false,
          "internalType": "uint256",
          "name": "receivedAmount",
          "type": "uint256"
        },
        {
          "indexed": false,
          "internalType": "bytes",
          "name": "ckbTxHash",
          "type": "bytes"
        }
      ],
      "name": "Unlocked",
      "type": "event"
    },
    {
      "inputs": [],
      "name": "CHANGE_VALIDATORS_TYPEHASH",
      "outputs": [
        {
          "internalType": "bytes32",
          "name": "",
          "type": "bytes32"
        }
      ],
      "stateMutability": "view",
      "type": "function"
    },
    {
      "inputs": [],
      "name": "DOMAIN_SEPARATOR",
      "outputs": [
        {
          "internalType": "bytes32",
          "name": "",
          "type": "bytes32"
        }
      ],
      "stateMutability": "view",
      "type": "function"
    },
    {
      "inputs": [],
      "name": "NAME_712",
      "outputs": [
        {
          "internalType": "string",
          "name": "",
          "type": "string"
        }
      ],
      "stateMutability": "view",
      "type": "function"
    },
    {
      "inputs": [],
      "name": "SIGNATURE_SIZE",
      "outputs": [
        {
          "internalType": "uint256",
          "name": "",
          "type": "uint256"
        }
      ],
      "stateMutability": "view",
      "type": "function"
    },
    {
      "inputs": [],
      "name": "UNLOCK_TYPEHASH",
      "outputs": [
        {
          "internalType": "bytes32",
          "name": "",
          "type": "bytes32"
        }
      ],
      "stateMutability": "view",
      "type": "function"
    },
    {
      "inputs": [],
      "name": "VALIDATORS_SIZE_LIMIT",
      "outputs": [
        {
          "internalType": "uint256",
          "name": "",
          "type": "uint256"
        }
      ],
      "stateMutability": "view",
      "type": "function"
    },
    {
      "inputs": [],
      "name": "admin",
      "outputs": [
        {
          "internalType": "address",
          "name": "",
          "type": "address"
        }
      ],
      "stateMutability": "view",
      "type": "function"
    },
    {
      "inputs": [
        {
          "internalType": "address[]",
          "name": "validators",
          "type": "address[]"
        },
        {
          "internalType": "uint256",
          "name": "multisigThreshold",
          "type": "uint256"
        },
        {
          "internalType": "bytes",
          "name": "signatures",
          "type": "bytes"
        }
      ],
      "name": "changeValidators",
      "outputs": [],
      "stateMutability": "nonpayable",
      "type": "function"
    },
    {
      "inputs": [
        {
          "internalType": "bytes",
          "name": "recipientLockscript",
          "type": "bytes"
        },
        {
          "internalType": "bytes",
          "name": "sudtExtraData",
          "type": "bytes"
        }
      ],
      "name": "lockETH",
      "outputs": [],
      "stateMutability": "payable",
      "type": "function"
    },
    {
      "inputs": [
        {
          "internalType": "address",
          "name": "token",
          "type": "address"
        },
        {
          "internalType": "uint256",
          "name": "amount",
          "type": "uint256"
        },
        {
          "internalType": "bytes",
          "name": "recipientLockscript",
          "type": "bytes"
        },
        {
          "internalType": "bytes",
          "name": "sudtExtraData",
          "type": "bytes"
        }
      ],
      "name": "lockToken",
      "outputs": [],
      "stateMutability": "nonpayable",
      "type": "function"
    },
    {
      "inputs": [],
      "name": "multisigThreshold_",
      "outputs": [
        {
          "internalType": "uint256",
          "name": "",
          "type": "uint256"
        }
      ],
      "stateMutability": "view",
      "type": "function"
    },
    {
      "inputs": [
        {
          "components": [
            {
              "internalType": "address",
              "name": "token",
              "type": "address"
            },
            {
              "internalType": "address",
              "name": "recipient",
              "type": "address"
            },
            {
              "internalType": "uint256",
              "name": "amount",
              "type": "uint256"
            },
            {
              "internalType": "bytes",
              "name": "ckbTxHash",
              "type": "bytes"
            }
          ],
          "internalType": "struct ForceBridge.UnlockRecord[]",
          "name": "records",
          "type": "tuple[]"
        },
        {
          "internalType": "bytes",
          "name": "signatures",
          "type": "bytes"
        }
      ],
      "name": "unlock",
      "outputs": [],
      "stateMutability": "nonpayable",
      "type": "function"
    },
    {
      "inputs": [
        {
          "internalType": "bytes32",
          "name": "msgHash",
          "type": "bytes32"
        },
        {
          "internalType": "bytes",
          "name": "signatures",
          "type": "bytes"
        },
        {
          "internalType": "uint256",
          "name": "threshold",
          "type": "uint256"
        }
      ],
      "name": "validatorsApprove",
      "outputs": [],
      "stateMutability": "view",
      "type": "function"
    }
  ],
  "bytecode": "0x60806040523480156200001157600080fd5b5060405162001b7738038062001b77833981016040819052620000349162000256565b604080518082018252600c81526b466f7263652042726964676560a01b602091820152815180830190925260018252603160f81b9101527f710a8ed36eae46ded8818e1199a40714204a74b9b1f4e89b3a22651c1d11cbd760058190557fc89efdaa54c0f20c7adf612882df0950f5a951637e0307cdcb4c672f298b8bc660068190557f8b73c3c69bb8fe3d512ecc4cf759cc79239f7b179b0ffacaa9a75d522b39400f620000e26200016f565b600455620000f281848462000173565b6003556007819055845160141015620001285760405162461bcd60e51b81526004016200011f9062000358565b60405180910390fd5b84516200013d906002906020880190620001b8565b508451841115620001625760405162461bcd60e51b81526004016200011f906200039e565b50505060015550620003eb565b4690565b6000838383620001826200016f565b30604051602001620001999594939291906200032c565b6040516020818303038152906040528051906020012090509392505050565b82805482825590600052602060002090810192821562000210579160200282015b828111156200021057825182546001600160a01b0319166001600160a01b03909116178255602090920191600190910190620001d9565b506200021e92915062000222565b5090565b5b808211156200021e576000815560010162000223565b80516001600160a01b03811681146200025157600080fd5b919050565b6000806040838503121562000269578182fd5b82516001600160401b038082111562000280578384fd5b818501915085601f83011262000294578384fd5b8151602082821115620002ab57620002ab620003d5565b80820260405182828201018181108682111715620002cd57620002cd620003d5565b604052838152828101945085830182870184018b1015620002ec578889fd5b8896505b848710156200031957620003048162000239565b865260019690960195948301948301620002f0565b5097909101519698969750505050505050565b9485526020850193909352604084019190915260608301526001600160a01b0316608082015260a00190565b60208082526026908201527f6e756d626572206f662076616c696461746f7273206578636565647320746865604082015265081b1a5b5a5d60d21b606082015260800190565b60208082526019908201527f696e76616c6964206d756c74697369675468726573686f6c6400000000000000604082015260600190565b634e487b7160e01b600052604160045260246000fd5b61177c80620003fb6000396000f3fe6080604052600436106100c25760003560e01c80638c8ca33c1161007f578063a6c0343711610059578063a6c03437146101c8578063ea3cbb42146101dd578063f851a440146101fd578063fd4e17aa1461021f576100c2565b80638c8ca33c1461018057806397745eed14610195578063a406ad9a146101b5576100c2565b8063052b9e5c146100c75780632187e8f9146100e95780632da5351c14610114578063308ff0c9146101365780633644e5151461014b5780636740f04e14610160575b600080fd5b3480156100d357600080fd5b506100e76100e2366004610d9d565b610234565b005b3480156100f557600080fd5b506100fe61029e565b60405161010b9190611302565b60405180910390f35b34801561012057600080fd5b506101296102c6565b60405161010b919061115c565b34801561014257600080fd5b506101296102cb565b34801561015757600080fd5b506101296102d0565b34801561016c57600080fd5b506100e761017b366004610ef0565b6102e0565b34801561018c57600080fd5b5061012961052c565b3480156101a157600080fd5b506100e76101b0366004610e18565b610550565b6100e76101c336600461101d565b610643565b3480156101d457600080fd5b50610129610688565b3480156101e957600080fd5b506100e76101f8366004610fcf565b61068e565b34801561020957600080fd5b506102126108c2565b60405161010b919061110b565b34801561022b57600080fd5b506101296108d1565b6102496001600160a01b0385163330866108f5565b336001600160a01b0316846001600160a01b03167f6aee94645d3f2b304035eced96277957513be5777c155afe6abb6c2285db7ad385858560405161029093929190611591565b60405180910390a350505050565b6040518060400160405280600c81526020016b466f7263652042726964676560a01b81525081565b601481565b604181565b60006102da610953565b90505b90565b60006102ea610953565b60405161031f907ff1c18f82536658c0cb1a208d4a52b9915dc9e75640ed0daf3a6be45d02ca5c9f90889088906020016111c4565b604051602081830303815290604052805190602001206040516020016103469291906110f0565b6040516020818303038152906040528051906020012090506103a28184848080601f01602080910402602001604051908101604052809392919081815260200183838082843760009201919091525050600154915061068e9050565b60005b8481101561052457368686838181106103ce57634e487b7160e01b600052603260045260246000fd5b90506020028101906103e09190611612565b905060408101356103f15750610512565b60006104006020830183610d83565b6001600160a01b031614156104615761041f6040820160208301610d83565b6001600160a01b03166108fc82604001359081150290604051600060405180830381858888f1935050505015801561045b573d6000803e3d6000fd5b50610496565b6104966104746040830160208401610d83565b60408301356104866020850185610d83565b6001600160a01b03169190610987565b336104a76040830160208401610d83565b6001600160a01b03166104bd6020840184610d83565b6001600160a01b03167fa68ce84c815a939744a011df05adcf79b74994aada52c5810979c254042f553d60408501356104f960608701876115c6565b6040516105089392919061156e565b60405180910390a4505b8061051c816116d5565b9150506103a5565b505050505050565b7ff1c18f82536658c0cb1a208d4a52b9915dc9e75640ed0daf3a6be45d02ca5c9f81565b60148351111561057b5760405162461bcd60e51b815260040161057290611439565b60405180910390fd5b825182111561059c5760405162461bcd60e51b815260040161057290611500565b60006105a6610953565b6040516105db907fd2cedd075bf1780178b261ac9c9000261e7fd88d66f6309124bddf24f5d953f89087908790602001611165565b604051602081830303815290604052805190602001206040516020016106029291906110f0565b604051602081830303815290604052805190602001209050610627818360015461068e565b835161063a906002906020870190610c87565b50505060015550565b60405133906000907f6aee94645d3f2b304035eced96277957513be5777c155afe6abb6c2285db7ad39061067c90349087908790611591565b60405180910390a35050565b60015481565b6041825161069c91906116f0565b156106b95760405162461bcd60e51b81526004016105729061140d565b6000604183516106c99190611676565b9050818110156106eb5760405162461bcd60e51b8152600401610572906113bd565b600080600080600080600060028054905067ffffffffffffffff81111561072257634e487b7160e01b600052604160045260246000fd5b60405190808252806020026020018201604052801561074b578160200160208202803683370190505b50905060005b88871015610893576107638b886109a6565b9197509550935086610774816116d5565b97505060018c8787876040516000815260200160405260405161079a94939291906112e4565b6020604051602081039080840390855afa1580156107bc573d6000803e3d6000fd5b5050604051601f1901519350506001600160a01b0383166107ef5760405162461bcd60e51b81526004016105729061134c565b6107f883610a24565b60025490915081101580610830575081818151811061082757634e487b7160e01b600052603260045260246000fd5b60200260200101515b1561083a57610751565b600182828151811061085c57634e487b7160e01b600052603260045260246000fd5b9115156020928302919091019091015287610876816116d5565b98505089881061088e575050505050505050506108bd565b610751565b898810156108b35760405162461bcd60e51b815260040161057290611537565b5050505050505050505b505050565b6000546001600160a01b031681565b7fd2cedd075bf1780178b261ac9c9000261e7fd88d66f6309124bddf24f5d953f881565b61094d846323b872dd60e01b8585856040516024016109169392919061111f565b60408051601f198184030181529190526020810180516001600160e01b03166001600160e01b031990931692909217909152610a9c565b50505050565b6000600454610960610b2b565b141561096f57506003546102dd565b610980600754600554600654610b2f565b90506102dd565b6108bd8363a9059cbb60e01b8484604051602401610916929190611143565b60008080806109b685604161168a565b8681016020810151604082015160419092015160ff169650945092509050601b8410156109eb576109e8601b85611651565b93505b8360ff16601b1480610a0057508360ff16601c145b610a1c5760405162461bcd60e51b815260040161057290611315565b509250925092565b6000805b600254811015610a9157826001600160a01b031660028281548110610a5d57634e487b7160e01b600052603260045260246000fd5b6000918252602090912001546001600160a01b03161415610a7f579050610a97565b80610a89816116d5565b915050610a28565b50506002545b919050565b6000610af1826040518060400160405280602081526020017f5361666545524332303a206c6f772d6c6576656c2063616c6c206661696c6564815250856001600160a01b0316610b719092919063ffffffff16565b8051909150156108bd5780806020019051810190610b0f9190610faf565b6108bd5760405162461bcd60e51b8152600401610572906114b6565b4690565b6000838383610b3c610b2b565b30604051602001610b519594939291906112b8565b6040516020818303038152906040528051906020012090505b9392505050565b6060610b808484600085610b88565b949350505050565b606082471015610baa5760405162461bcd60e51b815260040161057290611377565b610bb385610c48565b610bcf5760405162461bcd60e51b81526004016105729061147f565b600080866001600160a01b03168587604051610beb91906110d4565b60006040518083038185875af1925050503d8060008114610c28576040519150601f19603f3d011682016040523d82523d6000602084013e610c2d565b606091505b5091509150610c3d828286610c4e565b979650505050505050565b3b151590565b60608315610c5d575081610b6a565b825115610c6d5782518084602001fd5b8160405162461bcd60e51b81526004016105729190611302565b828054828255906000526020600020908101928215610cdc579160200282015b82811115610cdc57825182546001600160a01b0319166001600160a01b03909116178255602090920191600190910190610ca7565b50610ce8929150610cec565b5090565b5b80821115610ce85760008155600101610ced565b80356001600160a01b0381168114610a9757600080fd5b600082601f830112610d28578081fd5b813567ffffffffffffffff811115610d4257610d42611730565b610d55601f8201601f1916602001611627565b818152846020838601011115610d69578283fd5b816020850160208301379081016020019190915292915050565b600060208284031215610d94578081fd5b610b6a82610d01565b60008060008060808587031215610db2578283fd5b610dbb85610d01565b935060208501359250604085013567ffffffffffffffff80821115610dde578384fd5b610dea88838901610d18565b93506060870135915080821115610dff578283fd5b50610e0c87828801610d18565b91505092959194509250565b600080600060608486031215610e2c578283fd5b833567ffffffffffffffff80821115610e43578485fd5b818601915086601f830112610e56578485fd5b8135602082821115610e6a57610e6a611730565b808202610e78828201611627565b8381528281019086840183880185018d1015610e92578a8bfd5b8a97505b85881015610ebb57610ea781610d01565b835260019790970196918401918401610e96565b50985050508701359450506040860135915080821115610ed9578283fd5b50610ee686828701610d18565b9150509250925092565b60008060008060408587031215610f05578384fd5b843567ffffffffffffffff80821115610f1c578586fd5b818701915087601f830112610f2f578586fd5b813581811115610f3d578687fd5b602089818284028601011115610f51578788fd5b808401975081965080890135935082841115610f6b578586fd5b838901935089601f850112610f7e578586fd5b8335915082821115610f8e578586fd5b8981838601011115610f9e578586fd5b969995985091909501955093505050565b600060208284031215610fc0578081fd5b81518015158114610b6a578182fd5b600080600060608486031215610fe3578283fd5b83359250602084013567ffffffffffffffff811115611000578283fd5b61100c86828701610d18565b925050604084013590509250925092565b6000806040838503121561102f578182fd5b823567ffffffffffffffff80821115611046578384fd5b61105286838701610d18565b93506020850135915080821115611067578283fd5b5061107485828601610d18565b9150509250929050565b60008284528282602086013780602084860101526020601f19601f85011685010190509392505050565b600081518084526110c08160208601602086016116a9565b601f01601f19169290920160200192915050565b600082516110e68184602087016116a9565b9190910192915050565b61190160f01b81526002810192909252602282015260420190565b6001600160a01b0391909116815260200190565b6001600160a01b039384168152919092166020820152604081019190915260600190565b6001600160a01b03929092168252602082015260400190565b90815260200190565b60006060820185835260206060818501528186518084526080860191508288019350845b818110156111ae5784516001600160a01b031683529383019391830191600101611189565b5050809350505050826040830152949350505050565b83815260406020808301829052828201849052600091906060908185018682028601830188865b898110156112a857888303605f190184528135368c9003607e19018112611210578889fd5b8b0160806001600160a01b038061122684610d01565b16865280611235898501610d01565b168887015250888201358986015287820135601e19833603018112611258578a8bfd5b8201803567ffffffffffffffff811115611270578b8cfd5b80360384131561127e578b8cfd5b828a880152611292838801828b850161107e565b97890197965050509286019250506001016111eb565b50909a9950505050505050505050565b9485526020850193909352604084019190915260608301526001600160a01b0316608082015260a00190565b93845260ff9290921660208401526040830152606082015260800190565b600060208252610b6a60208301846110a8565b6020808252601f908201527f696e76616c69642076206f66207369676e617475726528722c20732c20762900604082015260600190565b602080825260119082015270696e76616c6964207369676e617475726560781b604082015260600190565b60208082526026908201527f416464726573733a20696e73756666696369656e742062616c616e636520666f6040820152651c8818d85b1b60d21b606082015260800190565b60208082526030908201527f6c656e677468206f66207369676e617475726573206d7573742067726561746560408201526f1c881d1a185b881d1a1c995cda1bdb1960821b606082015260800190565b602080825260129082015271696e76616c6964207369676e61747572657360701b604082015260600190565b60208082526026908201527f6e756d626572206f662076616c696461746f7273206578636565647320746865604082015265081b1a5b5a5d60d21b606082015260800190565b6020808252601d908201527f416464726573733a2063616c6c20746f206e6f6e2d636f6e7472616374000000604082015260600190565b6020808252602a908201527f5361666545524332303a204552433230206f7065726174696f6e20646964206e6040820152691bdd081cdd58d8d9595960b21b606082015260800190565b60208082526019908201527f696e76616c6964206d756c74697369675468726573686f6c6400000000000000604082015260600190565b60208082526017908201527f7369676e617475726573206e6f74207665726966696564000000000000000000604082015260600190565b60008482526040602083015261158860408301848661107e565b95945050505050565b6000848252606060208301526115aa60608301856110a8565b82810360408401526115bc81856110a8565b9695505050505050565b6000808335601e198436030181126115dc578283fd5b83018035915067ffffffffffffffff8211156115f6578283fd5b60200191503681900382131561160b57600080fd5b9250929050565b60008235607e198336030181126110e6578182fd5b60405181810167ffffffffffffffff8111828210171561164957611649611730565b604052919050565b600060ff821660ff84168060ff0382111561166e5761166e611704565b019392505050565b6000826116855761168561171a565b500490565b60008160001904831182151516156116a4576116a4611704565b500290565b60005b838110156116c45781810151838201526020016116ac565b8381111561094d5750506000910152565b60006000198214156116e9576116e9611704565b5060010190565b6000826116ff576116ff61171a565b500690565b634e487b7160e01b600052601160045260246000fd5b634e487b7160e01b600052601260045260246000fd5b634e487b7160e01b600052604160045260246000fdfea264697066735822122048d7f8964cada669ab02eb5b53c08e168966dd3cc714fff4d5caed583fa1f05d64736f6c63430008000033",
  "linkReferences": {},
  "deployedLinkReferences": {}
}