{
  "_format": "hh-sol-artifact-1",
  "contractName": "AssetManager",
  "sourceName": "contracts/AssetManager.sol",
  "abi": [
    {
      "anonymous": false,
      "inputs": [
        {
          "indexed": true,
          "internalType": "bytes32",
          "name": "assetId",
          "type": "bytes32"
        },
        {
          "indexed": true,
          "internalType": "address",
          "name": "token",
          "type": "address"
        },
        {
          "indexed": true,
          "internalType": "address",
          "name": "from",
          "type": "address"
        },
        {
          "indexed": false,
          "internalType": "uint256",
          "name": "amount",
          "type": "uint256"
        },
        {
          "indexed": false,
          "internalType": "uint256",
          "name": "fee",
          "type": "uint256"
        },
        {
          "indexed": false,
          "internalType": "bytes",
          "name": "recipient",
          "type": "bytes"
        },
        {
          "indexed": false,
          "internalType": "bytes",
          "name": "extraData",
          "type": "bytes"
        }
      ],
      "name": "Burn",
      "type": "event"
    },
    {
      "anonymous": false,
      "inputs": [
        {
          "indexed": true,
          "internalType": "bytes32",
          "name": "assetId",
          "type": "bytes32"
        },
        {
          "indexed": true,
          "internalType": "address",
          "name": "token",
          "type": "address"
        },
        {
          "indexed": true,
          "internalType": "address",
          "name": "to",
          "type": "address"
        },
        {
          "indexed": false,
          "internalType": "uint256",
          "name": "amount",
          "type": "uint256"
        },
        {
          "indexed": false,
          "internalType": "bytes",
          "name": "lockId",
          "type": "bytes"
        }
      ],
      "name": "Mint",
      "type": "event"
    },
    {
      "anonymous": false,
      "inputs": [
        {
          "indexed": true,
          "internalType": "address",
          "name": "previousOwner",
          "type": "address"
        },
        {
          "indexed": true,
          "internalType": "address",
          "name": "newOwner",
          "type": "address"
        }
      ],
      "name": "OwnershipTransferred",
      "type": "event"
    },
    {
      "inputs": [
        {
          "internalType": "address",
          "name": "token",
          "type": "address"
        },
        {
          "internalType": "bytes32",
          "name": "assetId",
          "type": "bytes32"
        }
      ],
      "name": "addAsset",
      "outputs": [],
      "stateMutability": "nonpayable",
      "type": "function"
    },
    {
      "inputs": [
        {
          "internalType": "bytes32",
          "name": "",
          "type": "bytes32"
        }
      ],
      "name": "assetIdToTokenMap",
      "outputs": [
        {
          "internalType": "address",
          "name": "",
          "type": "address"
        }
      ],
      "stateMutability": "view",
      "type": "function"
    },
    {
      "inputs": [
        {
          "internalType": "address",
          "name": "token",
          "type": "address"
        },
        {
          "internalType": "uint256",
          "name": "amount",
          "type": "uint256"
        },
        {
          "internalType": "bytes",
          "name": "recipient",
          "type": "bytes"
        },
        {
          "internalType": "bytes",
          "name": "extraData",
          "type": "bytes"
        }
      ],
      "name": "burn",
      "outputs": [],
      "stateMutability": "payable",
      "type": "function"
    },
    {
      "inputs": [
        {
          "components": [
            {
              "internalType": "bytes32",
              "name": "assetId",
              "type": "bytes32"
            },
            {
              "internalType": "address",
              "name": "to",
              "type": "address"
            },
            {
              "internalType": "uint256",
              "name": "amount",
              "type": "uint256"
            },
            {
              "internalType": "bytes",
              "name": "lockId",
              "type": "bytes"
            }
          ],
          "internalType": "struct AssetManager.MintRecord[]",
          "name": "records",
          "type": "tuple[]"
        }
      ],
      "name": "mint",
      "outputs": [],
      "stateMutability": "nonpayable",
      "type": "function"
    },
    {
      "inputs": [],
      "name": "owner",
      "outputs": [
        {
          "internalType": "address",
          "name": "",
          "type": "address"
        }
      ],
      "stateMutability": "view",
      "type": "function"
    },
    {
      "inputs": [
        {
          "internalType": "address",
          "name": "token",
          "type": "address"
        },
        {
          "internalType": "bytes32",
          "name": "assetId",
          "type": "bytes32"
        }
      ],
      "name": "removeAsset",
      "outputs": [],
      "stateMutability": "nonpayable",
      "type": "function"
    },
    {
      "inputs": [],
      "name": "renounceOwnership",
      "outputs": [],
      "stateMutability": "nonpayable",
      "type": "function"
    },
    {
      "inputs": [
        {
          "internalType": "address",
          "name": "",
          "type": "address"
        }
      ],
      "name": "tokenToAssetIdMap",
      "outputs": [
        {
          "internalType": "bytes32",
          "name": "",
          "type": "bytes32"
        }
      ],
      "stateMutability": "view",
      "type": "function"
    },
    {
      "inputs": [
        {
          "internalType": "address",
          "name": "newOwner",
          "type": "address"
        }
      ],
      "name": "transferOwnership",
      "outputs": [],
      "stateMutability": "nonpayable",
      "type": "function"
    }
  ],
  "bytecode": "0x608060405234801561001057600080fd5b5061002161001c61002a565b61002e565b6001805561007e565b3390565b600080546001600160a01b038381166001600160a01b0319831681178455604051919092169283917f8be0079c531659141344cd1fd0a4f28419497f9722a3daafe3b4186f6b6457e09190a35050565b610db28061008d6000396000f3fe6080604052600436106100865760003560e01c80638da5cb5b116100595780638da5cb5b1461010b578063af9ac23914610120578063ce36821914610140578063f2fde38b14610160578063f3fd58cb1461018057610086565b80630ba077501461008b578063190a6aa9146100ad57806370f7771b146100c0578063715018a6146100f6575b600080fd5b34801561009757600080fd5b506100ab6100a63660046109a6565b6101ad565b005b6100ab6100bb3660046109cf565b610277565b3480156100cc57600080fd5b506100e06100db366004610ac5565b610434565b6040516100ed9190610b0a565b60405180910390f35b34801561010257600080fd5b506100ab61044f565b34801561011757600080fd5b506100e061049a565b34801561012c57600080fd5b506100ab61013b366004610a56565b6104a9565b34801561014c57600080fd5b506100ab61015b3660046109a6565b61078b565b34801561016c57600080fd5b506100ab61017b366004610985565b61084b565b34801561018c57600080fd5b506101a061019b366004610985565b6108bc565b6040516100ed9190610b37565b6101b56108ce565b6001600160a01b03166101c661049a565b6001600160a01b0316146101f55760405162461bcd60e51b81526004016101ec90610bf9565b60405180910390fd5b6001600160a01b0382166000908152600260205260409020541561021857600080fd5b6000818152600360205260409020546001600160a01b03161561023a57600080fd5b6001600160a01b039091166000818152600260209081526040808320859055938252600390529190912080546001600160a01b0319169091179055565b6002600154141561029a5760405162461bcd60e51b81526004016101ec90610c57565b600260018190556001600160a01b03871660009081526020919091526040902054806102d85760405162461bcd60e51b81526004016101ec90610b40565b34156103635760006102e861049a565b6001600160a01b0316346040516102fe90610b07565b60006040518083038185875af1925050503d806000811461033b576040519150601f19603f3d011682016040523d82523d6000602084013e610340565b606091505b50509050806103615760405162461bcd60e51b81526004016101ec90610bb3565b505b866001600160a01b0316639dc29fac61037a6108ce565b886040518363ffffffff1660e01b8152600401610398929190610b1e565b600060405180830381600087803b1580156103b257600080fd5b505af11580156103c6573d6000803e3d6000fd5b505050506103d26108ce565b6001600160a01b0316876001600160a01b0316827f5abbca01a2bd4a3af16c25efcce0b33f9dbfdcfb738fc0555fc7cf0903be57da89348a8a8a8a60405161041f96959493929190610cb1565b60405180910390a45050600180555050505050565b6003602052600090815260409020546001600160a01b031681565b6104576108ce565b6001600160a01b031661046861049a565b6001600160a01b03161461048e5760405162461bcd60e51b81526004016101ec90610bf9565b61049860006108d2565b565b6000546001600160a01b031690565b6104b16108ce565b6001600160a01b03166104c261049a565b6001600160a01b0316146104e85760405162461bcd60e51b81526004016101ec90610bf9565b60005b818110156107865760006003600085858581811061051957634e487b7160e01b600052603260045260246000fd5b905060200281019061052b9190610d36565b3581526020810191909152604001600020546001600160a01b03169050806105655760405162461bcd60e51b81526004016101ec90610c2e565b806001600160a01b03166340c10f1985858581811061059457634e487b7160e01b600052603260045260246000fd5b90506020028101906105a69190610d36565b6105b7906040810190602001610985565b8686868181106105d757634e487b7160e01b600052603260045260246000fd5b90506020028101906105e99190610d36565b604001356040518363ffffffff1660e01b815260040161060a929190610b1e565b600060405180830381600087803b15801561062457600080fd5b505af1158015610638573d6000803e3d6000fd5b5050505083838381811061065c57634e487b7160e01b600052603260045260246000fd5b905060200281019061066e9190610d36565b61067f906040810190602001610985565b6001600160a01b0316816001600160a01b03168585858181106106b257634e487b7160e01b600052603260045260246000fd5b90506020028101906106c49190610d36565b357f035b64d268aa7146d2a1e40128bf1be6d5b5410ecce93d79b753d821897d34b487878781811061070657634e487b7160e01b600052603260045260246000fd5b90506020028101906107189190610d36565b6040013588888881811061073c57634e487b7160e01b600052603260045260246000fd5b905060200281019061074e9190610d36565b61075c906060810190610cf1565b60405161076b93929190610c8e565b60405180910390a4508061077e81610d55565b9150506104eb565b505050565b6107936108ce565b6001600160a01b03166107a461049a565b6001600160a01b0316146107ca5760405162461bcd60e51b81526004016101ec90610bf9565b6001600160a01b03821660009081526002602052604090205481146107ee57600080fd5b6000818152600360205260409020546001600160a01b0383811691161461081457600080fd5b6001600160a01b039091166000908152600260209081526040808320839055928252600390522080546001600160a01b0319169055565b6108536108ce565b6001600160a01b031661086461049a565b6001600160a01b03161461088a5760405162461bcd60e51b81526004016101ec90610bf9565b6001600160a01b0381166108b05760405162461bcd60e51b81526004016101ec90610b6d565b6108b9816108d2565b50565b60026020526000908152604090205481565b3390565b600080546001600160a01b038381166001600160a01b0319831681178455604051919092169283917f8be0079c531659141344cd1fd0a4f28419497f9722a3daafe3b4186f6b6457e09190a35050565b80356001600160a01b038116811461093957600080fd5b919050565b60008083601f84011261094f578182fd5b50813567ffffffffffffffff811115610966578182fd5b60208301915083602082850101111561097e57600080fd5b9250929050565b600060208284031215610996578081fd5b61099f82610922565b9392505050565b600080604083850312156109b8578081fd5b6109c183610922565b946020939093013593505050565b600080600080600080608087890312156109e7578182fd5b6109f087610922565b955060208701359450604087013567ffffffffffffffff80821115610a13578384fd5b610a1f8a838b0161093e565b90965094506060890135915080821115610a37578384fd5b50610a4489828a0161093e565b979a9699509497509295939492505050565b60008060208385031215610a68578182fd5b823567ffffffffffffffff80821115610a7f578384fd5b818501915085601f830112610a92578384fd5b813581811115610aa0578485fd5b8660208083028501011115610ab3578485fd5b60209290920196919550909350505050565b600060208284031215610ad6578081fd5b5035919050565b60008284528282602086013780602084860101526020601f19601f85011685010190509392505050565b90565b6001600160a01b0391909116815260200190565b6001600160a01b03929092168252602082015260400190565b90815260200190565b6020808252601390820152721d1bdad95b881b9bdd081cdd5c1c1bdc9d1959606a1b604082015260600190565b60208082526026908201527f4f776e61626c653a206e6577206f776e657220697320746865207a65726f206160408201526564647265737360d01b606082015260800190565b60208082526026908201527f666565207061796d656e7420746f2062726964676520636f6d6d69747465652060408201526519985a5b195960d21b606082015260800190565b6020808252818101527f4f776e61626c653a2063616c6c6572206973206e6f7420746865206f776e6572604082015260600190565b6020808252600f908201526e105cdcd95d081b9bdd08199bdd5b99608a1b604082015260600190565b6020808252601f908201527f5265656e7472616e637947756172643a207265656e7472616e742063616c6c00604082015260600190565b600084825260406020830152610ca8604083018486610add565b95945050505050565b600087825286602083015260806040830152610cd1608083018688610add565b8281036060840152610ce4818587610add565b9998505050505050505050565b6000808335601e19843603018112610d07578283fd5b83018035915067ffffffffffffffff821115610d21578283fd5b60200191503681900382131561097e57600080fd5b60008235607e19833603018112610d4b578182fd5b9190910192915050565b6000600019821415610d7557634e487b7160e01b81526011600452602481fd5b506001019056fea26469706673582212205e6188db8ff8c27793e63c65e07cc0655d9d9873a61153181d0dfdce9ab8fcec64736f6c63430008000033",
  "linkReferences": {},
  "deployedLinkReferences": {}
}