{
  "_format": "hh-sol-artifact-1",
  "contractName": "GnosisSafe_SV1_3_0",
  "sourceName": "contracts/test/gnosis.sol",
  "abi": [
    {
      "anonymous": false,
      "inputs": [
        {
          "indexed": false,
          "internalType": "address",
          "name": "owner",
          "type": "address"
        }
      ],
      "name": "AddedOwner",
      "type": "event"
    },
    {
      "anonymous": false,
      "inputs": [
        {
          "indexed": true,
          "internalType": "bytes32",
          "name": "approvedHash",
          "type": "bytes32"
        },
        {
          "indexed": true,
          "internalType": "address",
          "name": "owner",
          "type": "address"
        }
      ],
      "name": "ApproveHash",
      "type": "event"
    },
    {
      "anonymous": false,
      "inputs": [
        {
          "indexed": false,
          "internalType": "address",
          "name": "handler",
          "type": "address"
        }
      ],
      "name": "ChangedFallbackHandler",
      "type": "event"
    },
    {
      "anonymous": false,
      "inputs": [
        {
          "indexed": false,
          "internalType": "address",
          "name": "guard",
          "type": "address"
        }
      ],
      "name": "ChangedGuard",
      "type": "event"
    },
    {
      "anonymous": false,
      "inputs": [
        {
          "indexed": false,
          "internalType": "uint256",
          "name": "threshold",
          "type": "uint256"
        }
      ],
      "name": "ChangedThreshold",
      "type": "event"
    },
    {
      "anonymous": false,
      "inputs": [
        {
          "indexed": false,
          "internalType": "address",
          "name": "module",
          "type": "address"
        }
      ],
      "name": "DisabledModule",
      "type": "event"
    },
    {
      "anonymous": false,
      "inputs": [
        {
          "indexed": false,
          "internalType": "address",
          "name": "module",
          "type": "address"
        }
      ],
      "name": "EnabledModule",
      "type": "event"
    },
    {
      "anonymous": false,
      "inputs": [
        {
          "indexed": false,
          "internalType": "bytes32",
          "name": "txHash",
          "type": "bytes32"
        },
        {
          "indexed": false,
          "internalType": "uint256",
          "name": "payment",
          "type": "uint256"
        }
      ],
      "name": "ExecutionFailure",
      "type": "event"
    },
    {
      "anonymous": false,
      "inputs": [
        {
          "indexed": true,
          "internalType": "address",
          "name": "module",
          "type": "address"
        }
      ],
      "name": "ExecutionFromModuleFailure",
      "type": "event"
    },
    {
      "anonymous": false,
      "inputs": [
        {
          "indexed": true,
          "internalType": "address",
          "name": "module",
          "type": "address"
        }
      ],
      "name": "ExecutionFromModuleSuccess",
      "type": "event"
    },
    {
      "anonymous": false,
      "inputs": [
        {
          "indexed": false,
          "internalType": "bytes32",
          "name": "txHash",
          "type": "bytes32"
        },
        {
          "indexed": false,
          "internalType": "uint256",
          "name": "payment",
          "type": "uint256"
        }
      ],
      "name": "ExecutionSuccess",
      "type": "event"
    },
    {
      "anonymous": false,
      "inputs": [
        {
          "indexed": false,
          "internalType": "address",
          "name": "owner",
          "type": "address"
        }
      ],
      "name": "RemovedOwner",
      "type": "event"
    },
    {
      "anonymous": false,
      "inputs": [
        {
          "indexed": true,
          "internalType": "address",
          "name": "sender",
          "type": "address"
        },
        {
          "indexed": false,
          "internalType": "uint256",
          "name": "value",
          "type": "uint256"
        }
      ],
      "name": "SafeReceived",
      "type": "event"
    },
    {
      "anonymous": false,
      "inputs": [
        {
          "indexed": true,
          "internalType": "address",
          "name": "initiator",
          "type": "address"
        },
        {
          "indexed": false,
          "internalType": "address[]",
          "name": "owners",
          "type": "address[]"
        },
        {
          "indexed": false,
          "internalType": "uint256",
          "name": "threshold",
          "type": "uint256"
        },
        {
          "indexed": false,
          "internalType": "address",
          "name": "initializer",
          "type": "address"
        },
        {
          "indexed": false,
          "internalType": "address",
          "name": "fallbackHandler",
          "type": "address"
        }
      ],
      "name": "SafeSetup",
      "type": "event"
    },
    {
      "anonymous": false,
      "inputs": [
        {
          "indexed": true,
          "internalType": "bytes32",
          "name": "msgHash",
          "type": "bytes32"
        }
      ],
      "name": "SignMsg",
      "type": "event"
    },
    {
      "stateMutability": "nonpayable",
      "type": "fallback"
    },
    {
      "inputs": [],
      "name": "VERSION",
      "outputs": [
        {
          "internalType": "string",
          "name": "",
          "type": "string"
        }
      ],
      "stateMutability": "view",
      "type": "function"
    },
    {
      "inputs": [
        {
          "internalType": "address",
          "name": "owner",
          "type": "address"
        },
        {
          "internalType": "uint256",
          "name": "_threshold",
          "type": "uint256"
        }
      ],
      "name": "addOwnerWithThreshold",
      "outputs": [],
      "stateMutability": "nonpayable",
      "type": "function"
    },
    {
      "inputs": [
        {
          "internalType": "bytes32",
          "name": "hashToApprove",
          "type": "bytes32"
        }
      ],
      "name": "approveHash",
      "outputs": [],
      "stateMutability": "nonpayable",
      "type": "function"
    },
    {
      "inputs": [
        {
          "internalType": "address",
          "name": "",
          "type": "address"
        },
        {
          "internalType": "bytes32",
          "name": "",
          "type": "bytes32"
        }
      ],
      "name": "approvedHashes",
      "outputs": [
        {
          "internalType": "uint256",
          "name": "",
          "type": "uint256"
        }
      ],
      "stateMutability": "view",
      "type": "function"
    },
    {
      "inputs": [
        {
          "internalType": "uint256",
          "name": "_threshold",
          "type": "uint256"
        }
      ],
      "name": "changeThreshold",
      "outputs": [],
      "stateMutability": "nonpayable",
      "type": "function"
    },
    {
      "inputs": [
        {
          "internalType": "bytes32",
          "name": "dataHash",
          "type": "bytes32"
        },
        {
          "internalType": "bytes",
          "name": "data",
          "type": "bytes"
        },
        {
          "internalType": "bytes",
          "name": "signatures",
          "type": "bytes"
        },
        {
          "internalType": "uint256",
          "name": "requiredSignatures",
          "type": "uint256"
        }
      ],
      "name": "checkNSignatures",
      "outputs": [],
      "stateMutability": "view",
      "type": "function"
    },
    {
      "inputs": [
        {
          "internalType": "bytes32",
          "name": "dataHash",
          "type": "bytes32"
        },
        {
          "internalType": "bytes",
          "name": "data",
          "type": "bytes"
        },
        {
          "internalType": "bytes",
          "name": "signatures",
          "type": "bytes"
        }
      ],
      "name": "checkSignatures",
      "outputs": [],
      "stateMutability": "view",
      "type": "function"
    },
    {
      "inputs": [
        {
          "internalType": "address",
          "name": "prevModule",
          "type": "address"
        },
        {
          "internalType": "address",
          "name": "module",
          "type": "address"
        }
      ],
      "name": "disableModule",
      "outputs": [],
      "stateMutability": "nonpayable",
      "type": "function"
    },
    {
      "inputs": [],
      "name": "domainSeparator",
      "outputs": [
        {
          "internalType": "bytes32",
          "name": "",
          "type": "bytes32"
        }
      ],
      "stateMutability": "view",
      "type": "function"
    },
    {
      "inputs": [
        {
          "internalType": "address",
          "name": "module",
          "type": "address"
        }
      ],
      "name": "enableModule",
      "outputs": [],
      "stateMutability": "nonpayable",
      "type": "function"
    },
    {
      "inputs": [
        {
          "internalType": "address",
          "name": "to",
          "type": "address"
        },
        {
          "internalType": "uint256",
          "name": "value",
          "type": "uint256"
        },
        {
          "internalType": "bytes",
          "name": "data",
          "type": "bytes"
        },
        {
          "internalType": "enum Enum.Operation",
          "name": "operation",
          "type": "uint8"
        },
        {
          "internalType": "uint256",
          "name": "safeTxGas",
          "type": "uint256"
        },
        {
          "internalType": "uint256",
          "name": "baseGas",
          "type": "uint256"
        },
        {
          "internalType": "uint256",
          "name": "gasPrice",
          "type": "uint256"
        },
        {
          "internalType": "address",
          "name": "gasToken",
          "type": "address"
        },
        {
          "internalType": "address",
          "name": "refundReceiver",
          "type": "address"
        },
        {
          "internalType": "uint256",
          "name": "_nonce",
          "type": "uint256"
        }
      ],
      "name": "encodeTransactionData",
      "outputs": [
        {
          "internalType": "bytes",
          "name": "",
          "type": "bytes"
        }
      ],
      "stateMutability": "view",
      "type": "function"
    },
    {
      "inputs": [
        {
          "internalType": "address",
          "name": "to",
          "type": "address"
        },
        {
          "internalType": "uint256",
          "name": "value",
          "type": "uint256"
        },
        {
          "internalType": "bytes",
          "name": "data",
          "type": "bytes"
        },
        {
          "internalType": "enum Enum.Operation",
          "name": "operation",
          "type": "uint8"
        },
        {
          "internalType": "uint256",
          "name": "safeTxGas",
          "type": "uint256"
        },
        {
          "internalType": "uint256",
          "name": "baseGas",
          "type": "uint256"
        },
        {
          "internalType": "uint256",
          "name": "gasPrice",
          "type": "uint256"
        },
        {
          "internalType": "address",
          "name": "gasToken",
          "type": "address"
        },
        {
          "internalType": "address payable",
          "name": "refundReceiver",
          "type": "address"
        },
        {
          "internalType": "bytes",
          "name": "signatures",
          "type": "bytes"
        }
      ],
      "name": "execTransaction",
      "outputs": [
        {
          "internalType": "bool",
          "name": "success",
          "type": "bool"
        }
      ],
      "stateMutability": "payable",
      "type": "function"
    },
    {
      "inputs": [
        {
          "internalType": "address",
          "name": "to",
          "type": "address"
        },
        {
          "internalType": "uint256",
          "name": "value",
          "type": "uint256"
        },
        {
          "internalType": "bytes",
          "name": "data",
          "type": "bytes"
        },
        {
          "internalType": "enum Enum.Operation",
          "name": "operation",
          "type": "uint8"
        }
      ],
      "name": "execTransactionFromModule",
      "outputs": [
        {
          "internalType": "bool",
          "name": "success",
          "type": "bool"
        }
      ],
      "stateMutability": "nonpayable",
      "type": "function"
    },
    {
      "inputs": [
        {
          "internalType": "address",
          "name": "to",
          "type": "address"
        },
        {
          "internalType": "uint256",
          "name": "value",
          "type": "uint256"
        },
        {
          "internalType": "bytes",
          "name": "data",
          "type": "bytes"
        },
        {
          "internalType": "enum Enum.Operation",
          "name": "operation",
          "type": "uint8"
        }
      ],
      "name": "execTransactionFromModuleReturnData",
      "outputs": [
        {
          "internalType": "bool",
          "name": "success",
          "type": "bool"
        },
        {
          "internalType": "bytes",
          "name": "returnData",
          "type": "bytes"
        }
      ],
      "stateMutability": "nonpayable",
      "type": "function"
    },
    {
      "inputs": [],
      "name": "getChainId",
      "outputs": [
        {
          "internalType": "uint256",
          "name": "",
          "type": "uint256"
        }
      ],
      "stateMutability": "view",
      "type": "function"
    },
    {
      "inputs": [
        {
          "internalType": "address",
          "name": "start",
          "type": "address"
        },
        {
          "internalType": "uint256",
          "name": "pageSize",
          "type": "uint256"
        }
      ],
      "name": "getModulesPaginated",
      "outputs": [
        {
          "internalType": "address[]",
          "name": "array",
          "type": "address[]"
        },
        {
          "internalType": "address",
          "name": "next",
          "type": "address"
        }
      ],
      "stateMutability": "view",
      "type": "function"
    },
    {
      "inputs": [],
      "name": "getOwners",
      "outputs": [
        {
          "internalType": "address[]",
          "name": "",
          "type": "address[]"
        }
      ],
      "stateMutability": "view",
      "type": "function"
    },
    {
      "inputs": [
        {
          "internalType": "uint256",
          "name": "offset",
          "type": "uint256"
        },
        {
          "internalType": "uint256",
          "name": "length",
          "type": "uint256"
        }
      ],
      "name": "getStorageAt",
      "outputs": [
        {
          "internalType": "bytes",
          "name": "",
          "type": "bytes"
        }
      ],
      "stateMutability": "view",
      "type": "function"
    },
    {
      "inputs": [],
      "name": "getThreshold",
      "outputs": [
        {
          "internalType": "uint256",
          "name": "",
          "type": "uint256"
        }
      ],
      "stateMutability": "view",
      "type": "function"
    },
    {
      "inputs": [
        {
          "internalType": "address",
          "name": "to",
          "type": "address"
        },
        {
          "internalType": "uint256",
          "name": "value",
          "type": "uint256"
        },
        {
          "internalType": "bytes",
          "name": "data",
          "type": "bytes"
        },
        {
          "internalType": "enum Enum.Operation",
          "name": "operation",
          "type": "uint8"
        },
        {
          "internalType": "uint256",
          "name": "safeTxGas",
          "type": "uint256"
        },
        {
          "internalType": "uint256",
          "name": "baseGas",
          "type": "uint256"
        },
        {
          "internalType": "uint256",
          "name": "gasPrice",
          "type": "uint256"
        },
        {
          "internalType": "address",
          "name": "gasToken",
          "type": "address"
        },
        {
          "internalType": "address",
          "name": "refundReceiver",
          "type": "address"
        },
        {
          "internalType": "uint256",
          "name": "_nonce",
          "type": "uint256"
        }
      ],
      "name": "getTransactionHash",
      "outputs": [
        {
          "internalType": "bytes32",
          "name": "",
          "type": "bytes32"
        }
      ],
      "stateMutability": "view",
      "type": "function"
    },
    {
      "inputs": [
        {
          "internalType": "address",
          "name": "module",
          "type": "address"
        }
      ],
      "name": "isModuleEnabled",
      "outputs": [
        {
          "internalType": "bool",
          "name": "",
          "type": "bool"
        }
      ],
      "stateMutability": "view",
      "type": "function"
    },
    {
      "inputs": [
        {
          "internalType": "address",
          "name": "owner",
          "type": "address"
        }
      ],
      "name": "isOwner",
      "outputs": [
        {
          "internalType": "bool",
          "name": "",
          "type": "bool"
        }
      ],
      "stateMutability": "view",
      "type": "function"
    },
    {
      "inputs": [],
      "name": "nonce",
      "outputs": [
        {
          "internalType": "uint256",
          "name": "",
          "type": "uint256"
        }
      ],
      "stateMutability": "view",
      "type": "function"
    },
    {
      "inputs": [
        {
          "internalType": "address",
          "name": "prevOwner",
          "type": "address"
        },
        {
          "internalType": "address",
          "name": "owner",
          "type": "address"
        },
        {
          "internalType": "uint256",
          "name": "_threshold",
          "type": "uint256"
        }
      ],
      "name": "removeOwner",
      "outputs": [],
      "stateMutability": "nonpayable",
      "type": "function"
    },
    {
      "inputs": [
        {
          "internalType": "address",
          "name": "to",
          "type": "address"
        },
        {
          "internalType": "uint256",
          "name": "value",
          "type": "uint256"
        },
        {
          "internalType": "bytes",
          "name": "data",
          "type": "bytes"
        },
        {
          "internalType": "enum Enum.Operation",
          "name": "operation",
          "type": "uint8"
        }
      ],
      "name": "requiredTxGas",
      "outputs": [
        {
          "internalType": "uint256",
          "name": "",
          "type": "uint256"
        }
      ],
      "stateMutability": "nonpayable",
      "type": "function"
    },
    {
      "inputs": [
        {
          "internalType": "address",
          "name": "handler",
          "type": "address"
        }
      ],
      "name": "setFallbackHandler",
      "outputs": [],
      "stateMutability": "nonpayable",
      "type": "function"
    },
    {
      "inputs": [
        {
          "internalType": "address",
          "name": "guard",
          "type": "address"
        }
      ],
      "name": "setGuard",
      "outputs": [],
      "stateMutability": "nonpayable",
      "type": "function"
    },
    {
      "inputs": [
        {
          "internalType": "address[]",
          "name": "_owners",
          "type": "address[]"
        },
        {
          "internalType": "uint256",
          "name": "_threshold",
          "type": "uint256"
        },
        {
          "internalType": "address",
          "name": "to",
          "type": "address"
        },
        {
          "internalType": "bytes",
          "name": "data",
          "type": "bytes"
        },
        {
          "internalType": "address",
          "name": "fallbackHandler",
          "type": "address"
        },
        {
          "internalType": "address",
          "name": "paymentToken",
          "type": "address"
        },
        {
          "internalType": "uint256",
          "name": "payment",
          "type": "uint256"
        },
        {
          "internalType": "address payable",
          "name": "paymentReceiver",
          "type": "address"
        }
      ],
      "name": "setup",
      "outputs": [],
      "stateMutability": "nonpayable",
      "type": "function"
    },
    {
      "inputs": [
        {
          "internalType": "bytes32",
          "name": "",
          "type": "bytes32"
        }
      ],
      "name": "signedMessages",
      "outputs": [
        {
          "internalType": "uint256",
          "name": "",
          "type": "uint256"
        }
      ],
      "stateMutability": "view",
      "type": "function"
    },
    {
      "inputs": [
        {
          "internalType": "address",
          "name": "targetContract",
          "type": "address"
        },
        {
          "internalType": "bytes",
          "name": "calldataPayload",
          "type": "bytes"
        }
      ],
      "name": "simulateAndRevert",
      "outputs": [],
      "stateMutability": "nonpayable",
      "type": "function"
    },
    {
      "inputs": [
        {
          "internalType": "address",
          "name": "prevOwner",
          "type": "address"
        },
        {
          "internalType": "address",
          "name": "oldOwner",
          "type": "address"
        },
        {
          "internalType": "address",
          "name": "newOwner",
          "type": "address"
        }
      ],
      "name": "swapOwner",
      "outputs": [],
      "stateMutability": "nonpayable",
      "type": "function"
    },
    {
      "stateMutability": "payable",
      "type": "receive"
    }
  ],
  "bytecode": "0x608060405234801561001057600080fd5b506001600455613143806100256000396000f3fe6080604052600436106101dc5760003560e01c8063affed0e011610102578063e19a9dd911610095578063f08a032311610064578063f08a03231461060c578063f698da251461062c578063f8dc5dd914610641578063ffa1ad741461066157610224565b8063e19a9dd914610597578063e318b52b146105b7578063e75235b8146105d7578063e86637db146105ec57610224565b8063cc2f8452116100d1578063cc2f845214610509578063d4d9bdcd14610537578063d8d11f7814610557578063e009cfde1461057757610224565b8063affed0e014610494578063b4faba09146104a9578063b63e800d146104c9578063c4ca3a9c146104e957610224565b80635624b25b1161017a5780636a761202116101495780636a7612021461041f5780637d83297414610432578063934f3a1114610452578063a0e67e2b1461047257610224565b80635624b25b146103925780635ae6bd37146103bf578063610b5925146103df578063694e80c3146103ff57610224565b80632f54bf6e116101b65780632f54bf6e146103025780633408e47014610322578063468721a7146103445780635229073f1461036457610224565b80630d582f131461028a57806312fb68e0146102ac5780632d9ad53d146102cc57610224565b3661022457336001600160a01b03167f3d0ce9bfc3ed7d6862dbb28b2dea94561fe714a1b4d019aa8af39730d1ad7c3d3460405161021a9190612a27565b60405180910390a2005b34801561023057600080fd5b507f6c9a6c4a39284e37ed1cf53d337577d14212a4870fb976a4366c693b939918d580548061025b57005b36600080373360601b365260008060143601600080855af190503d6000803e80610284573d6000fd5b503d6000f35b34801561029657600080fd5b506102aa6102a53660046123f7565b610676565b005b3480156102b857600080fd5b506102aa6102c7366004612845565b6107d1565b3480156102d857600080fd5b506102ec6102e7366004612319565b610b55565b6040516102f99190612bb8565b60405180910390f35b34801561030e57600080fd5b506102ec61031d366004612319565b610b92565b34801561032e57600080fd5b50610337610bca565b6040516102f99190612a27565b34801561035057600080fd5b506102ec61035f366004612670565b610bce565b34801561037057600080fd5b5061038461037f366004612670565b610c8d565b6040516102f9929190612bc3565b34801561039e57600080fd5b506103b26103ad3660046128de565b610cc3565b6040516102f99190612ca8565b3480156103cb57600080fd5b506103376103da3660046127c4565b610d58565b3480156103eb57600080fd5b506102aa6103fa366004612319565b610d6a565b34801561040b57600080fd5b506102aa61041a3660046127c4565b610e82565b6102ec61042d3660046124dd565b610f02565b34801561043e57600080fd5b5061033761044d3660046123f7565b6111f9565b34801561045e57600080fd5b506102aa61046d3660046127dc565b611216565b34801561047e57600080fd5b50610487611248565b6040516102f99190612b7b565b3480156104a057600080fd5b50610337611354565b3480156104b557600080fd5b506102aa6104c4366004612422565b61135a565b3480156104d557600080fd5b506102aa6104e43660046126d7565b61137d565b3480156104f557600080fd5b5061033761050436600461246f565b61147f565b34801561051557600080fd5b506105296105243660046123f7565b611517565b6040516102f9929190612b8e565b34801561054357600080fd5b506102aa6105523660046127c4565b61162c565b34801561056357600080fd5b506103376105723660046125b2565b6116a9565b34801561058357600080fd5b506102aa610592366004612335565b6116d6565b3480156105a357600080fd5b506102aa6105b2366004612319565b6117d7565b3480156105c357600080fd5b506102aa6105d236600461236d565b611833565b3480156105e357600080fd5b50610337611a08565b3480156105f857600080fd5b506103b26106073660046125b2565b611a0e565b34801561061857600080fd5b506102aa610627366004612319565b611acf565b34801561063857600080fd5b50610337611b0f565b34801561064d57600080fd5b506102aa61065c3660046123b7565b611b68565b34801561066d57600080fd5b506103b2611cbe565b61067e611cdf565b6001600160a01b038216158015906106a057506001600160a01b038216600114155b80156106b557506001600160a01b0382163014155b6106da5760405162461bcd60e51b81526004016106d190612db9565b60405180910390fd5b6001600160a01b0382811660009081526002602052604090205416156107125760405162461bcd60e51b81526004016106d190612f4c565b60026020527fe90b7bceb6e7df5418fb78d8ee546e97c83a08bbccc01a0644d599ccd2a7c2e080546001600160a01b038481166000818152604081208054939094166001600160a01b03199384161790935560018352835490911617909155600380549161077f836130ae565b91905055507f9465fa0c962cc76958e6373a993326400c1c94f8be2fe3a952adfa7f60b2ea26826040516107b39190612a30565b60405180910390a180600454146107cd576107cd81610e82565b5050565b6107dc816041611d00565b825110156107fc5760405162461bcd60e51b81526004016106d190612fc8565b6000808060008060005b86811015610b49576108188882611d39565b9195509350915060ff8416610976579193508391610837876041611d00565b8210156108565760405162461bcd60e51b81526004016106d190612f8a565b8751610863836020611d57565b11156108815760405162461bcd60e51b81526004016106d190612d7b565b6020828901810151895190916108a490839061089e908790611d57565b90611d57565b11156108c25760405162461bcd60e51b81526004016106d190612ce0565b6040516320c13b0b60e01b8082528a8501602001916001600160a01b038916906320c13b0b906108f8908f908690600401612cbb565b60206040518083038186803b15801561091057600080fd5b505afa158015610924573d6000803e3d6000fd5b505050506040513d601f19601f8201168201806040525081019061094891906128b6565b6001600160e01b0319161461096f5760405162461bcd60e51b81526004016106d190612d1e565b5050610ac7565b8360ff16600114156109e1579193508391336001600160a01b03841614806109c057506001600160a01b03851660009081526008602090815260408083208d845290915290205415155b6109dc5760405162461bcd60e51b81526004016106d190612f2d565b610ac7565b601e8460ff161115610a755760018a604051602001610a0091906129f6565b60405160208183030381529060405280519060200120600486610a239190613074565b858560405160008152602001604052604051610a429493929190612c8a565b6020604051602081039080840390855afa158015610a64573d6000803e3d6000fd5b505050602060405103519450610ac7565b60018a85858560405160008152602001604052604051610a989493929190612c8a565b6020604051602081039080840390855afa158015610aba573d6000803e3d6000fd5b5050506020604051035194505b856001600160a01b0316856001600160a01b0316118015610b0157506001600160a01b038581166000908152600260205260409020541615155b8015610b1757506001600160a01b038516600114155b610b335760405162461bcd60e51b81526004016106d190612cff565b8495508080610b41906130ae565b915050610806565b50505050505050505050565b600060016001600160a01b03831614801590610b8a57506001600160a01b038281166000908152600160205260409020541615155b90505b919050565b60006001600160a01b038216600114801590610b8a5750506001600160a01b0390811660009081526002602052604090205416151590565b4690565b600033600114801590610bf85750336000908152600160205260409020546001600160a01b031615155b610c145760405162461bcd60e51b81526004016106d190612eef565b610c21858585855a611d73565b90508015610c595760405133907f6895c13664aa4f67288b25d7a21d7aaa34916e355fb9b6fae0a139a9085becb890600090a2610c85565b60405133907facd2c8702804128fdb0db2bb49f6d127dd0181c13fd45dbfe16de0930e2bd37590600090a25b949350505050565b60006060610c9d86868686610bce565b915060405160203d0181016040523d81523d6000602083013e8091505094509492505050565b60606000610cd283602061303e565b6001600160401b03811115610cf757634e487b7160e01b600052604160045260246000fd5b6040519080825280601f01601f191660200182016040528015610d21576020820181803683370190505b50905060005b83811015610d4e578481015460208083028401015280610d46816130ae565b915050610d27565b5090505b92915050565b60076020526000908152604090205481565b610d72611cdf565b6001600160a01b03811615801590610d9457506001600160a01b038116600114155b610db05760405162461bcd60e51b81526004016106d190612fa9565b6001600160a01b038181166000908152600160205260409020541615610de85760405162461bcd60e51b81526004016106d190612f6b565b600160208190527fcc69885fda6bcc1a4ace058b4a62bf5e179ea78fd58a1ccd71c22cc9b688792f80546001600160a01b03848116600081815260408082208054949095166001600160a01b031994851617909455949094528254169092179055517fecdf3a3effea5783a3c4c2140e677577666428d44ed9d474a0b3a4c9943f844090610e77908390612a30565b60405180910390a150565b610e8a611cdf565b600354811115610eac5760405162461bcd60e51b81526004016106d190612d5c565b6001811015610ecd5760405162461bcd60e51b81526004016106d190612ed0565b60048190556040517f610f7ff2b304ae8903c3de74c60c6ab1f7d6226b3f52c5161905bb5ad4039c9390610e77908390612a27565b6000806000610f1c8e8e8e8e8e8e8e8e8e8e600554611a0e565b600580549192506000610f2e836130ae565b9091555050805160208201209150610f47828286611216565b506000610f52611dc9565b90506001600160a01b03811615610fd857806001600160a01b03166375f0bb528f8f8f8f8f8f8f8f8f8f8f336040518d63ffffffff1660e01b8152600401610fa59c9b9a99989796959493929190612a5d565b600060405180830381600087803b158015610fbf57600080fd5b505af1158015610fd3573d6000803e3d6000fd5b505050505b611004610fe78a6109c4613006565b603f610ff48c604061303e565b610ffe919061301e565b90611dee565b611010906101f4613006565b5a101561102f5760405162461bcd60e51b81526004016106d190612eb1565b60005a90506110a08f8f8f8f8080601f016020809104026020016040519081016040528093929190818152602001838380828437600081840152601f19601f820116905080830192505050505050508e8c60001461108d578e61109b565b6109c45a61109b919061305d565b611d73565b93506110ad5a8290611e05565b905083806110ba57508915155b806110c457508715155b6110e05760405162461bcd60e51b81526004016106d190612e92565b600088156110f8576110f5828b8b8b8b611e20565b90505b841561113c577f442e715f626346e8c54381002da614f62bee8d27386535b2521ec8540898556e848260405161112f929190612c5d565b60405180910390a1611176565b7f23428b18acfb3ea64b08dc0c1d296ea9c09702c09083ca5272e64d115b687d23848260405161116d929190612c5d565b60405180910390a15b50506001600160a01b038116156111e857604051631264e26d60e31b81526001600160a01b038216906393271368906111b59085908790600401612c4d565b600060405180830381600087803b1580156111cf57600080fd5b505af11580156111e3573d6000803e3d6000fd5b505050505b50509b9a5050505050505050505050565b600860209081526000928352604080842090915290825290205481565b600454806112365760405162461bcd60e51b81526004016106d190612e73565b611242848484846107d1565b50505050565b606060006003546001600160401b0381111561127457634e487b7160e01b600052604160045260246000fd5b60405190808252806020026020018201604052801561129d578160200160208202803683370190505b506001600090815260026020527fe90b7bceb6e7df5418fb78d8ee546e97c83a08bbccc01a0644d599ccd2a7c2e054919250906001600160a01b03165b6001600160a01b03811660011461134c578083838151811061130c57634e487b7160e01b600052603260045260246000fd5b6001600160a01b03928316602091820292909201810191909152918116600090815260029092526040909120541681611344816130ae565b9250506112da565b509091505090565b60055481565b600080825160208401855af480600052503d6020523d600060403e60403d016000fd5b6113bb8a8a808060200260200160405190810160405280939291908181526020018383602002808284376000920191909152508c9250611ef6915050565b6001600160a01b038416156113d3576113d3846120ba565b6114138787878080601f0160208091040260200160405190810160405280939291908181526020018383808284376000920191909152506120de92505050565b811561142a5761142882600060018685611e20565b505b336001600160a01b03167f141df868a6331af528e38c83b7aa03edc19be66e37ae67f9285bf4f8e3c6a1a88b8b8b8b8960405161146b959493929190612b0f565b60405180910390a250505050505050505050565b6000805a90506114c8878787878080601f01602080910402602001604051908101604052809392919081815260200183838082843760009201919091525089925050505a611d73565b6114d157600080fd5b60005a6114de908361305d565b9050806040516020016114f19190612a27565b60408051601f198184030181529082905262461bcd60e51b82526106d191600401612ca8565b60606000826001600160401b0381111561154157634e487b7160e01b600052604160045260246000fd5b60405190808252806020026020018201604052801561156a578160200160208202803683370190505b506001600160a01b0380861660009081526001602052604081205492945091165b6001600160a01b038116158015906115ad57506001600160a01b038116600114155b80156115b857508482105b1561161e57808483815181106115de57634e487b7160e01b600052603260045260246000fd5b6001600160a01b03928316602091820292909201810191909152918116600090815260019092526040909120541681611616816130ae565b92505061158b565b908352919491935090915050565b336000908152600260205260409020546001600160a01b03166116615760405162461bcd60e51b81526004016106d190612d3d565b336000818152600860209081526040808320858452909152808220600190555183917ff2a0eb156472d1440255b0d7c1e19cc07115d1051fe605b0dce69acfec884d9c91a350565b60006116be8c8c8c8c8c8c8c8c8c8c8c611a0e565b8051906020012090509b9a5050505050505050505050565b6116de611cdf565b6001600160a01b0381161580159061170057506001600160a01b038116600114155b61171c5760405162461bcd60e51b81526004016106d190612fa9565b6001600160a01b038281166000908152600160205260409020548116908216146117585760405162461bcd60e51b81526004016106d190612e16565b6001600160a01b03818116600081815260016020526040808220805487861684528284208054919096166001600160a01b0319918216179095559290915281549092169055517faab4fa2b463f581b2b32cb3b7e3b704b9ce37cc209b5fb4d77e593ace4054276906117cb908390612a30565b60405180910390a15050565b6117df611cdf565b7f4a204f620c8c5ccdca3fd54d003badd85ba500436a431f0cbda4f558c93c34c88181556040517f1151116914515bc0891ff9047a6cb32cf902546f83066499bcf8ba33d2353fa2906117cb908490612a30565b61183b611cdf565b6001600160a01b0381161580159061185d57506001600160a01b038116600114155b801561187257506001600160a01b0381163014155b61188e5760405162461bcd60e51b81526004016106d190612db9565b6001600160a01b0381811660009081526002602052604090205416156118c65760405162461bcd60e51b81526004016106d190612f4c565b6001600160a01b038216158015906118e857506001600160a01b038216600114155b6119045760405162461bcd60e51b81526004016106d190612db9565b6001600160a01b038381166000908152600260205260409020548116908316146119405760405162461bcd60e51b81526004016106d190612fe7565b6001600160a01b03828116600081815260026020526040808220805486861680855283852080549288166001600160a01b03199384161790559589168452828420805482169096179095559290915281549092169055517ff8d49fc529812e9a7c5c50e69c20f0dccc0db8fa95c98bc58cc9a4f1c1299eaf906119c4908490612a30565b60405180910390a17f9465fa0c962cc76958e6373a993326400c1c94f8be2fe3a952adfa7f60b2ea26816040516119fb9190612a30565b60405180910390a1505050565b60045490565b606060007fbb8310d486368db6bd6f849402fdd73ad53d316b5a4b2644ad6efe0f941286d860001b8d8d8d8d604051611a489291906129e6565b604051908190038120611a6e949392918e908e908e908e908e908e908e90602001612bde565b60408051601f1981840301815291905280516020909101209050601960f81b600160f81b611a9a611b0f565b83604051602001611aae94939291906129bc565b6040516020818303038152906040529150509b9a5050505050505050505050565b611ad7611cdf565b611ae0816120ba565b7f5ac6c46c93c8d0e53714ba3b53db3e7c046da994313d7ed0d192028bc7c228b081604051610e779190612a30565b60007f47e79534a245952e8b16893a336b85a3d9ea9fa8c573f3d803afb92a79469218611b3a610bca565b30604051602001611b4d93929190612c6b565b60405160208183030381529060405280519060200120905090565b611b70611cdf565b806001600354611b80919061305d565b1015611b9e5760405162461bcd60e51b81526004016106d190612d5c565b6001600160a01b03821615801590611bc057506001600160a01b038216600114155b611bdc5760405162461bcd60e51b81526004016106d190612db9565b6001600160a01b03838116600090815260026020526040902054811690831614611c185760405162461bcd60e51b81526004016106d190612fe7565b6001600160a01b03828116600081815260026020526040808220805488861684529183208054929095166001600160a01b03199283161790945591815282549091169091556003805491611c6b83613097565b91905055507ff8d49fc529812e9a7c5c50e69c20f0dccc0db8fa95c98bc58cc9a4f1c1299eaf82604051611c9f9190612a30565b60405180910390a18060045414611cb957611cb981610e82565b505050565b604051806040016040528060058152602001640312e332e360dc1b81525081565b333014611cfe5760405162461bcd60e51b81526004016106d190612f0e565b565b600082611d0f57506000610d52565b6000611d1b838561303e565b905082611d28858361301e565b14611d3257600080fd5b9392505050565b60419081029190910160208101516040820151919092015160ff1692565b600080611d648385613006565b905083811015611d3257600080fd5b60006001836001811115611d9757634e487b7160e01b600052602160045260246000fd5b1415611db0576000808551602087018986f49050611dc0565b600080855160208701888a87f190505b95945050505050565b7f4a204f620c8c5ccdca3fd54d003badd85ba500436a431f0cbda4f558c93c34c85490565b600081831015611dfe5781611d32565b5090919050565b600082821115611e1457600080fd5b6000610c85838561305d565b6000806001600160a01b03831615611e385782611e3a565b325b90506001600160a01b038416611eb557611e6c3a8610611e5a573a611e5c565b855b611e668989611d57565b90611d00565b6040519092506001600160a01b0382169083156108fc029084906000818181858888f19350505050611eb05760405162461bcd60e51b81526004016106d190612df7565b611eec565b611ec385611e668989611d57565b9150611ed08482846121a8565b611eec5760405162461bcd60e51b81526004016106d190612e35565b5095945050505050565b60045415611f165760405162461bcd60e51b81526004016106d190612d9a565b8151811115611f375760405162461bcd60e51b81526004016106d190612d5c565b6001811015611f585760405162461bcd60e51b81526004016106d190612ed0565b600160005b8351811015612087576000848281518110611f8857634e487b7160e01b600052603260045260246000fd5b6020026020010151905060006001600160a01b0316816001600160a01b031614158015611fbf57506001600160a01b038116600114155b8015611fd457506001600160a01b0381163014155b8015611ff25750806001600160a01b0316836001600160a01b031614155b61200e5760405162461bcd60e51b81526004016106d190612db9565b6001600160a01b0381811660009081526002602052604090205416156120465760405162461bcd60e51b81526004016106d190612f4c565b6001600160a01b03928316600090815260026020526040902080546001600160a01b031916938216939093179092558061207f816130ae565b915050611f5d565b506001600160a01b0316600090815260026020526040902080546001600160a01b03191660011790559051600355600455565b7f6c9a6c4a39284e37ed1cf53d337577d14212a4870fb976a4366c693b939918d555565b600160008190526020527fcc69885fda6bcc1a4ace058b4a62bf5e179ea78fd58a1ccd71c22cc9b688792f546001600160a01b0316156121305760405162461bcd60e51b81526004016106d190612e54565b6001600081905260208190527fcc69885fda6bcc1a4ace058b4a62bf5e179ea78fd58a1ccd71c22cc9b688792f80546001600160a01b03191690911790556001600160a01b038216156107cd5761218c8260008360015a611d73565b6107cd5760405162461bcd60e51b81526004016106d190612dd8565b60008063a9059cbb84846040516024016121c3929190612a44565b6040516020818303038152906040529060e01b6020820180516001600160e01b0383818316178352505050509050602060008251602084016000896127105a03f13d801561221c5760208114612224576000935061222f565b81935061222f565b600051158215171593505b5050509392505050565b8035610b8d816130f5565b60008083601f840112612255578182fd5b5081356001600160401b0381111561226b578182fd5b60208301915083602082850101111561228357600080fd5b9250929050565b600082601f83011261229a578081fd5b81356001600160401b03808211156122b4576122b46130df565b604051601f8301601f1916810160200182811182821017156122d8576122d86130df565b6040528281528483016020018610156122ef578384fd5b82602086016020830137918201602001929092529392505050565b803560028110610b8d57600080fd5b60006020828403121561232a578081fd5b8135611d32816130f5565b60008060408385031215612347578081fd5b8235612352816130f5565b91506020830135612362816130f5565b809150509250929050565b600080600060608486031215612381578081fd5b833561238c816130f5565b9250602084013561239c816130f5565b915060408401356123ac816130f5565b809150509250925092565b6000806000606084860312156123cb578283fd5b83356123d6816130f5565b925060208401356123e6816130f5565b929592945050506040919091013590565b60008060408385031215612409578182fd5b8235612414816130f5565b946020939093013593505050565b60008060408385031215612434578182fd5b823561243f816130f5565b915060208301356001600160401b03811115612459578182fd5b6124658582860161228a565b9150509250929050565b600080600080600060808688031215612486578081fd5b8535612491816130f5565b94506020860135935060408601356001600160401b038111156124b2578182fd5b6124be88828901612244565b90945092506124d190506060870161230a565b90509295509295909350565b60008060008060008060008060008060006101408c8e0312156124fe578586fd5b6125078c612239565b9a5060208c013599506001600160401b038060408e01351115612528578687fd5b6125388e60408f01358f01612244565b909a50985061254960608e0161230a565b975060808d0135965060a08d0135955060c08d0135945061256c60e08e01612239565b935061257b6101008e01612239565b9250806101208e0135111561258e578182fd5b506125a08d6101208e01358e0161228a565b90509295989b509295989b9093969950565b60008060008060008060008060008060006101408c8e0312156125d3578485fd5b8b356125de816130f5565b9a5060208c0135995060408c01356001600160401b038111156125ff578586fd5b61260b8e828f01612244565b909a50985061261e905060608d0161230a565b965060808c0135955060a08c0135945060c08c0135935060e08c0135612643816130f5565b92506101008c0135612654816130f5565b809250506101208c013590509295989b509295989b9093969950565b60008060008060808587031215612685578182fd5b8435612690816130f5565b93506020850135925060408501356001600160401b038111156126b1578283fd5b6126bd8782880161228a565b9250506126cc6060860161230a565b905092959194509250565b6000806000806000806000806000806101008b8d0312156126f6578384fd5b8a356001600160401b038082111561270c578586fd5b818d0191508d601f83011261271f578586fd5b81358181111561272d578687fd5b8e60208083028501011115612740578687fd5b60208381019d50909b508d0135995061275b60408e01612239565b985060608d0135915080821115612770578586fd5b5061277d8d828e01612244565b9097509550612790905060808c01612239565b935061279e60a08c01612239565b925060c08b013591506127b360e08c01612239565b90509295989b9194979a5092959850565b6000602082840312156127d5578081fd5b5035919050565b6000806000606084860312156127f0578081fd5b8335925060208401356001600160401b038082111561280d578283fd5b6128198783880161228a565b9350604086013591508082111561282e578283fd5b5061283b8682870161228a565b9150509250925092565b6000806000806080858703121561285a578182fd5b8435935060208501356001600160401b0380821115612877578384fd5b6128838883890161228a565b94506040870135915080821115612898578384fd5b506128a58782880161228a565b949793965093946060013593505050565b6000602082840312156128c7578081fd5b81516001600160e01b031981168114611d32578182fd5b600080604083850312156128f0578182fd5b50508035926020909101359150565b6001600160a01b03169052565b6000815180845260208085019450808401835b838110156129445781516001600160a01b03168752958201959082019060010161291f565b509495945050505050565b60008151808452815b8181101561297457602081850181015186830182015201612958565b818111156129855782602083870101525b50601f01601f19169290920160200192915050565b600281106129b857634e487b7160e01b600052602160045260246000fd5b9052565b6001600160f81b031994851681529290931660018301526002820152602281019190915260420190565b6000828483379101908152919050565b7f19457468657265756d205369676e6564204d6573736167653a0a3332000000008152601c810191909152603c0190565b90815260200190565b6001600160a01b0391909116815260200190565b6001600160a01b03929092168252602082015260400190565b6001600160a01b038d168152602081018c90526101606040820181905281018a905260006101808b8d8285013781818d85010152601f19601f8d01168301612aa8606085018d61299a565b8a60808501528960a08501528860c0850152612ac760e08501896128ff565b612ad56101008501886128ff565b8184820301610120850152612aec8282018761294f565b92505050612afe6101408301846128ff565b9d9c50505050505050505050505050565b6080808252810185905260008660a08301825b88811015612b52578235612b35816130f5565b6001600160a01b0316825260209283019290910190600101612b22565b50602084019690965250506001600160a01b039283166040820152911660609091015292915050565b600060208252611d32602083018461290c565b600060408252612ba1604083018561290c565b905060018060a01b03831660208301529392505050565b901515815260200190565b6000831515825260406020830152610c85604083018461294f565b8b81526001600160a01b038b81166020830152604082018b9052606082018a9052610160820190612c12608084018b61299a565b60a083019890985260c082019690965260e0810194909452918516610100840152909316610120820152610140019190915295945050505050565b9182521515602082015260400190565b918252602082015260400190565b92835260208301919091526001600160a01b0316604082015260600190565b93845260ff9290921660208401526040830152606082015260800190565b600060208252611d32602083018461294f565b600060408252612cce604083018561294f565b8281036020840152611dc0818561294f565b602080825260059082015264475330323360d81b604082015260600190565b60208082526005908201526423a998191b60d91b604082015260600190565b60208082526005908201526411d4cc0c8d60da1b604082015260600190565b602080825260059082015264047533033360dc1b604082015260600190565b602080825260059082015264475332303160d81b604082015260600190565b60208082526005908201526423a998191960d91b604082015260600190565b602080825260059082015264047533230360dc1b604082015260600190565b602080825260059082015264475332303360d81b604082015260600190565b602080825260059082015264047533030360dc1b604082015260600190565b602080825260059082015264475330313160d81b604082015260600190565b602080825260059082015264475331303360d81b604082015260600190565b60208082526005908201526423a998189960d91b604082015260600190565b602080825260059082015264047533130360dc1b604082015260600190565b602080825260059082015264475330303160d81b604082015260600190565b602080825260059082015264475330313360d81b604082015260600190565b602080825260059082015264047533031360dc1b604082015260600190565b60208082526005908201526423a999181960d91b604082015260600190565b60208082526005908201526411d4cc4c0d60da1b604082015260600190565b602080825260059082015264475330333160d81b604082015260600190565b602080825260059082015264475330323560d81b604082015260600190565b60208082526005908201526411d4cc8c0d60da1b604082015260600190565b60208082526005908201526423a998981960d91b604082015260600190565b602080825260059082015264475330323160d81b604082015260600190565b602080825260059082015264475331303160d81b604082015260600190565b602080825260059082015264047533032360dc1b604082015260600190565b602080825260059082015264475332303560d81b604082015260600190565b60008219821115613019576130196130c9565b500190565b60008261303957634e487b7160e01b81526012600452602481fd5b500490565b6000816000190483118215151615613058576130586130c9565b500290565b60008282101561306f5761306f6130c9565b500390565b600060ff821660ff84168082101561308e5761308e6130c9565b90039392505050565b6000816130a6576130a66130c9565b506000190190565b60006000198214156130c2576130c26130c9565b5060010190565b634e487b7160e01b600052601160045260246000fd5b634e487b7160e01b600052604160045260246000fd5b6001600160a01b038116811461310a57600080fd5b5056fea26469706673582212204c85e41d33037072aaccbe5ef9638247f4c3de8096eb866c06a73bcff7ae24dc64736f6c63430008000033",
  "linkReferences": {},
  "deployedLinkReferences": {}
}