{
  "_format": "hh-sol-artifact-1",
  "contractName": "MultiSend_SV1_3_0",
  "sourceName": "contracts/test/gnosis.sol",
  "abi": [
    {
      "inputs": [
        {
          "internalType": "bytes",
          "name": "transactions",
          "type": "bytes"
        }
      ],
      "name": "multiSend",
      "outputs": [],
      "stateMutability": "payable",
      "type": "function"
    }
  ],
  "bytecode": "0x60a060405234801561001057600080fd5b5030606081901b60805261024f61003160003960006043015261024f6000f3fe60806040526004361061001e5760003560e01c80638d80ff0a14610023575b600080fd5b610036610031366004610112565b610038565b005b306001600160a01b037f000000000000000000000000000000000000000000000000000000000000000016141561008a5760405162461bcd60e51b8152600401610081906101b3565b60405180910390fd5b805160205b8181101561010d578083015160f81c6001820184015160601c6015830185015160358401860151605585018701600085600081146100d457600181146100e4576100ef565b6000808585888a5af191506100ef565b6000808585895af491505b50806100fa57600080fd5b505080605501850194505050505061008f565b505050565b60006020808385031215610124578182fd5b823567ffffffffffffffff8082111561013b578384fd5b818501915085601f83011261014e578384fd5b81358181111561016057610160610203565b604051601f8201601f191681018501838111828210171561018357610183610203565b6040528181528382018501881015610199578586fd5b818585018683013790810190930193909352509392505050565b60208082526030908201527f4d756c746953656e642073686f756c64206f6e6c792062652063616c6c65642060408201526f1d9a584819195b1959d85d1958d85b1b60821b606082015260800190565b634e487b7160e01b600052604160045260246000fdfea2646970667358221220268a891d5f488cd3c44383aa6d5bef0fc7a757036d95ea36e16d21d4edf479d664736f6c63430008000033",
  "linkReferences": {},
  "deployedLinkReferences": {}
}