{
  "_format": "hh-sol-artifact-1",
  "contractName": "ProxyFactory_SV1_3_0",
  "sourceName": "contracts/test/gnosis.sol",
  "abi": [
    {
      "anonymous": false,
      "inputs": [
        {
          "indexed": false,
          "internalType": "contract GnosisSafeProxy",
          "name": "proxy",
          "type": "address"
        },
        {
          "indexed": false,
          "internalType": "address",
          "name": "singleton",
          "type": "address"
        }
      ],
      "name": "ProxyCreation",
      "type": "event"
    },
    {
      "inputs": [
        {
          "internalType": "address",
          "name": "_singleton",
          "type": "address"
        },
        {
          "internalType": "bytes",
          "name": "initializer",
          "type": "bytes"
        },
        {
          "internalType": "uint256",
          "name": "saltNonce",
          "type": "uint256"
        }
      ],
      "name": "calculateCreateProxyWithNonceAddress",
      "outputs": [
        {
          "internalType": "contract GnosisSafeProxy",
          "name": "proxy",
          "type": "address"
        }
      ],
      "stateMutability": "nonpayable",
      "type": "function"
    },
    {
      "inputs": [
        {
          "internalType": "address",
          "name": "singleton",
          "type": "address"
        },
        {
          "internalType": "bytes",
          "name": "data",
          "type": "bytes"
        }
      ],
      "name": "createProxy",
      "outputs": [
        {
          "internalType": "contract GnosisSafeProxy",
          "name": "proxy",
          "type": "address"
        }
      ],
      "stateMutability": "nonpayable",
      "type": "function"
    },
    {
      "inputs": [
        {
          "internalType": "address",
          "name": "_singleton",
          "type": "address"
        },
        {
          "internalType": "bytes",
          "name": "initializer",
          "type": "bytes"
        },
        {
          "internalType": "uint256",
          "name": "saltNonce",
          "type": "uint256"
        },
        {
          "internalType": "contract IProxyCreationCallback",
          "name": "callback",
          "type": "address"
        }
      ],
      "name": "createProxyWithCallback",
      "outputs": [
        {
          "internalType": "contract GnosisSafeProxy",
          "name": "proxy",
          "type": "address"
        }
      ],
      "stateMutability": "nonpayable",
      "type": "function"
    },
    {
      "inputs": [
        {
          "internalType": "address",
          "name": "_singleton",
          "type": "address"
        },
        {
          "internalType": "bytes",
          "name": "initializer",
          "type": "bytes"
        },
        {
          "internalType": "uint256",
          "name": "saltNonce",
          "type": "uint256"
        }
      ],
      "name": "createProxyWithNonce",
      "outputs": [
        {
          "internalType": "contract GnosisSafeProxy",
          "name": "proxy",
          "type": "address"
        }
      ],
      "stateMutability": "nonpayable",
      "type": "function"
    },
    {
      "inputs": [],
      "name": "proxyCreationCode",
      "outputs": [
        {
          "internalType": "bytes",
          "name": "",
          "type": "bytes"
        }
      ],
      "stateMutability": "pure",
      "type": "function"
    },
    {
      "inputs": [],
      "name": "proxyRuntimeCode",
      "outputs": [
        {
          "internalType": "bytes",
          "name": "",
          "type": "bytes"
        }
      ],
      "stateMutability": "pure",
      "type": "function"
    }
  ],
  "bytecode": "0x608060405234801561001057600080fd5b50610a36806100206000396000f3fe608060405234801561001057600080fd5b50600436106100625760003560e01c80631688f0b9146100675780632500510e1461009057806353e5d935146100a357806361b69abd146100b8578063addacc0f146100cb578063d18af54d146100d3575b600080fd5b61007a61007536600461059d565b6100e6565b60405161008791906106f7565b60405180910390f35b61007a61009e3660046104c9565b610158565b6100ab6101de565b604051610087919061070b565b61007a6100c636600461054f565b610208565b6100ab6102a2565b61007a6100e13660046105f4565b6102b4565b60006100f384848461036f565b8351909150156101185760008060008551602087016000865af1141561011857600080fd5b7f4f51faf6c4561ff95f067657e43439f0f856d97c04d9ec9070a6199ad418e2358185604051610149929190610725565b60405180910390a19392505050565b600061019c8585858080601f01602080910402602001604051908101604052809392919081815260200183838082843760009201919091525087925061036f915050565b9050806040516020016101af91906106ba565b60408051601f198184030181529082905262461bcd60e51b82526101d59160040161070b565b60405180910390fd5b6060604051806020016101f09061042f565b601f1982820381018352601f90910116604052905090565b6000826040516102179061042f565b61022191906106f7565b604051809103906000f08015801561023d573d6000803e3d6000fd5b508251909150156102635760008060008451602086016000865af1141561026357600080fd5b7f4f51faf6c4561ff95f067657e43439f0f856d97c04d9ec9070a6199ad418e2358184604051610294929190610725565b60405180910390a192915050565b6060604051806020016101f09061043c565b60008083836040516020016102ca9291906106d7565b6040516020818303038152906040528051906020012060001c90506102f08686836100e6565b91506001600160a01b03831615610366576040516303ca56a360e31b81526001600160a01b03841690631e52b518906103339085908a908a908a9060040161073f565b600060405180830381600087803b15801561034d57600080fd5b505af1158015610361573d6000803e3d6000fd5b505050505b50949350505050565b60008083805190602001208360405160200161038c92919061068a565b6040516020818303038152906040528051906020012090506000604051806020016103b69061042f565b601f1982820381018352601f9091011660408190526103e391906001600160a01b03891690602001610698565b6040516020818303038152906040529050818151826020016000f592506001600160a01b0383166104265760405162461bcd60e51b81526004016101d59061077c565b50509392505050565b61017d8061080883390190565b607c8061098583390190565b600082601f830112610458578081fd5b813567ffffffffffffffff80821115610473576104736107d9565b604051601f8301601f191681016020018281118282101715610497576104976107d9565b6040528281528483016020018610156104ae578384fd5b82602086016020830137918201602001929092529392505050565b600080600080606085870312156104de578384fd5b84356104e9816107ef565b9350602085013567ffffffffffffffff80821115610505578485fd5b818701915087601f830112610518578485fd5b813581811115610526578586fd5b886020828501011115610537578586fd5b95986020929092019750949560400135945092505050565b60008060408385031215610561578182fd5b823561056c816107ef565b9150602083013567ffffffffffffffff811115610587578182fd5b61059385828601610448565b9150509250929050565b6000806000606084860312156105b1578283fd5b83356105bc816107ef565b9250602084013567ffffffffffffffff8111156105d7578283fd5b6105e386828701610448565b925050604084013590509250925092565b60008060008060808587031215610609578384fd5b8435610614816107ef565b9350602085013567ffffffffffffffff81111561062f578384fd5b61063b87828801610448565b935050604085013591506060850135610653816107ef565b939692955090935050565b600081518084526106768160208601602086016107a9565b601f01601f19169290920160200192915050565b918252602082015260400190565b600083516106aa8184602088016107a9565b9190910191825250602001919050565b60609190911b6bffffffffffffffffffffffff1916815260140190565b91825260601b6bffffffffffffffffffffffff1916602082015260340190565b6001600160a01b0391909116815260200190565b60006020825261071e602083018461065e565b9392505050565b6001600160a01b0392831681529116602082015260400190565b6001600160a01b0385811682528416602082015260806040820181905260009061076b9083018561065e565b905082606083015295945050505050565b60208082526013908201527210dc99585d194c8818d85b1b0819985a5b1959606a1b604082015260600190565b60005b838110156107c45781810151838201526020016107ac565b838111156107d3576000848401525b50505050565b634e487b7160e01b600052604160045260246000fd5b6001600160a01b038116811461080457600080fd5b5056fe608060405234801561001057600080fd5b5060405161017d38038061017d83398101604081905261002f91610083565b6001600160a01b03811661005e5760405162461bcd60e51b8152600401610055906100b1565b60405180910390fd5b600080546001600160a01b0319166001600160a01b03929092169190911790556100f3565b600060208284031215610094578081fd5b81516001600160a01b03811681146100aa578182fd5b9392505050565b60208082526022908201527f496e76616c69642073696e676c65746f6e20616464726573732070726f766964604082015261195960f21b606082015260800190565b607c806101016000396000f3fe6080604052600080546001600160a01b0316813563530ca43760e11b1415602857808252602082f35b3682833781823684845af490503d82833e806041573d82fd5b503d81f3fea264697066735822122038a0a58a7546511ebce3f2a3704204e0591149f47e447115fc7650a013f5a5fb64736f6c634300080000336080604052600080546001600160a01b0316813563530ca43760e11b1415602857808252602082f35b3682833781823684845af490503d82833e806041573d82fd5b503d81f3fea264697066735822122038a0a58a7546511ebce3f2a3704204e0591149f47e447115fc7650a013f5a5fb64736f6c63430008000033a264697066735822122076545beae7407bcaccf8499ed4f0d62566435d11a593b8ede3dd22f802f1dcf264736f6c63430008000033",
  "linkReferences": {},
  "deployedLinkReferences": {}
}